{
  "_format": "hh-sol-artifact-1",
  "contractName": "DMER",
  "sourceName": "contracts/DMER.sol",
  "abi": [
    {
      "inputs": [],
      "stateMutability": "nonpayable",
      "type": "constructor"
    },
    {
      "inputs": [
        {
          "internalType": "address",
          "name": "owner",
          "type": "address"
        }
      ],
      "name": "OwnableInvalidOwner",
      "type": "error"
    },
    {
      "inputs": [
        {
          "internalType": "address",
          "name": "account",
          "type": "address"
        }
      ],
      "name": "OwnableUnauthorizedAccount",
      "type": "error"
    },
    {
      "anonymous": false,
      "inputs": [
        {
          "indexed": true,
          "internalType": "uint256",
          "name": "entityId",
          "type": "uint256"
        },
        {
          "indexed": false,
          "internalType": "string",
          "name": "identifier",
          "type": "string"
        },
        {
          "indexed": false,
          "internalType": "string",
          "name": "entityType",
          "type": "string"
        },
        {
          "indexed": false,
          "internalType": "string",
          "name": "reason",
          "type": "string"
        },
        {
          "indexed": false,
          "internalType": "address",
          "name": "reporter",
          "type": "address"
        }
      ],
      "name": "EntityFlagged",
      "type": "event"
    },
    {
      "anonymous": false,
      "inputs": [
        {
          "indexed": true,
          "internalType": "uint256",
          "name": "entityId",
          "type": "uint256"
        },
        {
          "indexed": false,
          "internalType": "string",
          "name": "identifier",
          "type": "string"
        },
        {
          "indexed": false,
          "internalType": "address",
          "name": "reporter",
          "type": "address"
        }
      ],
      "name": "EntityUnflagged",
      "type": "event"
    },
    {
      "anonymous": false,
      "inputs": [
        {
          "indexed": true,
          "internalType": "address",
          "name": "previousOwner",
          "type": "address"
        },
        {
          "indexed": true,
          "internalType": "address",
          "name": "newOwner",
          "type": "address"
        }
      ],
      "name": "OwnershipTransferred",
      "type": "event"
    },
    {
      "inputs": [
        {
          "internalType": "uint256",
          "name": "",
          "type": "uint256"
        }
      ],
      "name": "entities",
      "outputs": [
        {
          "internalType": "string",
          "name": "entityType",
          "type": "string"
        },
        {
          "internalType": "string",
          "name": "identifier",
          "type": "string"
        },
        {
          "internalType": "string",
          "name": "reason",
          "type": "string"
        },
        {
          "internalType": "uint256",
          "name": "timestamp",
          "type": "uint256"
        },
        {
          "internalType": "address",
          "name": "reporter",
          "type": "address"
        },
        {
          "internalType": "bool",
          "name": "active",
          "type": "bool"
        }
      ],
      "stateMutability": "view",
      "type": "function"
    },
    {
      "inputs": [
        {
          "internalType": "string",
          "name": "",
          "type": "string"
        },
        {
          "internalType": "uint256",
          "name": "",
          "type": "uint256"
        }
      ],
      "name": "entityIndex",
      "outputs": [
        {
          "internalType": "uint256",
          "name": "",
          "type": "uint256"
        }
      ],
      "stateMutability": "view",
      "type": "function"
    },
    {
      "inputs": [
        {
          "internalType": "string",
          "name": "entityType",
          "type": "string"
        },
        {
          "internalType": "string",
          "name": "identifier",
          "type": "string"
        },
        {
          "internalType": "string",
          "name": "reason",
          "type": "string"
        }
      ],
      "name": "flagEntity",
      "outputs": [],
      "stateMutability": "nonpayable",
      "type": "function"
    },
    {
      "inputs": [],
      "name": "getActiveEntities",
      "outputs": [
        {
          "components": [
            {
              "internalType": "string",
              "name": "entityType",
              "type": "string"
            },
            {
              "internalType": "string",
              "name": "identifier",
              "type": "string"
            },
            {
              "internalType": "string",
              "name": "reason",
              "type": "string"
            },
            {
              "internalType": "uint256",
              "name": "timestamp",
              "type": "uint256"
            },
            {
              "internalType": "address",
              "name": "reporter",
              "type": "address"
            },
            {
              "internalType": "bool",
              "name": "active",
              "type": "bool"
            }
          ],
          "internalType": "struct DMER.Entity[]",
          "name": "",
          "type": "tuple[]"
        }
      ],
      "stateMutability": "view",
      "type": "function"
    },
    {
      "inputs": [
        {
          "internalType": "string",
          "name": "identifier",
          "type": "string"
        }
      ],
      "name": "getEntitiesByIdentifier",
      "outputs": [
        {
          "components": [
            {
              "internalType": "string",
              "name": "entityType",
              "type": "string"
            },
            {
              "internalType": "string",
              "name": "identifier",
              "type": "string"
            },
            {
              "internalType": "string",
              "name": "reason",
              "type": "string"
            },
            {
              "internalType": "uint256",
              "name": "timestamp",
              "type": "uint256"
            },
            {
              "internalType": "address",
              "name": "reporter",
              "type": "address"
            },
            {
              "internalType": "bool",
              "name": "active",
              "type": "bool"
            }
          ],
          "internalType": "struct DMER.Entity[]",
          "name": "",
          "type": "tuple[]"
        }
      ],
      "stateMutability": "view",
      "type": "function"
    },
    {
      "inputs": [
        {
          "internalType": "uint256",
          "name": "entityId",
          "type": "uint256"
        }
      ],
      "name": "getEntity",
      "outputs": [
        {
          "components": [
            {
              "internalType": "string",
              "name": "entityType",
              "type": "string"
            },
            {
              "internalType": "string",
              "name": "identifier",
              "type": "string"
            },
            {
              "internalType": "string",
              "name": "reason",
              "type": "string"
            },
            {
              "internalType": "uint256",
              "name": "timestamp",
              "type": "uint256"
            },
            {
              "internalType": "address",
              "name": "reporter",
              "type": "address"
            },
            {
              "internalType": "bool",
              "name": "active",
              "type": "bool"
            }
          ],
          "internalType": "struct DMER.Entity",
          "name": "",
          "type": "tuple"
        }
      ],
      "stateMutability": "view",
      "type": "function"
    },
    {
      "inputs": [],
      "name": "owner",
      "outputs": [
        {
          "internalType": "address",
          "name": "",
          "type": "address"
        }
      ],
      "stateMutability": "view",
      "type": "function"
    },
    {
      "inputs": [],
      "name": "renounceOwnership",
      "outputs": [],
      "stateMutability": "nonpayable",
      "type": "function"
    },
    {
      "inputs": [
        {
          "internalType": "address",
          "name": "newOwner",
          "type": "address"
        }
      ],
      "name": "transferOwnership",
      "outputs": [],
      "stateMutability": "nonpayable",
      "type": "function"
    },
    {
      "inputs": [
        {
          "internalType": "uint256",
          "name": "entityId",
          "type": "uint256"
        }
      ],
      "name": "unflagEntity",
      "outputs": [],
      "stateMutability": "nonpayable",
      "type": "function"
    }
  ],
  "bytecode": "0x6080604052348015600f57600080fd5b503380603557604051631e4fbdf760e01b81526000600482015260240160405180910390fd5b603c816041565b506091565b600080546001600160a01b038381166001600160a01b0319831681178455604051919092169283917f8be0079c531659141344cd1fd0a4f28419497f9722a3daafe3b4186f6b6457e09190a35050565b6116a1806100a06000396000f3fe608060405234801561001057600080fd5b506004361061009e5760003560e01c8063715018a611610066578063715018a6146101215780638da5cb5b14610129578063b3a2784214610144578063e026e42114610164578063f2fde38b1461018557600080fd5b806316eafc9e146100a357806325a622a8146100c15780632e13fdf5146100d657806355ad5ef9146100e95780636331883b146100fc575b600080fd5b6100ab610198565b6040516100b891906110dd565b60405180910390f35b6100d46100cf366004611142565b6104e3565b005b6100ab6100e4366004611200565b6105d1565b6100d46100f736600461123d565b6108fc565b61010f61010a366004611142565b610a69565b6040516100b8969594939291906112d1565b6100d4610c5c565b6000546040516001600160a01b0390911681526020016100b8565b610157610152366004611142565b610c70565b6040516100b89190611334565b61017761017236600461134e565b610ed4565b6040519081526020016100b8565b6100d4610193366004611393565b610f14565b60606000805b6001548110156101f557600181815481106101bb576101bb6113bc565b906000526020600020906005020160040160149054906101000a900460ff16156101ed57816101e9816113e8565b9250505b60010161019e565b5060008167ffffffffffffffff8111156102115761021161115b565b60405190808252806020026020018201604052801561024a57816020015b610237610fcf565b81526020019060019003908161022f5790505b5090506000805b6001548110156104da576001818154811061026e5761026e6113bc565b906000526020600020906005020160040160149054906101000a900460ff16156104d257600181815481106102a5576102a56113bc565b90600052602060002090600502016040518060c00160405290816000820180546102ce90611401565b80601f01602080910402602001604051908101604052809291908181526020018280546102fa90611401565b80156103475780601f1061031c57610100808354040283529160200191610347565b820191906000526020600020905b81548152906001019060200180831161032a57829003601f168201915b5050505050815260200160018201805461036090611401565b80601f016020809104026020016040519081016040528092919081815260200182805461038c90611401565b80156103d95780601f106103ae576101008083540402835291602001916103d9565b820191906000526020600020905b8154815290600101906020018083116103bc57829003601f168201915b505050505081526020016002820180546103f290611401565b80601f016020809104026020016040519081016040528092919081815260200182805461041e90611401565b801561046b5780601f106104405761010080835404028352916020019161046b565b820191906000526020600020905b81548152906001019060200180831161044e57829003601f168201915b5050509183525050600382015460208201526004909101546001600160a01b0381166040830152600160a01b900460ff16151560609091015283518490849081106104b8576104b86113bc565b602002602001018190525081806104ce906113e8565b9250505b600101610251565b50909392505050565b6104eb610f52565b60015481106105345760405162461bcd60e51b815260206004820152601060248201526f125b9d985b1a5908195b9d1a5d1e525960821b60448201526064015b60405180910390fd5b600060018281548110610549576105496113bc565b906000526020600020906005020160040160146101000a81548160ff021916908315150217905550807ffb5889e72caa0d0e52fd7edd883ca8e624755496904d3d6f68c75d6283408b23600183815481106105a6576105a66113bc565b9060005260206000209060050201600101336040516105c692919061143b565b60405180910390a250565b606060006002836040516105e591906114d5565b908152604080519182900360209081018320805480830285018301909352828452919083018282801561063757602002820191906000526020600020905b815481526020019060010190808311610623575b505050505090506000815167ffffffffffffffff81111561065a5761065a61115b565b60405190808252806020026020018201604052801561069357816020015b610680610fcf565b8152602001906001900390816106785790505b50905060005b82518110156108f45760018382815181106106b6576106b66113bc565b6020026020010151815481106106ce576106ce6113bc565b90600052602060002090600502016040518060c00160405290816000820180546106f790611401565b80601f016020809104026020016040519081016040528092919081815260200182805461072390611401565b80156107705780601f1061074557610100808354040283529160200191610770565b820191906000526020600020905b81548152906001019060200180831161075357829003601f168201915b5050505050815260200160018201805461078990611401565b80601f01602080910402602001604051908101604052809291908181526020018280546107b590611401565b80156108025780601f106107d757610100808354040283529160200191610802565b820191906000526020600020905b8154815290600101906020018083116107e557829003601f168201915b5050505050815260200160028201805461081b90611401565b80601f016020809104026020016040519081016040528092919081815260200182805461084790611401565b80156108945780601f1061086957610100808354040283529160200191610894565b820191906000526020600020905b81548152906001019060200180831161087757829003601f168201915b5050509183525050600382015460208201526004909101546001600160a01b0381166040830152600160a01b900460ff16151560609091015282518390839081106108e1576108e16113bc565b6020908102919091010152600101610699565b509392505050565b6040805160c08101825284815260208101849052908101829052426060820152336080820152600160a0820181905280548082018255600091909152815182916005027fb10e2d527612073b26eecdfd717e6a320cf44b4afac2b0732d9fcbe2b7fa0cf60190819061096e9082611540565b50602082015160018201906109839082611540565b50604082015160028201906109989082611540565b506060820151600382015560808201516004909101805460a0909301511515600160a01b026001600160a81b03199093166001600160a01b0390921691909117919091179055600180546000916109ee916115ff565b9050600284604051610a0091906114d5565b9081526040519081900360209081018220805460018101825560009182529190200182905581907f4f5bb2180e8bd719492e0ae2805197dbacf06abe97168a71246928dd133b389890610a5a908790899088903390611618565b60405180910390a25050505050565b60018181548110610a7957600080fd5b9060005260206000209060050201600091509050806000018054610a9c90611401565b80601f0160208091040260200160405190810160405280929190818152602001828054610ac890611401565b8015610b155780601f10610aea57610100808354040283529160200191610b15565b820191906000526020600020905b815481529060010190602001808311610af857829003601f168201915b505050505090806001018054610b2a90611401565b80601f0160208091040260200160405190810160405280929190818152602001828054610b5690611401565b8015610ba35780601f10610b7857610100808354040283529160200191610ba3565b820191906000526020600020905b815481529060010190602001808311610b8657829003601f168201915b505050505090806002018054610bb890611401565b80601f0160208091040260200160405190810160405280929190818152602001828054610be490611401565b8015610c315780601f10610c0657610100808354040283529160200191610c31565b820191906000526020600020905b815481529060010190602001808311610c1457829003601f168201915b5050505060038301546004909301549192916001600160a01b0381169150600160a01b900460ff1686565b610c64610f52565b610c6e6000610f7f565b565b610c78610fcf565b6001548210610cbc5760405162461bcd60e51b815260206004820152601060248201526f125b9d985b1a5908195b9d1a5d1e525960821b604482015260640161052b565b60018281548110610ccf57610ccf6113bc565b90600052602060002090600502016040518060c0016040529081600082018054610cf890611401565b80601f0160208091040260200160405190810160405280929190818152602001828054610d2490611401565b8015610d715780601f10610d4657610100808354040283529160200191610d71565b820191906000526020600020905b815481529060010190602001808311610d5457829003601f168201915b50505050508152602001600182018054610d8a90611401565b80601f0160208091040260200160405190810160405280929190818152602001828054610db690611401565b8015610e035780601f10610dd857610100808354040283529160200191610e03565b820191906000526020600020905b815481529060010190602001808311610de657829003601f168201915b50505050508152602001600282018054610e1c90611401565b80601f0160208091040260200160405190810160405280929190818152602001828054610e4890611401565b8015610e955780601f10610e6a57610100808354040283529160200191610e95565b820191906000526020600020905b815481529060010190602001808311610e7857829003601f168201915b5050509183525050600382015460208201526004909101546001600160a01b0381166040830152600160a01b900460ff16151560609091015292915050565b81516020818401810180516002825292820191850191909120919052805482908110610eff57600080fd5b90600052602060002001600091509150505481565b610f1c610f52565b6001600160a01b038116610f4657604051631e4fbdf760e01b81526000600482015260240161052b565b610f4f81610f7f565b50565b6000546001600160a01b03163314610c6e5760405163118cdaa760e01b815233600482015260240161052b565b600080546001600160a01b038381166001600160a01b0319831681178455604051919092169283917f8be0079c531659141344cd1fd0a4f28419497f9722a3daafe3b4186f6b6457e09190a35050565b6040518060c001604052806060815260200160608152602001606081526020016000815260200160006001600160a01b031681526020016000151581525090565b60005b8381101561102b578181015183820152602001611013565b50506000910152565b6000815180845261104c816020860160208601611010565b601f01601f19169290920160200192915050565b6000815160c0845261107560c0850182611034565b90506020830151848203602086015261108e8282611034565b915050604083015184820360408601526110a88282611034565b606085810151908701526080808601516001600160a01b03169087015260a09485015115159490950193909352509192915050565b6000602082016020835280845180835260408501915060408160051b86010192506020860160005b8281101561113657603f19878603018452611121858351611060565b94506020938401939190910190600101611105565b50929695505050505050565b60006020828403121561115457600080fd5b5035919050565b634e487b7160e01b600052604160045260246000fd5b600082601f83011261118257600080fd5b813567ffffffffffffffff81111561119c5761119c61115b565b604051601f8201601f19908116603f0116810167ffffffffffffffff811182821017156111cb576111cb61115b565b6040528181528382016020018510156111e357600080fd5b816020850160208301376000918101602001919091529392505050565b60006020828403121561121257600080fd5b813567ffffffffffffffff81111561122957600080fd5b61123584828501611171565b949350505050565b60008060006060848603121561125257600080fd5b833567ffffffffffffffff81111561126957600080fd5b61127586828701611171565b935050602084013567ffffffffffffffff81111561129257600080fd5b61129e86828701611171565b925050604084013567ffffffffffffffff8111156112bb57600080fd5b6112c786828701611171565b9150509250925092565b60c0815260006112e460c0830189611034565b82810360208401526112f68189611034565b9050828103604084015261130a8188611034565b606084019690965250506001600160a01b03929092166080830152151560a0909101529392505050565b6020815260006113476020830184611060565b9392505050565b6000806040838503121561136157600080fd5b823567ffffffffffffffff81111561137857600080fd5b61138485828601611171565b95602094909401359450505050565b6000602082840312156113a557600080fd5b81356001600160a01b038116811461134757600080fd5b634e487b7160e01b600052603260045260246000fd5b634e487b7160e01b600052601160045260246000fd5b6000600182016113fa576113fa6113d2565b5060010190565b600181811c9082168061141557607f821691505b60208210810361143557634e487b7160e01b600052602260045260246000fd5b50919050565b60408152600080845461144d81611401565b806040860152600182166000811461146c5760018114611488576114bc565b60ff1983166060870152606082151560051b87010193506114bc565b87600052602060002060005b838110156114b357815488820160600152600190910190602001611494565b87016060019450505b5050506001600160a01b03841660208401529050611347565b600082516114e7818460208701611010565b9190910192915050565b601f82111561153b57806000526020600020601f840160051c810160208510156115185750805b601f840160051c820191505b818110156115385760008155600101611524565b50505b505050565b815167ffffffffffffffff81111561155a5761155a61115b565b61156e816115688454611401565b846114f1565b6020601f8211600181146115a2576000831561158a5750848201515b600019600385901b1c1916600184901b178455611538565b600084815260208120601f198516915b828110156115d257878501518255602094850194600190920191016115b2565b50848210156115f05786840151600019600387901b60f8161c191681555b50505050600190811b01905550565b81810381811115611612576116126113d2565b92915050565b60808152600061162b6080830187611034565b828103602084015261163d8187611034565b905082810360408401526116518186611034565b91505060018060a01b03831660608301529594505050505056fea2646970667358221220dcfaf6616440f943cfcdebeb7f4d4a4de7cc55938e7401065d1d2522d2c10bf464736f6c634300081f0033",
  "linkReferences": {},
  "deployedLinkReferences": {}
}