{"contracts/ChainlinkPriceOracle.sol":{"ChainlinkPriceOracle":{"abi":[{"inputs":[{"internalType":"address","name":"_priceFeedAddress","type":"address"}],"stateMutability":"nonpayable","type":"constructor"},{"inputs":[{"internalType":"address","name":"owner","type":"address"}],"name":"OwnableInvalidOwner","type":"error"},{"inputs":[{"internalType":"address","name":"account","type":"address"}],"name":"OwnableUnauthorizedAccount","type":"error"},{"anonymous":false,"inputs":[{"indexed":false,"internalType":"uint256","name":"oldPrice","type":"uint256"},{"indexed":false,"internalType":"uint256","name":"newPrice","type":"uint256"}],"name":"FallbackPriceSet","type":"event"},{"anonymous":false,"inputs":[{"indexed":false,"internalType":"uint256","name":"price","type":"uint256"},{"indexed":false,"internalType":"string","name":"reason","type":"string"}],"name":"FallbackPriceUsed","type":"event"},{"anonymous":false,"inputs":[{"indexed":true,"internalType":"address","name":"previousOwner","type":"address"},{"indexed":true,"internalType":"address","name":"newOwner","type":"address"}],"name":"OwnershipTransferred","type":"event"},{"anonymous":false,"inputs":[{"indexed":false,"internalType":"int256","name":"price","type":"int256"},{"indexed":false,"internalType":"uint256","name":"timestamp","type":"uint256"}],"name":"PriceUpdated","type":"event"},{"inputs":[],"name":"PRICE_DECIMALS","outputs":[{"internalType":"uint256","name":"","type":"uint256"}],"stateMutability":"view","type":"function"},{"inputs":[],"name":"STALENESS_THRESHOLD","outputs":[{"internalType":"uint256","name":"","type":"uint256"}],"stateMutability":"view","type":"function"},{"inputs":[{"internalType":"uint256","name":"ethAmount","type":"uint256"}],"name":"ethToUsd","outputs":[{"internalType":"uint256","name":"usdValue","type":"uint256"}],"stateMutability":"view","type":"function"},{"inputs":[],"name":"fallbackPrice","outputs":[{"internalType":"uint256","name":"","type":"uint256"}],"stateMutability":"view","type":"function"},{"inputs":[{"internalType":"uint80","name":"_roundId","type":"uint80"}],"name":"getHistoricalPrice","outputs":[{"internalType":"uint256","name":"price","type":"uint256"},{"internalType":"uint256","name":"timestamp","type":"uint256"},{"internalType":"bool","name":"success","type":"bool"}],"stateMutability":"view","type":"function"},{"inputs":[],"name":"getLatestPrice","outputs":[{"internalType":"uint256","name":"price","type":"uint256"},{"internalType":"uint256","name":"timestamp","type":"uint256"},{"internalType":"bool","name":"success","type":"bool"}],"stateMutability":"view","type":"function"},{"inputs":[],"name":"getPriceFeedInfo","outputs":[{"internalType":"string","name":"description","type":"string"},{"internalType":"uint256","name":"decimals","type":"uint256"},{"internalType":"uint256","name":"version","type":"uint256"}],"stateMutability":"view","type":"function"},{"inputs":[{"internalType":"uint256","name":"tokenPriceInEth","type":"uint256"}],"name":"getTokenPriceInUsd","outputs":[{"internalType":"uint256","name":"tokenPriceInUsd","type":"uint256"}],"stateMutability":"view","type":"function"},{"inputs":[],"name":"isPriceFeedHealthy","outputs":[{"internalType":"bool","name":"healthy","type":"bool"},{"internalType":"string","name":"status","type":"string"}],"stateMutability":"view","type":"function"},{"inputs":[],"name":"owner","outputs":[{"internalType":"address","name":"","type":"address"}],"stateMutability":"view","type":"function"},{"inputs":[],"name":"renounceOwnership","outputs":[],"stateMutability":"nonpayable","type":"function"},{"inputs":[{"internalType":"uint256","name":"_fallbackPrice","type":"uint256"}],"name":"setFallbackPrice","outputs":[],"stateMutability":"nonpayable","type":"function"},{"inputs":[{"internalType":"address","name":"newOwner","type":"address"}],"name":"transferOwnership","outputs":[],"stateMutability":"nonpayable","type":"function"},{"inputs":[{"internalType":"uint256","name":"usdAmount","type":"uint256"}],"name":"usdToEth","outputs":[{"internalType":"uint256","name":"ethValue","type":"uint256"}],"stateMutability":"view","type":"function"}],"evm":{"bytecode":{"linkReferences":{},"object":"60a06040526445d964b80060015534801561001957600080fd5b50604051610da6380380610da6833981016040819052610038916100c9565b338061005e57604051631e4fbdf760e01b81526000600482015260240160405180910390fd5b61006781610079565b506001600160a01b03166080526100f9565b600080546001600160a01b038381166001600160a01b0319831681178455604051919092169283917f8be0079c531659141344cd1fd0a4f28419497f9722a3daafe3b4186f6b6457e09190a35050565b6000602082840312156100db57600080fd5b81516001600160a01b03811681146100f257600080fd5b9392505050565b608051610c766101306000396000818161022001528181610342015281816103ca0152818161045101526106b10152610c766000f3fe608060405234801561001057600080fd5b50600436106100ea5760003560e01c8063be70d0231161008c578063eec377c011610066578063eec377c0146101c4578063f1a640f8146101d7578063f2fde38b146101df578063fdcd8d3a146101f257600080fd5b8063be70d02314610192578063ce4391df146101a8578063e28a1b86146101bb57600080fd5b80638e15f473116100c85780638e15f47314610130578063946d148014610155578063a76752b814610168578063bcecf6671461017f57600080fd5b8063715018a6146100ef5780637215b0bf146100f95780638da5cb5b14610115575b600080fd5b6100f7610205565b005b610102610e1081565b6040519081526020015b60405180910390f35b6000546040516001600160a01b03909116815260200161010c565b610138610219565b60408051938452602084019290925215159082015260600161010c565b61010261016336600461087e565b6102f6565b61017061033b565b60405161010c939291906108e7565b61010261018d36600461087e565b6104d8565b61019a61050c565b60405161010c92919061090c565b6100f76101b636600461087e565b6105e6565b61010260015481565b6101386101d236600461093f565b610681565b610102600881565b6100f76101ed366004610963565b61075a565b61010261020036600461087e565b610798565b61020d610801565b610217600061082e565b565b60008060007f00000000000000000000000000000000000000000000000000000000000000006001600160a01b031663feaf968c6040518163ffffffff1660e01b815260040160a060405180830381865afa925050508015610298575060408051601f3d908101601f191682019092526102959181019061098c565b60015b6102aa57505060015491429150600090565b6000841380156102ba5750600082115b156102e257610e106102cc83426109fa565b116102e257509196919550600194509092505050565b505060015496429650600095509350505050565b6000806000610303610219565b9250509150806103135760015491505b61031f6008600a610af4565b6103298386610b00565b6103339190610b17565b949350505050565b60606000807f00000000000000000000000000000000000000000000000000000000000000006001600160a01b0316637284e4166040518163ffffffff1660e01b8152600401600060405180830381865afa15801561039e573d6000803e3d6000fd5b505050506040513d6000823e601f3d908101601f191682016040526103c69190810190610b4f565b92507f00000000000000000000000000000000000000000000000000000000000000006001600160a01b031663313ce5676040518163ffffffff1660e01b8152600401602060405180830381865afa158015610426573d6000803e3d6000fd5b505050506040513d601f19601f8201168201806040525081019061044a9190610c04565b60ff1691507f00000000000000000000000000000000000000000000000000000000000000006001600160a01b03166354fd4d506040518163ffffffff1660e01b8152600401602060405180830381865afa1580156104ad573d6000803e3d6000fd5b505050506040513d601f19601f820116820180604052508101906104d19190610c27565b9050909192565b60008060006104e5610219565b9250509150806104f55760015491505b816105026008600a610af4565b6103299086610b00565b60006060600080600061051d610219565b9250925092508061056b5760006040518060400160405280601a81526020017f50726963652066656564206661696c6564206f72207374616c65000000000000815250945094505050509091565b60015483036105ae576000604051806040016040528060148152602001735573696e672066616c6c6261636b20707269636560601b815250945094505050509091565b60016040518060400160405280601281526020017150726963652066656564206865616c74687960701b815250945094505050509091565b6105ee610801565b6000811161063c5760405162461bcd60e51b8152602060048201526016602482015275496e76616c69642066616c6c6261636b20707269636560501b60448201526064015b60405180910390fd5b600180549082905560408051828152602081018490527f3515e709c827d86b79400b5cc8f0a07478339f87879b88c15a08315dadacbc63910160405180910390a15050565b604051639a6fc8f560e01b815269ffffffffffffffffffff82166004820152600090819081906001600160a01b037f00000000000000000000000000000000000000000000000000000000000000001690639a6fc8f59060240160a060405180830381865afa925050508015610714575060408051601f3d908101601f191682019092526107119181019061098c565b60015b61072657506000915081905080610753565b6000841315610742575091955090935060019250610753915050565b600080600097509750975050505050505b9193909250565b610762610801565b6001600160a01b03811661078c57604051631e4fbdf760e01b815260006004820152602401610633565b6107958161082e565b50565b604051630128da2960e71b815260048101829052600090309063946d148090602401602060405180830381865afa1580156107d7573d6000803e3d6000fd5b505050506040513d601f19601f820116820180604052508101906107fb9190610c27565b92915050565b6000546001600160a01b031633146102175760405163118cdaa760e01b8152336004820152602401610633565b600080546001600160a01b038381166001600160a01b0319831681178455604051919092169283917f8be0079c531659141344cd1fd0a4f28419497f9722a3daafe3b4186f6b6457e09190a35050565b60006020828403121561089057600080fd5b5035919050565b60005b838110156108b257818101518382015260200161089a565b50506000910152565b600081518084526108d3816020860160208601610897565b601f01601f19169290920160200192915050565b6060815260006108fa60608301866108bb565b60208301949094525060400152919050565b821515815260406020820152600061033360408301846108bb565b69ffffffffffffffffffff8116811461079557600080fd5b60006020828403121561095157600080fd5b813561095c81610927565b9392505050565b60006020828403121561097557600080fd5b81356001600160a01b038116811461095c57600080fd5b600080600080600060a086880312156109a457600080fd5b85516109af81610927565b60208701516040880151606089015160808a0151939850919650945092506109d681610927565b809150509295509295909350565b634e487b7160e01b600052601160045260246000fd5b818103818111156107fb576107fb6109e4565b6001815b6001841115610a4857808504811115610a2c57610a2c6109e4565b6001841615610a3a57908102905b60019390931c928002610a11565b935093915050565b600082610a5f575060016107fb565b81610a6c575060006107fb565b8160018114610a825760028114610a8c57610aa8565b60019150506107fb565b60ff841115610a9d57610a9d6109e4565b50506001821b6107fb565b5060208310610133831016604e8410600b8410161715610acb575081810a6107fb565b610ad86000198484610a0d565b8060001904821115610aec57610aec6109e4565b029392505050565b600061095c8383610a50565b80820281158282048414176107fb576107fb6109e4565b600082610b3457634e487b7160e01b600052601260045260246000fd5b500490565b634e487b7160e01b600052604160045260246000fd5b600060208284031215610b6157600080fd5b815167ffffffffffffffff811115610b7857600080fd5b8201601f81018413610b8957600080fd5b805167ffffffffffffffff811115610ba357610ba3610b39565b604051601f8201601f19908116603f0116810167ffffffffffffffff81118282101715610bd257610bd2610b39565b604052818152828201602001861015610bea57600080fd5b610bfb826020830160208601610897565b95945050505050565b600060208284031215610c1657600080fd5b815160ff8116811461095c57600080fd5b600060208284031215610c3957600080fd5b505191905056fea2646970667358221220f27f719f59787c374fe5b68d32c0b9a66fd0dd415411f2f06624165ca97e5b9064736f6c634300081f0033","opcodes":"PUSH1 0xA0 PUSH1 0x40 MSTORE PUSH5 0x45D964B800 PUSH1 0x1 SSTORE CALLVALUE DUP1 ISZERO PUSH2 0x19 JUMPI PUSH1 0x0 DUP1 REVERT JUMPDEST POP PUSH1 0x40 MLOAD PUSH2 0xDA6 CODESIZE SUB DUP1 PUSH2 0xDA6 DUP4 CODECOPY DUP2 ADD PUSH1 0x40 DUP2 SWAP1 MSTORE PUSH2 0x38 SWAP2 PUSH2 0xC9 JUMP JUMPDEST CALLER DUP1 PUSH2 0x5E JUMPI PUSH1 0x40 MLOAD PUSH4 0x1E4FBDF7 PUSH1 0xE0 SHL DUP2 MSTORE PUSH1 0x0 PUSH1 0x4 DUP3 ADD MSTORE PUSH1 0x24 ADD PUSH1 0x40 MLOAD DUP1 SWAP2 SUB SWAP1 REVERT JUMPDEST PUSH2 0x67 DUP2 PUSH2 0x79 JUMP JUMPDEST POP PUSH1 0x1 PUSH1 0x1 PUSH1 0xA0 SHL SUB AND PUSH1 0x80 MSTORE PUSH2 0xF9 JUMP JUMPDEST PUSH1 0x0 DUP1 SLOAD PUSH1 0x1 PUSH1 0x1 PUSH1 0xA0 SHL SUB DUP4 DUP2 AND PUSH1 0x1 PUSH1 0x1 PUSH1 0xA0 SHL SUB NOT DUP4 AND DUP2 OR DUP5 SSTORE PUSH1 0x40 MLOAD SWAP2 SWAP1 SWAP3 AND SWAP3 DUP4 SWAP2 PUSH32 0x8BE0079C531659141344CD1FD0A4F28419497F9722A3DAAFE3B4186F6B6457E0 SWAP2 SWAP1 LOG3 POP POP JUMP JUMPDEST PUSH1 0x0 PUSH1 0x20 DUP3 DUP5 SUB SLT ISZERO PUSH2 0xDB JUMPI PUSH1 0x0 DUP1 REVERT JUMPDEST DUP2 MLOAD PUSH1 0x1 PUSH1 0x1 PUSH1 0xA0 SHL SUB DUP2 AND DUP2 EQ PUSH2 0xF2 JUMPI PUSH1 0x0 DUP1 REVERT JUMPDEST SWAP4 SWAP3 POP POP POP JUMP JUMPDEST PUSH1 0x80 MLOAD PUSH2 0xC76 PUSH2 0x130 PUSH1 0x0 CODECOPY PUSH1 0x0 DUP2 DUP2 PUSH2 0x220 ADD MSTORE DUP2 DUP2 PUSH2 0x342 ADD MSTORE DUP2 DUP2 PUSH2 0x3CA ADD MSTORE DUP2 DUP2 PUSH2 0x451 ADD MSTORE PUSH2 0x6B1 ADD MSTORE PUSH2 0xC76 PUSH1 0x0 RETURN INVALID PUSH1 0x80 PUSH1 0x40 MSTORE CALLVALUE DUP1 ISZERO PUSH2 0x10 JUMPI PUSH1 0x0 DUP1 REVERT JUMPDEST POP PUSH1 0x4 CALLDATASIZE LT PUSH2 0xEA JUMPI PUSH1 0x0 CALLDATALOAD PUSH1 0xE0 SHR DUP1 PUSH4 0xBE70D023 GT PUSH2 0x8C JUMPI DUP1 PUSH4 0xEEC377C0 GT PUSH2 0x66 JUMPI DUP1 PUSH4 0xEEC377C0 EQ PUSH2 0x1C4 JUMPI DUP1 PUSH4 0xF1A640F8 EQ PUSH2 0x1D7 JUMPI DUP1 PUSH4 0xF2FDE38B EQ PUSH2 0x1DF JUMPI DUP1 PUSH4 0xFDCD8D3A EQ PUSH2 0x1F2 JUMPI PUSH1 0x0 DUP1 REVERT JUMPDEST DUP1 PUSH4 0xBE70D023 EQ PUSH2 0x192 JUMPI DUP1 PUSH4 0xCE4391DF EQ PUSH2 0x1A8 JUMPI DUP1 PUSH4 0xE28A1B86 EQ PUSH2 0x1BB JUMPI PUSH1 0x0 DUP1 REVERT JUMPDEST DUP1 PUSH4 0x8E15F473 GT PUSH2 0xC8 JUMPI DUP1 PUSH4 0x8E15F473 EQ PUSH2 0x130 JUMPI DUP1 PUSH4 0x946D1480 EQ PUSH2 0x155 JUMPI DUP1 PUSH4 0xA76752B8 EQ PUSH2 0x168 JUMPI DUP1 PUSH4 0xBCECF667 EQ PUSH2 0x17F JUMPI PUSH1 0x0 DUP1 REVERT JUMPDEST DUP1 PUSH4 0x715018A6 EQ PUSH2 0xEF JUMPI DUP1 PUSH4 0x7215B0BF EQ PUSH2 0xF9 JUMPI DUP1 PUSH4 0x8DA5CB5B EQ PUSH2 0x115 JUMPI JUMPDEST PUSH1 0x0 DUP1 REVERT JUMPDEST PUSH2 0xF7 PUSH2 0x205 JUMP JUMPDEST STOP JUMPDEST PUSH2 0x102 PUSH2 0xE10 DUP2 JUMP JUMPDEST PUSH1 0x40 MLOAD SWAP1 DUP2 MSTORE PUSH1 0x20 ADD JUMPDEST PUSH1 0x40 MLOAD DUP1 SWAP2 SUB SWAP1 RETURN JUMPDEST PUSH1 0x0 SLOAD PUSH1 0x40 MLOAD PUSH1 0x1 PUSH1 0x1 PUSH1 0xA0 SHL SUB SWAP1 SWAP2 AND DUP2 MSTORE PUSH1 0x20 ADD PUSH2 0x10C JUMP JUMPDEST PUSH2 0x138 PUSH2 0x219 JUMP JUMPDEST PUSH1 0x40 DUP1 MLOAD SWAP4 DUP5 MSTORE PUSH1 0x20 DUP5 ADD SWAP3 SWAP1 SWAP3 MSTORE ISZERO ISZERO SWAP1 DUP3 ADD MSTORE PUSH1 0x60 ADD PUSH2 0x10C JUMP JUMPDEST PUSH2 0x102 PUSH2 0x163 CALLDATASIZE PUSH1 0x4 PUSH2 0x87E JUMP JUMPDEST PUSH2 0x2F6 JUMP JUMPDEST PUSH2 0x170 PUSH2 0x33B JUMP JUMPDEST PUSH1 0x40 MLOAD PUSH2 0x10C SWAP4 SWAP3 SWAP2 SWAP1 PUSH2 0x8E7 JUMP JUMPDEST PUSH2 0x102 PUSH2 0x18D CALLDATASIZE PUSH1 0x4 PUSH2 0x87E JUMP JUMPDEST PUSH2 0x4D8 JUMP JUMPDEST PUSH2 0x19A PUSH2 0x50C JUMP JUMPDEST PUSH1 0x40 MLOAD PUSH2 0x10C SWAP3 SWAP2 SWAP1 PUSH2 0x90C JUMP JUMPDEST PUSH2 0xF7 PUSH2 0x1B6 CALLDATASIZE PUSH1 0x4 PUSH2 0x87E JUMP JUMPDEST PUSH2 0x5E6 JUMP JUMPDEST PUSH2 0x102 PUSH1 0x1 SLOAD DUP2 JUMP JUMPDEST PUSH2 0x138 PUSH2 0x1D2 CALLDATASIZE PUSH1 0x4 PUSH2 0x93F JUMP JUMPDEST PUSH2 0x681 JUMP JUMPDEST PUSH2 0x102 PUSH1 0x8 DUP2 JUMP JUMPDEST PUSH2 0xF7 PUSH2 0x1ED CALLDATASIZE PUSH1 0x4 PUSH2 0x963 JUMP JUMPDEST PUSH2 0x75A JUMP JUMPDEST PUSH2 0x102 PUSH2 0x200 CALLDATASIZE PUSH1 0x4 PUSH2 0x87E JUMP JUMPDEST PUSH2 0x798 JUMP JUMPDEST PUSH2 0x20D PUSH2 0x801 JUMP JUMPDEST PUSH2 0x217 PUSH1 0x0 PUSH2 0x82E JUMP JUMPDEST JUMP JUMPDEST PUSH1 0x0 DUP1 PUSH1 0x0 PUSH32 0x0 PUSH1 0x1 PUSH1 0x1 PUSH1 0xA0 SHL SUB AND PUSH4 0xFEAF968C PUSH1 0x40 MLOAD DUP2 PUSH4 0xFFFFFFFF AND PUSH1 0xE0 SHL DUP2 MSTORE PUSH1 0x4 ADD PUSH1 0xA0 PUSH1 0x40 MLOAD DUP1 DUP4 SUB DUP2 DUP7 GAS STATICCALL SWAP3 POP POP POP DUP1 ISZERO PUSH2 0x298 JUMPI POP PUSH1 0x40 DUP1 MLOAD PUSH1 0x1F RETURNDATASIZE SWAP1 DUP2 ADD PUSH1 0x1F NOT AND DUP3 ADD SWAP1 SWAP3 MSTORE PUSH2 0x295 SWAP2 DUP2 ADD SWAP1 PUSH2 0x98C JUMP JUMPDEST PUSH1 0x1 JUMPDEST PUSH2 0x2AA JUMPI POP POP PUSH1 0x1 SLOAD SWAP2 TIMESTAMP SWAP2 POP PUSH1 0x0 SWAP1 JUMP JUMPDEST PUSH1 0x0 DUP5 SGT DUP1 ISZERO PUSH2 0x2BA JUMPI POP PUSH1 0x0 DUP3 GT JUMPDEST ISZERO PUSH2 0x2E2 JUMPI PUSH2 0xE10 PUSH2 0x2CC DUP4 TIMESTAMP PUSH2 0x9FA JUMP JUMPDEST GT PUSH2 0x2E2 JUMPI POP SWAP2 SWAP7 SWAP2 SWAP6 POP PUSH1 0x1 SWAP5 POP SWAP1 SWAP3 POP POP POP JUMP JUMPDEST POP POP PUSH1 0x1 SLOAD SWAP7 TIMESTAMP SWAP7 POP PUSH1 0x0 SWAP6 POP SWAP4 POP POP POP POP JUMP JUMPDEST PUSH1 0x0 DUP1 PUSH1 0x0 PUSH2 0x303 PUSH2 0x219 JUMP JUMPDEST SWAP3 POP POP SWAP2 POP DUP1 PUSH2 0x313 JUMPI PUSH1 0x1 SLOAD SWAP2 POP JUMPDEST PUSH2 0x31F PUSH1 0x8 PUSH1 0xA PUSH2 0xAF4 JUMP JUMPDEST PUSH2 0x329 DUP4 DUP7 PUSH2 0xB00 JUMP JUMPDEST PUSH2 0x333 SWAP2 SWAP1 PUSH2 0xB17 JUMP JUMPDEST SWAP5 SWAP4 POP POP POP POP JUMP JUMPDEST PUSH1 0x60 PUSH1 0x0 DUP1 PUSH32 0x0 PUSH1 0x1 PUSH1 0x1 PUSH1 0xA0 SHL SUB AND PUSH4 0x7284E416 PUSH1 0x40 MLOAD DUP2 PUSH4 0xFFFFFFFF AND PUSH1 0xE0 SHL DUP2 MSTORE PUSH1 0x4 ADD PUSH1 0x0 PUSH1 0x40 MLOAD DUP1 DUP4 SUB DUP2 DUP7 GAS STATICCALL ISZERO DUP1 ISZERO PUSH2 0x39E JUMPI RETURNDATASIZE PUSH1 0x0 DUP1 RETURNDATACOPY RETURNDATASIZE PUSH1 0x0 REVERT JUMPDEST POP POP POP POP PUSH1 0x40 MLOAD RETURNDATASIZE PUSH1 0x0 DUP3 RETURNDATACOPY PUSH1 0x1F RETURNDATASIZE SWAP1 DUP2 ADD PUSH1 0x1F NOT AND DUP3 ADD PUSH1 0x40 MSTORE PUSH2 0x3C6 SWAP2 SWAP1 DUP2 ADD SWAP1 PUSH2 0xB4F JUMP JUMPDEST SWAP3 POP PUSH32 0x0 PUSH1 0x1 PUSH1 0x1 PUSH1 0xA0 SHL SUB AND PUSH4 0x313CE567 PUSH1 0x40 MLOAD DUP2 PUSH4 0xFFFFFFFF AND PUSH1 0xE0 SHL DUP2 MSTORE PUSH1 0x4 ADD PUSH1 0x20 PUSH1 0x40 MLOAD DUP1 DUP4 SUB DUP2 DUP7 GAS STATICCALL ISZERO DUP1 ISZERO PUSH2 0x426 JUMPI RETURNDATASIZE PUSH1 0x0 DUP1 RETURNDATACOPY RETURNDATASIZE PUSH1 0x0 REVERT JUMPDEST POP POP POP POP PUSH1 0x40 MLOAD RETURNDATASIZE PUSH1 0x1F NOT PUSH1 0x1F DUP3 ADD AND DUP3 ADD DUP1 PUSH1 0x40 MSTORE POP DUP2 ADD SWAP1 PUSH2 0x44A SWAP2 SWAP1 PUSH2 0xC04 JUMP JUMPDEST PUSH1 0xFF AND SWAP2 POP PUSH32 0x0 PUSH1 0x1 PUSH1 0x1 PUSH1 0xA0 SHL SUB AND PUSH4 0x54FD4D50 PUSH1 0x40 MLOAD DUP2 PUSH4 0xFFFFFFFF AND PUSH1 0xE0 SHL DUP2 MSTORE PUSH1 0x4 ADD PUSH1 0x20 PUSH1 0x40 MLOAD DUP1 DUP4 SUB DUP2 DUP7 GAS STATICCALL ISZERO DUP1 ISZERO PUSH2 0x4AD JUMPI RETURNDATASIZE PUSH1 0x0 DUP1 RETURNDATACOPY RETURNDATASIZE PUSH1 0x0 REVERT JUMPDEST POP POP POP POP PUSH1 0x40 MLOAD RETURNDATASIZE PUSH1 0x1F NOT PUSH1 0x1F DUP3 ADD AND DUP3 ADD DUP1 PUSH1 0x40 MSTORE POP DUP2 ADD SWAP1 PUSH2 0x4D1 SWAP2 SWAP1 PUSH2 0xC27 JUMP JUMPDEST SWAP1 POP SWAP1 SWAP2 SWAP3 JUMP JUMPDEST PUSH1 0x0 DUP1 PUSH1 0x0 PUSH2 0x4E5 PUSH2 0x219 JUMP JUMPDEST SWAP3 POP POP SWAP2 POP DUP1 PUSH2 0x4F5 JUMPI PUSH1 0x1 SLOAD SWAP2 POP JUMPDEST DUP2 PUSH2 0x502 PUSH1 0x8 PUSH1 0xA PUSH2 0xAF4 JUMP JUMPDEST PUSH2 0x329 SWAP1 DUP7 PUSH2 0xB00 JUMP JUMPDEST PUSH1 0x0 PUSH1 0x60 PUSH1 0x0 DUP1 PUSH1 0x0 PUSH2 0x51D PUSH2 0x219 JUMP JUMPDEST SWAP3 POP SWAP3 POP SWAP3 POP DUP1 PUSH2 0x56B JUMPI PUSH1 0x0 PUSH1 0x40 MLOAD DUP1 PUSH1 0x40 ADD PUSH1 0x40 MSTORE DUP1 PUSH1 0x1A DUP2 MSTORE PUSH1 0x20 ADD PUSH32 0x50726963652066656564206661696C6564206F72207374616C65000000000000 DUP2 MSTORE POP SWAP5 POP SWAP5 POP POP POP POP SWAP1 SWAP2 JUMP JUMPDEST PUSH1 0x1 SLOAD DUP4 SUB PUSH2 0x5AE JUMPI PUSH1 0x0 PUSH1 0x40 MLOAD DUP1 PUSH1 0x40 ADD PUSH1 0x40 MSTORE DUP1 PUSH1 0x14 DUP2 MSTORE PUSH1 0x20 ADD PUSH20 0x5573696E672066616C6C6261636B207072696365 PUSH1 0x60 SHL DUP2 MSTORE POP SWAP5 POP SWAP5 POP POP POP POP SWAP1 SWAP2 JUMP JUMPDEST PUSH1 0x1 PUSH1 0x40 MLOAD DUP1 PUSH1 0x40 ADD PUSH1 0x40 MSTORE DUP1 PUSH1 0x12 DUP2 MSTORE PUSH1 0x20 ADD PUSH18 0x50726963652066656564206865616C746879 PUSH1 0x70 SHL DUP2 MSTORE POP SWAP5 POP SWAP5 POP POP POP POP SWAP1 SWAP2 JUMP JUMPDEST PUSH2 0x5EE PUSH2 0x801 JUMP JUMPDEST PUSH1 0x0 DUP2 GT PUSH2 0x63C JUMPI PUSH1 0x40 MLOAD PUSH3 0x461BCD PUSH1 0xE5 SHL DUP2 MSTORE PUSH1 0x20 PUSH1 0x4 DUP3 ADD MSTORE PUSH1 0x16 PUSH1 0x24 DUP3 ADD MSTORE PUSH22 0x496E76616C69642066616C6C6261636B207072696365 PUSH1 0x50 SHL PUSH1 0x44 DUP3 ADD MSTORE PUSH1 0x64 ADD JUMPDEST PUSH1 0x40 MLOAD DUP1 SWAP2 SUB SWAP1 REVERT JUMPDEST PUSH1 0x1 DUP1 SLOAD SWAP1 DUP3 SWAP1 SSTORE PUSH1 0x40 DUP1 MLOAD DUP3 DUP2 MSTORE PUSH1 0x20 DUP2 ADD DUP5 SWAP1 MSTORE PUSH32 0x3515E709C827D86B79400B5CC8F0A07478339F87879B88C15A08315DADACBC63 SWAP2 ADD PUSH1 0x40 MLOAD DUP1 SWAP2 SUB SWAP1 LOG1 POP POP JUMP JUMPDEST PUSH1 0x40 MLOAD PUSH4 0x9A6FC8F5 PUSH1 0xE0 SHL DUP2 MSTORE PUSH10 0xFFFFFFFFFFFFFFFFFFFF DUP3 AND PUSH1 0x4 DUP3 ADD MSTORE PUSH1 0x0 SWAP1 DUP2 SWAP1 DUP2 SWAP1 PUSH1 0x1 PUSH1 0x1 PUSH1 0xA0 SHL SUB PUSH32 0x0 AND SWAP1 PUSH4 0x9A6FC8F5 SWAP1 PUSH1 0x24 ADD PUSH1 0xA0 PUSH1 0x40 MLOAD DUP1 DUP4 SUB DUP2 DUP7 GAS STATICCALL SWAP3 POP POP POP DUP1 ISZERO PUSH2 0x714 JUMPI POP PUSH1 0x40 DUP1 MLOAD PUSH1 0x1F RETURNDATASIZE SWAP1 DUP2 ADD PUSH1 0x1F NOT AND DUP3 ADD SWAP1 SWAP3 MSTORE PUSH2 0x711 SWAP2 DUP2 ADD SWAP1 PUSH2 0x98C JUMP JUMPDEST PUSH1 0x1 JUMPDEST PUSH2 0x726 JUMPI POP PUSH1 0x0 SWAP2 POP DUP2 SWAP1 POP DUP1 PUSH2 0x753 JUMP JUMPDEST PUSH1 0x0 DUP5 SGT ISZERO PUSH2 0x742 JUMPI POP SWAP2 SWAP6 POP SWAP1 SWAP4 POP PUSH1 0x1 SWAP3 POP PUSH2 0x753 SWAP2 POP POP JUMP JUMPDEST PUSH1 0x0 DUP1 PUSH1 0x0 SWAP8 POP SWAP8 POP SWAP8 POP POP POP POP POP POP JUMPDEST SWAP2 SWAP4 SWAP1 SWAP3 POP JUMP JUMPDEST PUSH2 0x762 PUSH2 0x801 JUMP JUMPDEST PUSH1 0x1 PUSH1 0x1 PUSH1 0xA0 SHL SUB DUP2 AND PUSH2 0x78C JUMPI PUSH1 0x40 MLOAD PUSH4 0x1E4FBDF7 PUSH1 0xE0 SHL DUP2 MSTORE PUSH1 0x0 PUSH1 0x4 DUP3 ADD MSTORE PUSH1 0x24 ADD PUSH2 0x633 JUMP JUMPDEST PUSH2 0x795 DUP2 PUSH2 0x82E JUMP JUMPDEST POP JUMP JUMPDEST PUSH1 0x40 MLOAD PUSH4 0x128DA29 PUSH1 0xE7 SHL DUP2 MSTORE PUSH1 0x4 DUP2 ADD DUP3 SWAP1 MSTORE PUSH1 0x0 SWAP1 ADDRESS SWAP1 PUSH4 0x946D1480 SWAP1 PUSH1 0x24 ADD PUSH1 0x20 PUSH1 0x40 MLOAD DUP1 DUP4 SUB DUP2 DUP7 GAS STATICCALL ISZERO DUP1 ISZERO PUSH2 0x7D7 JUMPI RETURNDATASIZE PUSH1 0x0 DUP1 RETURNDATACOPY RETURNDATASIZE PUSH1 0x0 REVERT JUMPDEST POP POP POP POP PUSH1 0x40 MLOAD RETURNDATASIZE PUSH1 0x1F NOT PUSH1 0x1F DUP3 ADD AND DUP3 ADD DUP1 PUSH1 0x40 MSTORE POP DUP2 ADD SWAP1 PUSH2 0x7FB SWAP2 SWAP1 PUSH2 0xC27 JUMP JUMPDEST SWAP3 SWAP2 POP POP JUMP JUMPDEST PUSH1 0x0 SLOAD PUSH1 0x1 PUSH1 0x1 PUSH1 0xA0 SHL SUB AND CALLER EQ PUSH2 0x217 JUMPI PUSH1 0x40 MLOAD PUSH4 0x118CDAA7 PUSH1 0xE0 SHL DUP2 MSTORE CALLER PUSH1 0x4 DUP3 ADD MSTORE PUSH1 0x24 ADD PUSH2 0x633 JUMP JUMPDEST PUSH1 0x0 DUP1 SLOAD PUSH1 0x1 PUSH1 0x1 PUSH1 0xA0 SHL SUB DUP4 DUP2 AND PUSH1 0x1 PUSH1 0x1 PUSH1 0xA0 SHL SUB NOT DUP4 AND DUP2 OR DUP5 SSTORE PUSH1 0x40 MLOAD SWAP2 SWAP1 SWAP3 AND SWAP3 DUP4 SWAP2 PUSH32 0x8BE0079C531659141344CD1FD0A4F28419497F9722A3DAAFE3B4186F6B6457E0 SWAP2 SWAP1 LOG3 POP POP JUMP JUMPDEST PUSH1 0x0 PUSH1 0x20 DUP3 DUP5 SUB SLT ISZERO PUSH2 0x890 JUMPI PUSH1 0x0 DUP1 REVERT JUMPDEST POP CALLDATALOAD SWAP2 SWAP1 POP JUMP JUMPDEST PUSH1 0x0 JUMPDEST DUP4 DUP2 LT ISZERO PUSH2 0x8B2 JUMPI DUP2 DUP2 ADD MLOAD DUP4 DUP3 ADD MSTORE PUSH1 0x20 ADD PUSH2 0x89A JUMP JUMPDEST POP POP PUSH1 0x0 SWAP2 ADD MSTORE JUMP JUMPDEST PUSH1 0x0 DUP2 MLOAD DUP1 DUP5 MSTORE PUSH2 0x8D3 DUP2 PUSH1 0x20 DUP7 ADD PUSH1 0x20 DUP7 ADD PUSH2 0x897 JUMP JUMPDEST PUSH1 0x1F ADD PUSH1 0x1F NOT AND SWAP3 SWAP1 SWAP3 ADD PUSH1 0x20 ADD SWAP3 SWAP2 POP POP JUMP JUMPDEST PUSH1 0x60 DUP2 MSTORE PUSH1 0x0 PUSH2 0x8FA PUSH1 0x60 DUP4 ADD DUP7 PUSH2 0x8BB JUMP JUMPDEST PUSH1 0x20 DUP4 ADD SWAP5 SWAP1 SWAP5 MSTORE POP PUSH1 0x40 ADD MSTORE SWAP2 SWAP1 POP JUMP JUMPDEST DUP3 ISZERO ISZERO DUP2 MSTORE PUSH1 0x40 PUSH1 0x20 DUP3 ADD MSTORE PUSH1 0x0 PUSH2 0x333 PUSH1 0x40 DUP4 ADD DUP5 PUSH2 0x8BB JUMP JUMPDEST PUSH10 0xFFFFFFFFFFFFFFFFFFFF DUP2 AND DUP2 EQ PUSH2 0x795 JUMPI PUSH1 0x0 DUP1 REVERT JUMPDEST PUSH1 0x0 PUSH1 0x20 DUP3 DUP5 SUB SLT ISZERO PUSH2 0x951 JUMPI PUSH1 0x0 DUP1 REVERT JUMPDEST DUP2 CALLDATALOAD PUSH2 0x95C DUP2 PUSH2 0x927 JUMP JUMPDEST SWAP4 SWAP3 POP POP POP JUMP JUMPDEST PUSH1 0x0 PUSH1 0x20 DUP3 DUP5 SUB SLT ISZERO PUSH2 0x975 JUMPI PUSH1 0x0 DUP1 REVERT JUMPDEST DUP2 CALLDATALOAD PUSH1 0x1 PUSH1 0x1 PUSH1 0xA0 SHL SUB DUP2 AND DUP2 EQ PUSH2 0x95C JUMPI PUSH1 0x0 DUP1 REVERT JUMPDEST PUSH1 0x0 DUP1 PUSH1 0x0 DUP1 PUSH1 0x0 PUSH1 0xA0 DUP7 DUP9 SUB SLT ISZERO PUSH2 0x9A4 JUMPI PUSH1 0x0 DUP1 REVERT JUMPDEST DUP6 MLOAD PUSH2 0x9AF DUP2 PUSH2 0x927 JUMP JUMPDEST PUSH1 0x20 DUP8 ADD MLOAD PUSH1 0x40 DUP9 ADD MLOAD PUSH1 0x60 DUP10 ADD MLOAD PUSH1 0x80 DUP11 ADD MLOAD SWAP4 SWAP9 POP SWAP2 SWAP7 POP SWAP5 POP SWAP3 POP PUSH2 0x9D6 DUP2 PUSH2 0x927 JUMP JUMPDEST DUP1 SWAP2 POP POP SWAP3 SWAP6 POP SWAP3 SWAP6 SWAP1 SWAP4 POP JUMP JUMPDEST PUSH4 0x4E487B71 PUSH1 0xE0 SHL PUSH1 0x0 MSTORE PUSH1 0x11 PUSH1 0x4 MSTORE PUSH1 0x24 PUSH1 0x0 REVERT JUMPDEST DUP2 DUP2 SUB DUP2 DUP2 GT ISZERO PUSH2 0x7FB JUMPI PUSH2 0x7FB PUSH2 0x9E4 JUMP JUMPDEST PUSH1 0x1 DUP2 JUMPDEST PUSH1 0x1 DUP5 GT ISZERO PUSH2 0xA48 JUMPI DUP1 DUP6 DIV DUP2 GT ISZERO PUSH2 0xA2C JUMPI PUSH2 0xA2C PUSH2 0x9E4 JUMP JUMPDEST PUSH1 0x1 DUP5 AND ISZERO PUSH2 0xA3A JUMPI SWAP1 DUP2 MUL SWAP1 JUMPDEST PUSH1 0x1 SWAP4 SWAP1 SWAP4 SHR SWAP3 DUP1 MUL PUSH2 0xA11 JUMP JUMPDEST SWAP4 POP SWAP4 SWAP2 POP POP JUMP JUMPDEST PUSH1 0x0 DUP3 PUSH2 0xA5F JUMPI POP PUSH1 0x1 PUSH2 0x7FB JUMP JUMPDEST DUP2 PUSH2 0xA6C JUMPI POP PUSH1 0x0 PUSH2 0x7FB JUMP JUMPDEST DUP2 PUSH1 0x1 DUP2 EQ PUSH2 0xA82 JUMPI PUSH1 0x2 DUP2 EQ PUSH2 0xA8C JUMPI PUSH2 0xAA8 JUMP JUMPDEST PUSH1 0x1 SWAP2 POP POP PUSH2 0x7FB JUMP JUMPDEST PUSH1 0xFF DUP5 GT ISZERO PUSH2 0xA9D JUMPI PUSH2 0xA9D PUSH2 0x9E4 JUMP JUMPDEST POP POP PUSH1 0x1 DUP3 SHL PUSH2 0x7FB JUMP JUMPDEST POP PUSH1 0x20 DUP4 LT PUSH2 0x133 DUP4 LT AND PUSH1 0x4E DUP5 LT PUSH1 0xB DUP5 LT AND OR ISZERO PUSH2 0xACB JUMPI POP DUP2 DUP2 EXP PUSH2 0x7FB JUMP JUMPDEST PUSH2 0xAD8 PUSH1 0x0 NOT DUP5 DUP5 PUSH2 0xA0D JUMP JUMPDEST DUP1 PUSH1 0x0 NOT DIV DUP3 GT ISZERO PUSH2 0xAEC JUMPI PUSH2 0xAEC PUSH2 0x9E4 JUMP JUMPDEST MUL SWAP4 SWAP3 POP POP POP JUMP JUMPDEST PUSH1 0x0 PUSH2 0x95C DUP4 DUP4 PUSH2 0xA50 JUMP JUMPDEST DUP1 DUP3 MUL DUP2 ISZERO DUP3 DUP3 DIV DUP5 EQ OR PUSH2 0x7FB JUMPI PUSH2 0x7FB PUSH2 0x9E4 JUMP JUMPDEST PUSH1 0x0 DUP3 PUSH2 0xB34 JUMPI PUSH4 0x4E487B71 PUSH1 0xE0 SHL PUSH1 0x0 MSTORE PUSH1 0x12 PUSH1 0x4 MSTORE PUSH1 0x24 PUSH1 0x0 REVERT JUMPDEST POP DIV SWAP1 JUMP JUMPDEST PUSH4 0x4E487B71 PUSH1 0xE0 SHL PUSH1 0x0 MSTORE PUSH1 0x41 PUSH1 0x4 MSTORE PUSH1 0x24 PUSH1 0x0 REVERT JUMPDEST PUSH1 0x0 PUSH1 0x20 DUP3 DUP5 SUB SLT ISZERO PUSH2 0xB61 JUMPI PUSH1 0x0 DUP1 REVERT JUMPDEST DUP2 MLOAD PUSH8 0xFFFFFFFFFFFFFFFF DUP2 GT ISZERO PUSH2 0xB78 JUMPI PUSH1 0x0 DUP1 REVERT JUMPDEST DUP3 ADD PUSH1 0x1F DUP2 ADD DUP5 SGT PUSH2 0xB89 JUMPI PUSH1 0x0 DUP1 REVERT JUMPDEST DUP1 MLOAD PUSH8 0xFFFFFFFFFFFFFFFF DUP2 GT ISZERO PUSH2 0xBA3 JUMPI PUSH2 0xBA3 PUSH2 0xB39 JUMP JUMPDEST PUSH1 0x40 MLOAD PUSH1 0x1F DUP3 ADD PUSH1 0x1F NOT SWAP1 DUP2 AND PUSH1 0x3F ADD AND DUP2 ADD PUSH8 0xFFFFFFFFFFFFFFFF DUP2 GT DUP3 DUP3 LT OR ISZERO PUSH2 0xBD2 JUMPI PUSH2 0xBD2 PUSH2 0xB39 JUMP JUMPDEST PUSH1 0x40 MSTORE DUP2 DUP2 MSTORE DUP3 DUP3 ADD PUSH1 0x20 ADD DUP7 LT ISZERO PUSH2 0xBEA JUMPI PUSH1 0x0 DUP1 REVERT JUMPDEST PUSH2 0xBFB DUP3 PUSH1 0x20 DUP4 ADD PUSH1 0x20 DUP7 ADD PUSH2 0x897 JUMP JUMPDEST SWAP6 SWAP5 POP POP POP POP POP JUMP JUMPDEST PUSH1 0x0 PUSH1 0x20 DUP3 DUP5 SUB SLT ISZERO PUSH2 0xC16 JUMPI PUSH1 0x0 DUP1 REVERT JUMPDEST DUP2 MLOAD PUSH1 0xFF DUP2 AND DUP2 EQ PUSH2 0x95C JUMPI PUSH1 0x0 DUP1 REVERT JUMPDEST PUSH1 0x0 PUSH1 0x20 DUP3 DUP5 SUB SLT ISZERO PUSH2 0xC39 JUMPI PUSH1 0x0 DUP1 REVERT JUMPDEST POP MLOAD SWAP2 SWAP1 POP JUMP INVALID LOG2 PUSH5 0x6970667358 0x22 SLT KECCAK256 CALLCODE PUSH32 0x719F59787C374FE5B68D32C0B9A66FD0DD415411F2F06624165CA97E5B906473 PUSH16 0x6C634300081F00330000000000000000 "},"methodIdentifiers":{"PRICE_DECIMALS()":"f1a640f8","STALENESS_THRESHOLD()":"7215b0bf","ethToUsd(uint256)":"946d1480","fallbackPrice()":"e28a1b86","getHistoricalPrice(uint80)":"eec377c0","getLatestPrice()":"8e15f473","getPriceFeedInfo()":"a76752b8","getTokenPriceInUsd(uint256)":"fdcd8d3a","isPriceFeedHealthy()":"be70d023","owner()":"8da5cb5b","renounceOwnership()":"715018a6","setFallbackPrice(uint256)":"ce4391df","transferOwnership(address)":"f2fde38b","usdToEth(uint256)":"bcecf667"}}}}}