{
  "_format": "hh-sol-artifact-1",
  "contractName": "GuardianShieldToken",
  "sourceName": "contracts/GuardianShieldToken.sol",
  "abi": [
    {
      "inputs": [],
      "stateMutability": "nonpayable",
      "type": "constructor"
    },
    {
      "inputs": [
        {
          "internalType": "address",
          "name": "sender",
          "type": "address"
        },
        {
          "internalType": "uint256",
          "name": "tokenId",
          "type": "uint256"
        },
        {
          "internalType": "address",
          "name": "owner",
          "type": "address"
        }
      ],
      "name": "ERC721IncorrectOwner",
      "type": "error"
    },
    {
      "inputs": [
        {
          "internalType": "address",
          "name": "operator",
          "type": "address"
        },
        {
          "internalType": "uint256",
          "name": "tokenId",
          "type": "uint256"
        }
      ],
      "name": "ERC721InsufficientApproval",
      "type": "error"
    },
    {
      "inputs": [
        {
          "internalType": "address",
          "name": "approver",
          "type": "address"
        }
      ],
      "name": "ERC721InvalidApprover",
      "type": "error"
    },
    {
      "inputs": [
        {
          "internalType": "address",
          "name": "operator",
          "type": "address"
        }
      ],
      "name": "ERC721InvalidOperator",
      "type": "error"
    },
    {
      "inputs": [
        {
          "internalType": "address",
          "name": "owner",
          "type": "address"
        }
      ],
      "name": "ERC721InvalidOwner",
      "type": "error"
    },
    {
      "inputs": [
        {
          "internalType": "address",
          "name": "receiver",
          "type": "address"
        }
      ],
      "name": "ERC721InvalidReceiver",
      "type": "error"
    },
    {
      "inputs": [
        {
          "internalType": "address",
          "name": "sender",
          "type": "address"
        }
      ],
      "name": "ERC721InvalidSender",
      "type": "error"
    },
    {
      "inputs": [
        {
          "internalType": "uint256",
          "name": "tokenId",
          "type": "uint256"
        }
      ],
      "name": "ERC721NonexistentToken",
      "type": "error"
    },
    {
      "inputs": [
        {
          "internalType": "address",
          "name": "owner",
          "type": "address"
        }
      ],
      "name": "OwnableInvalidOwner",
      "type": "error"
    },
    {
      "inputs": [
        {
          "internalType": "address",
          "name": "account",
          "type": "address"
        }
      ],
      "name": "OwnableUnauthorizedAccount",
      "type": "error"
    },
    {
      "anonymous": false,
      "inputs": [
        {
          "indexed": true,
          "internalType": "address",
          "name": "owner",
          "type": "address"
        },
        {
          "indexed": true,
          "internalType": "address",
          "name": "approved",
          "type": "address"
        },
        {
          "indexed": true,
          "internalType": "uint256",
          "name": "tokenId",
          "type": "uint256"
        }
      ],
      "name": "Approval",
      "type": "event"
    },
    {
      "anonymous": false,
      "inputs": [
        {
          "indexed": true,
          "internalType": "address",
          "name": "owner",
          "type": "address"
        },
        {
          "indexed": true,
          "internalType": "address",
          "name": "operator",
          "type": "address"
        },
        {
          "indexed": false,
          "internalType": "bool",
          "name": "approved",
          "type": "bool"
        }
      ],
      "name": "ApprovalForAll",
      "type": "event"
    },
    {
      "anonymous": false,
      "inputs": [
        {
          "indexed": true,
          "internalType": "address",
          "name": "previousOwner",
          "type": "address"
        },
        {
          "indexed": true,
          "internalType": "address",
          "name": "newOwner",
          "type": "address"
        }
      ],
      "name": "OwnershipTransferred",
      "type": "event"
    },
    {
      "anonymous": false,
      "inputs": [
        {
          "indexed": true,
          "internalType": "uint256",
          "name": "tokenId",
          "type": "uint256"
        },
        {
          "indexed": true,
          "internalType": "address",
          "name": "by",
          "type": "address"
        }
      ],
      "name": "TokenFlaggedStolen",
      "type": "event"
    },
    {
      "anonymous": false,
      "inputs": [
        {
          "indexed": true,
          "internalType": "address",
          "name": "to",
          "type": "address"
        },
        {
          "indexed": true,
          "internalType": "uint256",
          "name": "tokenId",
          "type": "uint256"
        },
        {
          "indexed": false,
          "internalType": "uint256",
          "name": "serial",
          "type": "uint256"
        },
        {
          "indexed": false,
          "internalType": "string",
          "name": "tokenURI",
          "type": "string"
        }
      ],
      "name": "TokenMinted",
      "type": "event"
    },
    {
      "anonymous": false,
      "inputs": [
        {
          "indexed": true,
          "internalType": "uint256",
          "name": "tokenId",
          "type": "uint256"
        },
        {
          "indexed": true,
          "internalType": "address",
          "name": "by",
          "type": "address"
        }
      ],
      "name": "TokenRecovered",
      "type": "event"
    },
    {
      "anonymous": false,
      "inputs": [
        {
          "indexed": true,
          "internalType": "address",
          "name": "from",
          "type": "address"
        },
        {
          "indexed": true,
          "internalType": "address",
          "name": "to",
          "type": "address"
        },
        {
          "indexed": true,
          "internalType": "uint256",
          "name": "tokenId",
          "type": "uint256"
        }
      ],
      "name": "Transfer",
      "type": "event"
    },
    {
      "inputs": [
        {
          "internalType": "address",
          "name": "to",
          "type": "address"
        },
        {
          "internalType": "uint256",
          "name": "tokenId",
          "type": "uint256"
        }
      ],
      "name": "approve",
      "outputs": [],
      "stateMutability": "nonpayable",
      "type": "function"
    },
    {
      "inputs": [
        {
          "internalType": "address",
          "name": "owner",
          "type": "address"
        }
      ],
      "name": "balanceOf",
      "outputs": [
        {
          "internalType": "uint256",
          "name": "",
          "type": "uint256"
        }
      ],
      "stateMutability": "view",
      "type": "function"
    },
    {
      "inputs": [
        {
          "internalType": "uint256",
          "name": "tokenId",
          "type": "uint256"
        }
      ],
      "name": "flagStolen",
      "outputs": [],
      "stateMutability": "nonpayable",
      "type": "function"
    },
    {
      "inputs": [
        {
          "internalType": "uint256",
          "name": "tokenId",
          "type": "uint256"
        }
      ],
      "name": "getApproved",
      "outputs": [
        {
          "internalType": "address",
          "name": "",
          "type": "address"
        }
      ],
      "stateMutability": "view",
      "type": "function"
    },
    {
      "inputs": [
        {
          "internalType": "address",
          "name": "owner",
          "type": "address"
        },
        {
          "internalType": "address",
          "name": "operator",
          "type": "address"
        }
      ],
      "name": "isApprovedForAll",
      "outputs": [
        {
          "internalType": "bool",
          "name": "",
          "type": "bool"
        }
      ],
      "stateMutability": "view",
      "type": "function"
    },
    {
      "inputs": [
        {
          "internalType": "uint256",
          "name": "",
          "type": "uint256"
        }
      ],
      "name": "isStolen",
      "outputs": [
        {
          "internalType": "bool",
          "name": "",
          "type": "bool"
        }
      ],
      "stateMutability": "view",
      "type": "function"
    },
    {
      "inputs": [
        {
          "internalType": "address",
          "name": "to",
          "type": "address"
        },
        {
          "internalType": "uint256",
          "name": "serial",
          "type": "uint256"
        },
        {
          "internalType": "string",
          "name": "tokenURI_",
          "type": "string"
        }
      ],
      "name": "mint",
      "outputs": [
        {
          "internalType": "uint256",
          "name": "",
          "type": "uint256"
        }
      ],
      "stateMutability": "nonpayable",
      "type": "function"
    },
    {
      "inputs": [],
      "name": "name",
      "outputs": [
        {
          "internalType": "string",
          "name": "",
          "type": "string"
        }
      ],
      "stateMutability": "view",
      "type": "function"
    },
    {
      "inputs": [],
      "name": "owner",
      "outputs": [
        {
          "internalType": "address",
          "name": "",
          "type": "address"
        }
      ],
      "stateMutability": "view",
      "type": "function"
    },
    {
      "inputs": [
        {
          "internalType": "uint256",
          "name": "tokenId",
          "type": "uint256"
        }
      ],
      "name": "ownerOf",
      "outputs": [
        {
          "internalType": "address",
          "name": "",
          "type": "address"
        }
      ],
      "stateMutability": "view",
      "type": "function"
    },
    {
      "inputs": [
        {
          "internalType": "uint256",
          "name": "tokenId",
          "type": "uint256"
        }
      ],
      "name": "recoverToken",
      "outputs": [],
      "stateMutability": "nonpayable",
      "type": "function"
    },
    {
      "inputs": [],
      "name": "renounceOwnership",
      "outputs": [],
      "stateMutability": "nonpayable",
      "type": "function"
    },
    {
      "inputs": [
        {
          "internalType": "address",
          "name": "from",
          "type": "address"
        },
        {
          "internalType": "address",
          "name": "to",
          "type": "address"
        },
        {
          "internalType": "uint256",
          "name": "tokenId",
          "type": "uint256"
        }
      ],
      "name": "safeTransferFrom",
      "outputs": [],
      "stateMutability": "nonpayable",
      "type": "function"
    },
    {
      "inputs": [
        {
          "internalType": "address",
          "name": "from",
          "type": "address"
        },
        {
          "internalType": "address",
          "name": "to",
          "type": "address"
        },
        {
          "internalType": "uint256",
          "name": "tokenId",
          "type": "uint256"
        },
        {
          "internalType": "bytes",
          "name": "data",
          "type": "bytes"
        }
      ],
      "name": "safeTransferFrom",
      "outputs": [],
      "stateMutability": "nonpayable",
      "type": "function"
    },
    {
      "inputs": [
        {
          "internalType": "uint256",
          "name": "",
          "type": "uint256"
        }
      ],
      "name": "serialToTokenId",
      "outputs": [
        {
          "internalType": "uint256",
          "name": "",
          "type": "uint256"
        }
      ],
      "stateMutability": "view",
      "type": "function"
    },
    {
      "inputs": [
        {
          "internalType": "address",
          "name": "operator",
          "type": "address"
        },
        {
          "internalType": "bool",
          "name": "approved",
          "type": "bool"
        }
      ],
      "name": "setApprovalForAll",
      "outputs": [],
      "stateMutability": "nonpayable",
      "type": "function"
    },
    {
      "inputs": [
        {
          "internalType": "bytes4",
          "name": "interfaceId",
          "type": "bytes4"
        }
      ],
      "name": "supportsInterface",
      "outputs": [
        {
          "internalType": "bool",
          "name": "",
          "type": "bool"
        }
      ],
      "stateMutability": "view",
      "type": "function"
    },
    {
      "inputs": [],
      "name": "symbol",
      "outputs": [
        {
          "internalType": "string",
          "name": "",
          "type": "string"
        }
      ],
      "stateMutability": "view",
      "type": "function"
    },
    {
      "inputs": [
        {
          "internalType": "uint256",
          "name": "",
          "type": "uint256"
        }
      ],
      "name": "tokenIdToSerial",
      "outputs": [
        {
          "internalType": "uint256",
          "name": "",
          "type": "uint256"
        }
      ],
      "stateMutability": "view",
      "type": "function"
    },
    {
      "inputs": [
        {
          "internalType": "uint256",
          "name": "tokenId",
          "type": "uint256"
        }
      ],
      "name": "tokenURI",
      "outputs": [
        {
          "internalType": "string",
          "name": "",
          "type": "string"
        }
      ],
      "stateMutability": "view",
      "type": "function"
    },
    {
      "inputs": [
        {
          "internalType": "address",
          "name": "from",
          "type": "address"
        },
        {
          "internalType": "address",
          "name": "to",
          "type": "address"
        },
        {
          "internalType": "uint256",
          "name": "tokenId",
          "type": "uint256"
        }
      ],
      "name": "transferFrom",
      "outputs": [],
      "stateMutability": "nonpayable",
      "type": "function"
    },
    {
      "inputs": [
        {
          "internalType": "address",
          "name": "newOwner",
          "type": "address"
        }
      ],
      "name": "transferOwnership",
      "outputs": [],
      "stateMutability": "nonpayable",
      "type": "function"
    }
  ],
  "bytecode": "0x60806040526001600b5534801561001557600080fd5b50336040518060400160405280601381526020017f477561726469616e536869656c64546f6b656e000000000000000000000000008152506040518060400160405280600381526020016211d4d560ea1b815250816000908161007891906101b6565b50600161008582826101b6565b5050506001600160a01b0381166100b657604051631e4fbdf760e01b81526000600482015260240160405180910390fd5b6100bf816100c5565b50610274565b600680546001600160a01b038381166001600160a01b0319831681179093556040519116919082907f8be0079c531659141344cd1fd0a4f28419497f9722a3daafe3b4186f6b6457e090600090a35050565b634e487b7160e01b600052604160045260246000fd5b600181811c9082168061014157607f821691505b60208210810361016157634e487b7160e01b600052602260045260246000fd5b50919050565b601f8211156101b157806000526020600020601f840160051c8101602085101561018e5750805b601f840160051c820191505b818110156101ae576000815560010161019a565b50505b505050565b81516001600160401b038111156101cf576101cf610117565b6101e3816101dd845461012d565b84610167565b6020601f82116001811461021757600083156101ff5750848201515b600019600385901b1c1916600184901b1784556101ae565b600084815260208120601f198516915b828110156102475787850151825560209485019460019092019101610227565b50848210156102655786840151600019600387901b60f8161c191681555b50505050600190811b01905550565b6113f0806102836000396000f3fe608060405234801561001057600080fd5b50600436106101425760003560e01c8063715018a6116100b8578063c87b56dd1161007c578063c87b56dd146102c8578063cb1a233d146102db578063d3fc9864146102ee578063d473363a14610301578063e985e9c514610314578063f2fde38b1461032757600080fd5b8063715018a6146102815780638da5cb5b1461028957806395d89b411461029a578063a22cb465146102a2578063b88d4fde146102b557600080fd5b806323b872dd1161010a57806323b872dd146101f257806333344c49146102055780633714cb081461022857806342842e0e146102485780636352211e1461025b57806370a082311461026e57600080fd5b806301ffc9a71461014757806306fdde031461016f578063081812fc14610184578063095ea7b3146101af5780630cc13601146101c4575b600080fd5b61015a610155366004610ec6565b61033a565b60405190151581526020015b60405180910390f35b61017761038c565b6040516101669190610f30565b610197610192366004610f43565b61041e565b6040516001600160a01b039091168152602001610166565b6101c26101bd366004610f78565b610447565b005b6101e46101d2366004610f43565b60086020526000908152604090205481565b604051908152602001610166565b6101c2610200366004610fa2565b610456565b61015a610213366004610f43565b600a6020526000908152604090205460ff1681565b6101e4610236366004610f43565b60076020526000908152604090205481565b6101c2610256366004610fa2565b6104e6565b610197610269366004610f43565b610506565b6101e461027c366004610fdf565b610511565b6101c2610559565b6006546001600160a01b0316610197565b61017761056d565b6101c26102b0366004610ffa565b61057c565b6101c26102c33660046110c6565b610587565b6101776102d6366004610f43565b61059f565b6101c26102e9366004610f43565b610641565b6101e46102fc366004611142565b61068c565b6101c261030f366004610f43565b610780565b61015a6103223660046111ad565b6107ce565b6101c2610335366004610fdf565b6107fc565b60006001600160e01b031982166380ac58cd60e01b148061036b57506001600160e01b03198216635b5e139f60e01b145b8061038657506301ffc9a760e01b6001600160e01b03198316145b92915050565b60606000805461039b906111e0565b80601f01602080910402602001604051908101604052809291908181526020018280546103c7906111e0565b80156104145780601f106103e957610100808354040283529160200191610414565b820191906000526020600020905b8154815290600101906020018083116103f757829003601f168201915b5050505050905090565b60006104298261083a565b506000828152600460205260409020546001600160a01b0316610386565b610452828233610873565b5050565b6001600160a01b03821661048557604051633250574960e11b8152600060048201526024015b60405180910390fd5b6000610492838333610880565b9050836001600160a01b0316816001600160a01b0316146104e0576040516364283d7b60e01b81526001600160a01b038086166004830152602482018490528216604482015260640161047c565b50505050565b61050183838360405180602001604052806000815250610587565b505050565b60006103868261083a565b60006001600160a01b03821661053d576040516322718ad960e21b81526000600482015260240161047c565b506001600160a01b031660009081526003602052604090205490565b6105616108f2565b61056b600061091f565b565b60606001805461039b906111e0565b610452338383610971565b610592848484610456565b6104e03385858585610a10565b60008181526009602052604090208054606091906105bc906111e0565b80601f01602080910402602001604051908101604052809291908181526020018280546105e8906111e0565b80156106355780601f1061060a57610100808354040283529160200191610635565b820191906000526020600020905b81548152906001019060200180831161061857829003601f168201915b50505050509050919050565b6106496108f2565b6000818152600a6020526040808220805460ff1916905551339183917f7754b90a7dadcfd77d1d5197b8cd5aad8a7a244816c34b50e43d22b2d475798e9190a350565b60006106966108f2565b600083815260076020526040902054156106e85760405162461bcd60e51b815260206004820152601360248201527214d95c9a585b08185b1c9958591e481d5cd959606a1b604482015260640161047c565b600b805490819060006106fa8361121a565b91905055506107098582610b3b565b6000848152600760209081526040808320849055838352600890915290208490556107348184610b55565b80856001600160a01b03167ffd8041fd7e4d7047a13bde415402e7278ad32792f9bdf46102a274181893cc948686604051610770929190611241565b60405180910390a3949350505050565b6107886108f2565b6000818152600a6020526040808220805460ff1916600117905551339183917fc24b66508811fe757b2c9c34548203d4269b1c2cb501c9123678f940317c32849190a350565b6001600160a01b03918216600090815260056020908152604080832093909416825291909152205460ff1690565b6108046108f2565b6001600160a01b03811661082e57604051631e4fbdf760e01b81526000600482015260240161047c565b6108378161091f565b50565b6000818152600260205260408120546001600160a01b03168061038657604051637e27328960e01b81526004810184905260240161047c565b6105018383836001610b6d565b6000828152600a602052604081205460ff16156108df5760405162461bcd60e51b815260206004820152601a60248201527f546f6b656e20697320666c61676765642061732073746f6c656e000000000000604482015260640161047c565b6108ea848484610c73565b949350505050565b6006546001600160a01b0316331461056b5760405163118cdaa760e01b815233600482015260240161047c565b600680546001600160a01b038381166001600160a01b0319831681179093556040519116919082907f8be0079c531659141344cd1fd0a4f28419497f9722a3daafe3b4186f6b6457e090600090a35050565b6001600160a01b0382166109a357604051630b61174360e31b81526001600160a01b038316600482015260240161047c565b6001600160a01b03838116600081815260056020908152604080832094871680845294825291829020805460ff191686151590811790915591519182527f17307eab39ab6107e8899845ad3d59bd9653f200f220920489ca2b5937696c31910160405180910390a3505050565b6001600160a01b0383163b15610b3457604051630a85bd0160e11b81526001600160a01b0384169063150b7a0290610a5290889088908790879060040161125a565b6020604051808303816000875af1925050508015610a8d575060408051601f3d908101601f19168201909252610a8a91810190611297565b60015b610af6573d808015610abb576040519150601f19603f3d011682016040523d82523d6000602084013e610ac0565b606091505b508051600003610aee57604051633250574960e11b81526001600160a01b038516600482015260240161047c565b805160208201fd5b6001600160e01b03198116630a85bd0160e11b14610b3257604051633250574960e11b81526001600160a01b038516600482015260240161047c565b505b5050505050565b610452828260405180602001604052806000815250610d6c565b600082815260096020526040902061050182826112fb565b8080610b8157506001600160a01b03821615155b15610c43576000610b918461083a565b90506001600160a01b03831615801590610bbd5750826001600160a01b0316816001600160a01b031614155b8015610bd05750610bce81846107ce565b155b15610bf95760405163a9fbf51f60e01b81526001600160a01b038416600482015260240161047c565b8115610c415783856001600160a01b0316826001600160a01b03167f8c5be1e5ebec7d5bd14f71427d1e84f3dd0314c0f7b2291e5b200ac8c7c3b92560405160405180910390a45b505b5050600090815260046020526040902080546001600160a01b0319166001600160a01b0392909216919091179055565b6000828152600260205260408120546001600160a01b0390811690831615610ca057610ca0818486610d84565b6001600160a01b03811615610cde57610cbd600085600080610b6d565b6001600160a01b038116600090815260036020526040902080546000190190555b6001600160a01b03851615610d0d576001600160a01b0385166000908152600360205260409020805460010190555b60008481526002602052604080822080546001600160a01b0319166001600160a01b0389811691821790925591518793918516917fddf252ad1be2c89b69c2b068fc378daa952ba7f163c4a11628f55a4df523b3ef91a4949350505050565b610d768383610de8565b610501336000858585610a10565b610d8f838383610e4d565b610501576001600160a01b038316610dbd57604051637e27328960e01b81526004810182905260240161047c565b60405163177e802f60e01b81526001600160a01b03831660048201526024810182905260440161047c565b6001600160a01b038216610e1257604051633250574960e11b81526000600482015260240161047c565b6000610e2083836000610880565b90506001600160a01b03811615610501576040516339e3563760e11b81526000600482015260240161047c565b60006001600160a01b038316158015906108ea5750826001600160a01b0316846001600160a01b03161480610e875750610e8784846107ce565b806108ea5750506000908152600460205260409020546001600160a01b03908116911614919050565b6001600160e01b03198116811461083757600080fd5b600060208284031215610ed857600080fd5b8135610ee381610eb0565b9392505050565b6000815180845260005b81811015610f1057602081850181015186830182015201610ef4565b506000602082860101526020601f19601f83011685010191505092915050565b602081526000610ee36020830184610eea565b600060208284031215610f5557600080fd5b5035919050565b80356001600160a01b0381168114610f7357600080fd5b919050565b60008060408385031215610f8b57600080fd5b610f9483610f5c565b946020939093013593505050565b600080600060608486031215610fb757600080fd5b610fc084610f5c565b9250610fce60208501610f5c565b929592945050506040919091013590565b600060208284031215610ff157600080fd5b610ee382610f5c565b6000806040838503121561100d57600080fd5b61101683610f5c565b91506020830135801515811461102b57600080fd5b809150509250929050565b634e487b7160e01b600052604160045260246000fd5b60008067ffffffffffffffff84111561106757611067611036565b50604051601f19601f85018116603f0116810181811067ffffffffffffffff8211171561109657611096611036565b6040528381529050808284018510156110ae57600080fd5b83836020830137600060208583010152509392505050565b600080600080608085870312156110dc57600080fd5b6110e585610f5c565b93506110f360208601610f5c565b925060408501359150606085013567ffffffffffffffff81111561111657600080fd5b8501601f8101871361112757600080fd5b6111368782356020840161104c565b91505092959194509250565b60008060006060848603121561115757600080fd5b61116084610f5c565b925060208401359150604084013567ffffffffffffffff81111561118357600080fd5b8401601f8101861361119457600080fd5b6111a38682356020840161104c565b9150509250925092565b600080604083850312156111c057600080fd5b6111c983610f5c565b91506111d760208401610f5c565b90509250929050565b600181811c908216806111f457607f821691505b60208210810361121457634e487b7160e01b600052602260045260246000fd5b50919050565b60006001820161123a57634e487b7160e01b600052601160045260246000fd5b5060010190565b8281526040602082015260006108ea6040830184610eea565b6001600160a01b038581168252841660208201526040810183905260806060820181905260009061128d90830184610eea565b9695505050505050565b6000602082840312156112a957600080fd5b8151610ee381610eb0565b601f82111561050157806000526020600020601f840160051c810160208510156112db5750805b601f840160051c820191505b81811015610b3457600081556001016112e7565b815167ffffffffffffffff81111561131557611315611036565b6113298161132384546111e0565b846112b4565b6020601f82116001811461135d57600083156113455750848201515b600019600385901b1c1916600184901b178455610b34565b600084815260208120601f198516915b8281101561138d578785015182556020948501946001909201910161136d565b50848210156113ab5786840151600019600387901b60f8161c191681555b50505050600190811b0190555056fea26469706673582212204fd8f08697c3e1f36afbccb76676ef1cb4b33149de923899c5f23a00e7b97dd064736f6c634300081f0033",
  "linkReferences": {},
  "deployedLinkReferences": {}
}