{
  "_format": "hh-sol-artifact-1",
  "contractName": "GuardianTokenSale",
  "sourceName": "contracts/GuardianTokenSale.sol",
  "abi": [
    {
      "inputs": [
        {
          "internalType": "address",
          "name": "_guardToken",
          "type": "address"
        },
        {
          "internalType": "address",
          "name": "_treasury",
          "type": "address"
        },
        {
          "internalType": "address",
          "name": "_guardianTreasury",
          "type": "address"
        }
      ],
      "stateMutability": "nonpayable",
      "type": "constructor"
    },
    {
      "inputs": [],
      "name": "EnforcedPause",
      "type": "error"
    },
    {
      "inputs": [],
      "name": "ExpectedPause",
      "type": "error"
    },
    {
      "inputs": [
        {
          "internalType": "address",
          "name": "owner",
          "type": "address"
        }
      ],
      "name": "OwnableInvalidOwner",
      "type": "error"
    },
    {
      "inputs": [
        {
          "internalType": "address",
          "name": "account",
          "type": "address"
        }
      ],
      "name": "OwnableUnauthorizedAccount",
      "type": "error"
    },
    {
      "inputs": [],
      "name": "ReentrancyGuardReentrantCall",
      "type": "error"
    },
    {
      "anonymous": false,
      "inputs": [
        {
          "indexed": true,
          "internalType": "address",
          "name": "previousOwner",
          "type": "address"
        },
        {
          "indexed": true,
          "internalType": "address",
          "name": "newOwner",
          "type": "address"
        }
      ],
      "name": "OwnershipTransferred",
      "type": "event"
    },
    {
      "anonymous": false,
      "inputs": [
        {
          "indexed": false,
          "internalType": "address",
          "name": "account",
          "type": "address"
        }
      ],
      "name": "Paused",
      "type": "event"
    },
    {
      "anonymous": false,
      "inputs": [
        {
          "indexed": true,
          "internalType": "address",
          "name": "referrer",
          "type": "address"
        },
        {
          "indexed": true,
          "internalType": "address",
          "name": "buyer",
          "type": "address"
        },
        {
          "indexed": false,
          "internalType": "uint256",
          "name": "reward",
          "type": "uint256"
        }
      ],
      "name": "ReferralReward",
      "type": "event"
    },
    {
      "anonymous": false,
      "inputs": [
        {
          "indexed": true,
          "internalType": "uint256",
          "name": "stage",
          "type": "uint256"
        },
        {
          "indexed": false,
          "internalType": "uint256",
          "name": "price",
          "type": "uint256"
        },
        {
          "indexed": false,
          "internalType": "uint256",
          "name": "maxTokens",
          "type": "uint256"
        }
      ],
      "name": "StageUpdated",
      "type": "event"
    },
    {
      "anonymous": false,
      "inputs": [
        {
          "indexed": true,
          "internalType": "address",
          "name": "buyer",
          "type": "address"
        },
        {
          "indexed": false,
          "internalType": "uint256",
          "name": "ethAmount",
          "type": "uint256"
        },
        {
          "indexed": false,
          "internalType": "uint256",
          "name": "tokenAmount",
          "type": "uint256"
        },
        {
          "indexed": false,
          "internalType": "uint256",
          "name": "stage",
          "type": "uint256"
        }
      ],
      "name": "TokensPurchased",
      "type": "event"
    },
    {
      "anonymous": false,
      "inputs": [
        {
          "indexed": true,
          "internalType": "address",
          "name": "buyer",
          "type": "address"
        },
        {
          "indexed": true,
          "internalType": "address",
          "name": "token",
          "type": "address"
        },
        {
          "indexed": false,
          "internalType": "uint256",
          "name": "tokenAmount",
          "type": "uint256"
        },
        {
          "indexed": false,
          "internalType": "uint256",
          "name": "guardTokens",
          "type": "uint256"
        },
        {
          "indexed": false,
          "internalType": "uint256",
          "name": "stage",
          "type": "uint256"
        }
      ],
      "name": "TokensPurchasedWithToken",
      "type": "event"
    },
    {
      "anonymous": false,
      "inputs": [
        {
          "indexed": false,
          "internalType": "address",
          "name": "account",
          "type": "address"
        }
      ],
      "name": "Unpaused",
      "type": "event"
    },
    {
      "inputs": [
        {
          "internalType": "address",
          "name": "",
          "type": "address"
        }
      ],
      "name": "acceptedTokens",
      "outputs": [
        {
          "internalType": "bool",
          "name": "",
          "type": "bool"
        }
      ],
      "stateMutability": "view",
      "type": "function"
    },
    {
      "inputs": [
        {
          "internalType": "address",
          "name": "token",
          "type": "address"
        },
        {
          "internalType": "uint256",
          "name": "decimals",
          "type": "uint256"
        }
      ],
      "name": "addAcceptedToken",
      "outputs": [],
      "stateMutability": "nonpayable",
      "type": "function"
    },
    {
      "inputs": [
        {
          "internalType": "address",
          "name": "referrer",
          "type": "address"
        }
      ],
      "name": "buyTokens",
      "outputs": [],
      "stateMutability": "payable",
      "type": "function"
    },
    {
      "inputs": [
        {
          "internalType": "address",
          "name": "token",
          "type": "address"
        },
        {
          "internalType": "uint256",
          "name": "tokenAmount",
          "type": "uint256"
        },
        {
          "internalType": "address",
          "name": "referrer",
          "type": "address"
        }
      ],
      "name": "buyTokensWithToken",
      "outputs": [],
      "stateMutability": "nonpayable",
      "type": "function"
    },
    {
      "inputs": [
        {
          "internalType": "uint256",
          "name": "ethAmount",
          "type": "uint256"
        }
      ],
      "name": "calculateTokens",
      "outputs": [
        {
          "internalType": "uint256",
          "name": "",
          "type": "uint256"
        }
      ],
      "stateMutability": "view",
      "type": "function"
    },
    {
      "inputs": [],
      "name": "currentStage",
      "outputs": [
        {
          "internalType": "uint256",
          "name": "",
          "type": "uint256"
        }
      ],
      "stateMutability": "view",
      "type": "function"
    },
    {
      "inputs": [],
      "name": "emergencyWithdraw",
      "outputs": [],
      "stateMutability": "nonpayable",
      "type": "function"
    },
    {
      "inputs": [],
      "name": "getCurrentSaleInfo",
      "outputs": [
        {
          "internalType": "uint256",
          "name": "stage",
          "type": "uint256"
        },
        {
          "internalType": "string",
          "name": "stageName",
          "type": "string"
        },
        {
          "internalType": "uint256",
          "name": "price",
          "type": "uint256"
        },
        {
          "internalType": "uint256",
          "name": "maxTokens",
          "type": "uint256"
        },
        {
          "internalType": "uint256",
          "name": "soldTokens",
          "type": "uint256"
        },
        {
          "internalType": "uint256",
          "name": "remainingTokens",
          "type": "uint256"
        },
        {
          "internalType": "bool",
          "name": "active",
          "type": "bool"
        }
      ],
      "stateMutability": "view",
      "type": "function"
    },
    {
      "inputs": [],
      "name": "guardToken",
      "outputs": [
        {
          "internalType": "contract IERC20",
          "name": "",
          "type": "address"
        }
      ],
      "stateMutability": "view",
      "type": "function"
    },
    {
      "inputs": [],
      "name": "guardianTreasury",
      "outputs": [
        {
          "internalType": "address",
          "name": "",
          "type": "address"
        }
      ],
      "stateMutability": "view",
      "type": "function"
    },
    {
      "inputs": [],
      "name": "maxPurchase",
      "outputs": [
        {
          "internalType": "uint256",
          "name": "",
          "type": "uint256"
        }
      ],
      "stateMutability": "view",
      "type": "function"
    },
    {
      "inputs": [],
      "name": "minPurchase",
      "outputs": [
        {
          "internalType": "uint256",
          "name": "",
          "type": "uint256"
        }
      ],
      "stateMutability": "view",
      "type": "function"
    },
    {
      "inputs": [],
      "name": "owner",
      "outputs": [
        {
          "internalType": "address",
          "name": "",
          "type": "address"
        }
      ],
      "stateMutability": "view",
      "type": "function"
    },
    {
      "inputs": [],
      "name": "pause",
      "outputs": [],
      "stateMutability": "nonpayable",
      "type": "function"
    },
    {
      "inputs": [],
      "name": "paused",
      "outputs": [
        {
          "internalType": "bool",
          "name": "",
          "type": "bool"
        }
      ],
      "stateMutability": "view",
      "type": "function"
    },
    {
      "inputs": [
        {
          "internalType": "address",
          "name": "",
          "type": "address"
        }
      ],
      "name": "purchasedTokens",
      "outputs": [
        {
          "internalType": "uint256",
          "name": "",
          "type": "uint256"
        }
      ],
      "stateMutability": "view",
      "type": "function"
    },
    {
      "inputs": [],
      "name": "referralRate",
      "outputs": [
        {
          "internalType": "uint256",
          "name": "",
          "type": "uint256"
        }
      ],
      "stateMutability": "view",
      "type": "function"
    },
    {
      "inputs": [
        {
          "internalType": "address",
          "name": "",
          "type": "address"
        }
      ],
      "name": "referralRewards",
      "outputs": [
        {
          "internalType": "uint256",
          "name": "",
          "type": "uint256"
        }
      ],
      "stateMutability": "view",
      "type": "function"
    },
    {
      "inputs": [
        {
          "internalType": "address",
          "name": "",
          "type": "address"
        }
      ],
      "name": "referrers",
      "outputs": [
        {
          "internalType": "address",
          "name": "",
          "type": "address"
        }
      ],
      "stateMutability": "view",
      "type": "function"
    },
    {
      "inputs": [
        {
          "internalType": "address",
          "name": "token",
          "type": "address"
        }
      ],
      "name": "removeAcceptedToken",
      "outputs": [],
      "stateMutability": "nonpayable",
      "type": "function"
    },
    {
      "inputs": [],
      "name": "renounceOwnership",
      "outputs": [],
      "stateMutability": "nonpayable",
      "type": "function"
    },
    {
      "inputs": [
        {
          "internalType": "uint256",
          "name": "",
          "type": "uint256"
        }
      ],
      "name": "saleStages",
      "outputs": [
        {
          "internalType": "uint256",
          "name": "price",
          "type": "uint256"
        },
        {
          "internalType": "uint256",
          "name": "maxTokens",
          "type": "uint256"
        },
        {
          "internalType": "uint256",
          "name": "soldTokens",
          "type": "uint256"
        },
        {
          "internalType": "bool",
          "name": "active",
          "type": "bool"
        },
        {
          "internalType": "string",
          "name": "name",
          "type": "string"
        }
      ],
      "stateMutability": "view",
      "type": "function"
    },
    {
      "inputs": [
        {
          "internalType": "uint256",
          "name": "stage",
          "type": "uint256"
        }
      ],
      "name": "setCurrentStage",
      "outputs": [],
      "stateMutability": "nonpayable",
      "type": "function"
    },
    {
      "inputs": [
        {
          "internalType": "address",
          "name": "_guardianTreasury",
          "type": "address"
        }
      ],
      "name": "setGuardianTreasury",
      "outputs": [],
      "stateMutability": "nonpayable",
      "type": "function"
    },
    {
      "inputs": [
        {
          "internalType": "uint256",
          "name": "min",
          "type": "uint256"
        },
        {
          "internalType": "uint256",
          "name": "max",
          "type": "uint256"
        }
      ],
      "name": "setPurchaseLimits",
      "outputs": [],
      "stateMutability": "nonpayable",
      "type": "function"
    },
    {
      "inputs": [
        {
          "internalType": "uint256",
          "name": "rate",
          "type": "uint256"
        }
      ],
      "name": "setReferralRate",
      "outputs": [],
      "stateMutability": "nonpayable",
      "type": "function"
    },
    {
      "inputs": [
        {
          "internalType": "address",
          "name": "_treasury",
          "type": "address"
        }
      ],
      "name": "setTreasury",
      "outputs": [],
      "stateMutability": "nonpayable",
      "type": "function"
    },
    {
      "inputs": [
        {
          "internalType": "address",
          "name": "",
          "type": "address"
        }
      ],
      "name": "tokenDecimals",
      "outputs": [
        {
          "internalType": "uint256",
          "name": "",
          "type": "uint256"
        }
      ],
      "stateMutability": "view",
      "type": "function"
    },
    {
      "inputs": [
        {
          "internalType": "address",
          "name": "",
          "type": "address"
        }
      ],
      "name": "totalContributed",
      "outputs": [
        {
          "internalType": "uint256",
          "name": "",
          "type": "uint256"
        }
      ],
      "stateMutability": "view",
      "type": "function"
    },
    {
      "inputs": [],
      "name": "totalStages",
      "outputs": [
        {
          "internalType": "uint256",
          "name": "",
          "type": "uint256"
        }
      ],
      "stateMutability": "view",
      "type": "function"
    },
    {
      "inputs": [
        {
          "internalType": "address",
          "name": "newOwner",
          "type": "address"
        }
      ],
      "name": "transferOwnership",
      "outputs": [],
      "stateMutability": "nonpayable",
      "type": "function"
    },
    {
      "inputs": [],
      "name": "treasury",
      "outputs": [
        {
          "internalType": "address",
          "name": "",
          "type": "address"
        }
      ],
      "stateMutability": "view",
      "type": "function"
    },
    {
      "inputs": [],
      "name": "unpause",
      "outputs": [],
      "stateMutability": "nonpayable",
      "type": "function"
    },
    {
      "inputs": [
        {
          "internalType": "uint256",
          "name": "stage",
          "type": "uint256"
        },
        {
          "internalType": "uint256",
          "name": "price",
          "type": "uint256"
        },
        {
          "internalType": "uint256",
          "name": "maxTokens",
          "type": "uint256"
        },
        {
          "internalType": "bool",
          "name": "active",
          "type": "bool"
        },
        {
          "internalType": "string",
          "name": "name",
          "type": "string"
        }
      ],
      "name": "updateSaleStage",
      "outputs": [],
      "stateMutability": "nonpayable",
      "type": "function"
    },
    {
      "inputs": [
        {
          "internalType": "address",
          "name": "token",
          "type": "address"
        },
        {
          "internalType": "uint256",
          "name": "amount",
          "type": "uint256"
        }
      ],
      "name": "withdrawTokens",
      "outputs": [],
      "stateMutability": "nonpayable",
      "type": "function"
    }
  ],
  "bytecode": "0x60a060405260016006556000600755662386f26fc10000600c55678ac7230489e80000600d556101f460105534801561003757600080fd5b5060405161280f38038061280f833981016040819052610056916104e9565b338061007c57604051631e4fbdf760e01b81526000600482015260240160405180910390fd5b610085816100cf565b50600180556001600160a01b03838116608052600a80546001600160a01b031990811685841617909155600b80549091169183169190911790556100c761011f565b505050610689565b600080546001600160a01b038381166001600160a01b0319831681178455604051919092169283917f8be0079c531659141344cd1fd0a4f28419497f9722a3daafe3b4186f6b6457e09190a35050565b6040805160a0810182526601c6bf5263400081526a295be96e6406697200000060208083019182526000838501818152600160608601818152875180890190985260088852675072652d53616c6560c01b88860152608087019788529252600590925283517f1471eb6eb2c5e789fc3de43f8ce62938c7d1836ec861730447e2ada8fd81017b90815592517f1471eb6eb2c5e789fc3de43f8ce62938c7d1836ec861730447e2ada8fd81017c5590517f1471eb6eb2c5e789fc3de43f8ce62938c7d1836ec861730447e2ada8fd81017d55517f1471eb6eb2c5e789fc3de43f8ce62938c7d1836ec861730447e2ada8fd81017e805460ff191691151591909117905591519091907f1471eb6eb2c5e789fc3de43f8ce62938c7d1836ec861730447e2ada8fd81017f9061025290826105cb565b50506040805160a0810182526602aa1efb94e00081526a52b7d2dcc80cd2e400000060208083019182526000838501818152606085018281528651808801909752600b87526a5075626c69632053616c6560a81b87850152608086019687526002909252600590925283517f89832631fb3c3307a103ba2c84ab569c64d6182a18893dcd163f0f1c2090733a90815592517f89832631fb3c3307a103ba2c84ab569c64d6182a18893dcd163f0f1c2090733b5590517f89832631fb3c3307a103ba2c84ab569c64d6182a18893dcd163f0f1c2090733c55517f89832631fb3c3307a103ba2c84ab569c64d6182a18893dcd163f0f1c2090733d805460ff191691151591909117905591519092507f89832631fb3c3307a103ba2c84ab569c64d6182a18893dcd163f0f1c2090733e9061038b90826105cb565b50506040805160a08101825266038d7ea4c6800081526a7c13bc4b2c133c5600000060208083019182526000838501818152606085018281528651808801909752600a87526946696e616c2053616c6560b01b87850152608086019687526003909252600590925283517fa9bc9a3a348c357ba16b37005d7e6b3236198c0e939f4af8c5f19b8deeb8ebc090815592517fa9bc9a3a348c357ba16b37005d7e6b3236198c0e939f4af8c5f19b8deeb8ebc15590517fa9bc9a3a348c357ba16b37005d7e6b3236198c0e939f4af8c5f19b8deeb8ebc255517fa9bc9a3a348c357ba16b37005d7e6b3236198c0e939f4af8c5f19b8deeb8ebc3805460ff191691151591909117905591519092507fa9bc9a3a348c357ba16b37005d7e6b3236198c0e939f4af8c5f19b8deeb8ebc4906104c390826105cb565b5050600360075550565b80516001600160a01b03811681146104e457600080fd5b919050565b6000806000606084860312156104fe57600080fd5b610507846104cd565b9250610515602085016104cd565b9150610523604085016104cd565b90509250925092565b634e487b7160e01b600052604160045260246000fd5b600181811c9082168061055657607f821691505b60208210810361057657634e487b7160e01b600052602260045260246000fd5b50919050565b601f8211156105c657806000526020600020601f840160051c810160208510156105a35750805b601f840160051c820191505b818110156105c357600081556001016105af565b50505b505050565b81516001600160401b038111156105e4576105e461052c565b6105f8816105f28454610542565b8461057c565b6020601f82116001811461062c57600083156106145750848201515b600019600385901b1c1916600184901b1784556105c3565b600084815260208120601f198516915b8281101561065c578785015182556020948501946001909201910161063c565b508482101561067a5786840151600019600387901b60f8161c191681555b50505050600190811b01905550565b6080516121566106b96000396000818161062d01528181610f1c0152818161102c015261177a01526121566000f3fe6080604052600436106102045760003560e01c80638456cb5911610118578063ca4863fd116100a0578063e56588ef1161006f578063e56588ef1461061b578063ec8ac4d81461064f578063f0f4426014610662578063f2fde38b14610682578063f86a3529146106a257600080fd5b8063ca4863fd1461059e578063d1e556e3146105be578063d8134a23146105e6578063db2e21bc1461060657600080fd5b80639829f748116100e75780639829f748146104fb578063a053ce1f1461051b578063a0f243b814610531578063be30f0a61461055e578063c84042551461057e57600080fd5b80638456cb59146104855780638da5cb5b1461049a5780638ee573ac146104b8578063977b055b146104e557600080fd5b80634d5d68121161019b57806361d027b31161016a57806361d027b3146103e05780636bd3e1f314610400578063715018a61461042057806371aa60fd1461043557806382dc4a051461045557600080fd5b80634d5d68121461035957806353aaa63b146103795780635bf5d54c146103a65780635c975abb146103bc57600080fd5b80633f4ba83a116101d75780633f4ba83a146102a9578063450957f4146102be5780634a3b68cc146102f65780634bae6f3f1461032c57600080fd5b806305547d141461020957806306b091f91461024357806333b5b62e1461026557806338c67b7314610289575b600080fd5b34801561021557600080fd5b50610229610224366004611bd2565b6106b8565b60405161023a959493929190611c31565b60405180910390f35b34801561024f57600080fd5b5061026361025e366004611c85565b610775565b005b34801561027157600080fd5b5061027b600c5481565b60405190815260200161023a565b34801561029557600080fd5b506102636102a4366004611bd2565b610814565b3480156102b557600080fd5b506102636108aa565b3480156102ca57600080fd5b50600b546102de906001600160a01b031681565b6040516001600160a01b03909116815260200161023a565b34801561030257600080fd5b506102de610311366004611caf565b600e602052600090815260409020546001600160a01b031681565b34801561033857600080fd5b5061027b610347366004611caf565b60086020526000908152604090205481565b34801561036557600080fd5b50610263610374366004611cd8565b6108bc565b34801561038557600080fd5b5061027b610394366004611caf565b600f6020526000908152604090205481565b3480156103b257600080fd5b5061027b60065481565b3480156103c857600080fd5b5060025460ff165b604051901515815260200161023a565b3480156103ec57600080fd5b50600a546102de906001600160a01b031681565b34801561040c57600080fd5b5061026361041b366004611c85565b610a20565b34801561042c57600080fd5b50610263610a59565b34801561044157600080fd5b5061027b610450366004611bd2565b610a6b565b34801561046157600080fd5b506103d0610470366004611caf565b60036020526000908152604090205460ff1681565b34801561049157600080fd5b50610263610b76565b3480156104a657600080fd5b506000546001600160a01b03166102de565b3480156104c457600080fd5b5061027b6104d3366004611caf565b60046020526000908152604090205481565b3480156104f157600080fd5b5061027b600d5481565b34801561050757600080fd5b50610263610516366004611d7c565b610b86565b34801561052757600080fd5b5061027b60105481565b34801561053d57600080fd5b5061027b61054c366004611caf565b60096020526000908152604090205481565b34801561056a57600080fd5b50610263610579366004611db8565b611159565b34801561058a57600080fd5b50610263610599366004611caf565b61116c565b3480156105aa57600080fd5b506102636105b9366004611bd2565b6111ec565b3480156105ca57600080fd5b506105d361123b565b60405161023a9796959493929190611dda565b3480156105f257600080fd5b50610263610601366004611caf565b611376565b34801561061257600080fd5b5061026361139f565b34801561062757600080fd5b506102de7f000000000000000000000000000000000000000000000000000000000000000081565b61026361065d366004611caf565b611441565b34801561066e57600080fd5b5061026361067d366004611caf565b611989565b34801561068e57600080fd5b5061026361069d366004611caf565b6119b3565b3480156106ae57600080fd5b5061027b60075481565b6005602052600090815260409020805460018201546002830154600384015460048501805494959394929360ff909216926106f290611e1f565b80601f016020809104026020016040519081016040528092919081815260200182805461071e90611e1f565b801561076b5780601f106107405761010080835404028352916020019161076b565b820191906000526020600020905b81548152906001019060200180831161074e57829003601f168201915b5050505050905085565b61077d6119ee565b816001600160a01b031663a9059cbb61079e6000546001600160a01b031690565b6040516001600160e01b031960e084901b1681526001600160a01b039091166004820152602481018490526044016020604051808303816000875af11580156107eb573d6000803e3d6000fd5b505050506040513d601f19601f8201168201806040525081019061080f9190611e59565b505050565b61081c6119ee565b60008111801561082e57506007548111155b61086f5760405162461bcd60e51b815260206004820152600d60248201526c496e76616c696420737461676560981b60448201526064015b60405180910390fd5b600680546000908152600560205260408082206003908101805460ff1990811690915593859055938252902090910180549091166001179055565b6108b26119ee565b6108ba611a1b565b565b6108c46119ee565b6000861180156108d657506007548611155b6109125760405162461bcd60e51b815260206004820152600d60248201526c496e76616c696420737461676560981b6044820152606401610866565b6040518060a0016040528086815260200185815260200160056000898152602001908152602001600020600201548152602001841515815260200183838080601f01602080910402602001604051908101604052809392919081815260200183838082843760009201829052509390945250508881526005602090815260409182902084518155908401516001820155908301516002820155606083015160038201805460ff1916911515919091179055608083015190915060048201906109da9082611eda565b505060408051878152602081018790528892507f5e730b83087d8c0acea3e8f2df9f8b5dadbaf69af2f6fcb639bba647319d8b54910160405180910390a2505050505050565b610a286119ee565b6001600160a01b039091166000908152600360209081526040808320805460ff191660011790556004909152902055565b610a616119ee565b6108ba6000611a6d565b6006546000908152600560209081526040808320815160a08101835281548152600182015493810193909352600281015491830191909152600381015460ff1615156060830152600481018054849392916080840191610aca90611e1f565b80601f0160208091040260200160405190810160405280929190818152602001828054610af690611e1f565b8015610b435780601f10610b1857610100808354040283529160200191610b43565b820191906000526020600020905b815481529060010190602001808311610b2657829003601f168201915b5050509190925250508151919250610b65905084670de0b6b3a7640000611faf565b610b6f9190611fcc565b9392505050565b610b7e6119ee565b6108ba611abd565b610b8e611afa565b610b96611b24565b6001600160a01b03831660009081526003602052604090205460ff16610bf35760405162461bcd60e51b8152602060048201526012602482015271151bdad95b881b9bdd081858d8d95c1d195960721b6044820152606401610866565b60008211610c3a5760405162461bcd60e51b8152602060048201526014602482015273125b9d985b1a59081d1bdad95b88185b5bdd5b9d60621b6044820152606401610866565b6006546000908152600560205260409020600381015460ff16610c9a5760405162461bcd60e51b815260206004820152601860248201527743757272656e74207374616765206e6f742061637469766560401b6044820152606401610866565b6001600160a01b0384166000908152600460205260409020548390601214610cf8576001600160a01b038516600090815260046020526040902054610ce0906012611fee565b610ceb90600a6120e8565b610cf59085611faf565b90505b600068a2a15d09519be00000610d1683670de0b6b3a7640000611faf565b610d209190611fcc565b8354909150600090610d3a83670de0b6b3a7640000611faf565b610d449190611fcc565b90508360010154818560020154610d5b91906120f4565b1115610da05760405162461bcd60e51b815260206004820152601460248201527314dd1859d9481b1a5b5a5d08195e18d95959195960621b6044820152606401610866565b600a546040516323b872dd60e01b81523360048201526001600160a01b03918216602482015260448101889052908816906323b872dd906064016020604051808303816000875af1158015610df9573d6000803e3d6000fd5b505050506040513d601f19601f82011682018060405250810190610e1d9190611e59565b5080846002016000828254610e3291906120f4565b90915550503360009081526008602052604081208054839290610e569084906120f4565b90915550506001600160a01b03851615801590610e7c57506001600160a01b0385163314155b1561101057336000908152600e6020526040812080546001600160a01b0319166001600160a01b03881617905560105461271090610eba9084611faf565b610ec49190611fcc565b6001600160a01b0387166000908152600f6020526040812080549293508392909190610ef19084906120f4565b909155505060405163a9059cbb60e01b81526001600160a01b038781166004830152602482018390527f0000000000000000000000000000000000000000000000000000000000000000169063a9059cbb906044016020604051808303816000875af1158015610f65573d6000803e3d6000fd5b505050506040513d601f19601f82011682018060405250810190610f899190611e59565b610fce5760405162461bcd60e51b8152602060048201526016602482015275149959995c9c985b081c995dd85c990819985a5b195960521b6044820152606401610866565b60405181815233906001600160a01b038816907f53958b9c644a1d5529da7c36929d59417eb9a996f08e02a52632bfe20c92ef489060200160405180910390a3505b60405163a9059cbb60e01b8152336004820152602481018290527f00000000000000000000000000000000000000000000000000000000000000006001600160a01b03169063a9059cbb906044016020604051808303816000875af115801561107d573d6000803e3d6000fd5b505050506040513d601f19601f820116820180604052508101906110a19190611e59565b6110e55760405162461bcd60e51b8152602060048201526015602482015274151bdad95b881d1c985b9cd9995c8819985a5b1959605a1b6044820152606401610866565b600654604080518881526020810184905280820192909252516001600160a01b0389169133917fd319dca9100cf772f04bd58574fcdb2272275af5b80e0e74fcefef901ba8940a9181900360600190a3836001015484600201541061114c5761114c611b48565b5050505061080f60018055565b6111616119ee565b600c91909155600d55565b6111746119ee565b6001600160a01b0381166111ca5760405162461bcd60e51b815260206004820152601860248201527f496e76616c6964207472656173757279206164647265737300000000000000006044820152606401610866565b600b80546001600160a01b0319166001600160a01b0392909216919091179055565b6111f46119ee565b6103e88111156112365760405162461bcd60e51b815260206004820152600d60248201526c0a4c2e8ca40e8dede40d0d2ced609b1b6044820152606401610866565b601055565b600060606000806000806000806005600060065481526020019081526020016000206040518060a00160405290816000820154815260200160018201548152602001600282015481526020016003820160009054906101000a900460ff161515151581526020016004820180546112b190611e1f565b80601f01602080910402602001604051908101604052809291908181526020018280546112dd90611e1f565b801561132a5780601f106112ff5761010080835404028352916020019161132a565b820191906000526020600020905b81548152906001019060200180831161130d57829003601f168201915b50505091909252505060065460808301518351602085015160408601519596509294919350919061135b8183611fee565b606090960151949d939c50919a509850965091945092509050565b61137e6119ee565b6001600160a01b03166000908152600360205260409020805460ff19169055565b6113a76119ee565b600080546040516001600160a01b039091169047908381818185875af1925050503d80600081146113f4576040519150601f19603f3d011682016040523d82523d6000602084013e6113f9565b606091505b505090508061143e5760405162461bcd60e51b815260206004820152601160248201527015da5d1a191c985dd85b0819985a5b1959607a1b6044820152606401610866565b50565b611449611afa565b611451611b24565b600c5434101561149c5760405162461bcd60e51b815260206004820152601660248201527542656c6f77206d696e696d756d20707572636861736560501b6044820152606401610866565b600d543411156114e75760405162461bcd60e51b815260206004820152601660248201527541626f7665206d6178696d756d20707572636861736560501b6044820152606401610866565b6006546000908152600560205260409020600381015460ff166115475760405162461bcd60e51b815260206004820152601860248201527743757272656e74207374616765206e6f742061637469766560401b6044820152606401610866565b805460009061155e34670de0b6b3a7640000611faf565b6115689190611fcc565b9050816001015481836002015461157f91906120f4565b11156115c45760405162461bcd60e51b815260206004820152601460248201527314dd1859d9481b1a5b5a5d08195e18d95959195960621b6044820152606401610866565b808260020160008282546115d891906120f4565b909155505033600090815260086020526040812080548392906115fc9084906120f4565b909155505033600090815260096020526040812080543492906116209084906120f4565b90915550506001600160a01b0383161580159061164657506001600160a01b0383163314155b1561175e57336000908152600e6020526040812080546001600160a01b0319166001600160a01b038616179055601054612710906116849034611faf565b61168e9190611fcc565b6001600160a01b0385166000908152600f60205260408120805492935083929091906116bb9084906120f4565b90915550506040516000906001600160a01b0386169083908381818185875af1925050503d806000811461170b576040519150601f19603f3d011682016040523d82523d6000602084013e611710565b606091505b50509050801561175b5760405182815233906001600160a01b038716907f53958b9c644a1d5529da7c36929d59417eb9a996f08e02a52632bfe20c92ef489060200160405180910390a35b50505b60405163a9059cbb60e01b8152336004820152602481018290527f00000000000000000000000000000000000000000000000000000000000000006001600160a01b03169063a9059cbb906044016020604051808303816000875af11580156117cb573d6000803e3d6000fd5b505050506040513d601f19601f820116820180604052508101906117ef9190611e59565b6118335760405162461bcd60e51b8152602060048201526015602482015274151bdad95b881d1c985b9cd9995c8819985a5b1959605a1b6044820152606401610866565b336000908152600e602052604090205434906001600160a01b03161561187b57612710601054346118649190611faf565b61186e9190611fcc565b6118789082611fee565b90505b600b546040516000916001600160a01b03169083908381818185875af1925050503d80600081146118c8576040519150601f19603f3d011682016040523d82523d6000602084013e6118cd565b606091505b505090508061191e5760405162461bcd60e51b815260206004820152601860248201527f5472656173757279207472616e73666572206661696c656400000000000000006044820152606401610866565b60065460408051348152602081018690529081019190915233907f0d1a0d5e3d583a0e92588799dd06e50fd78c07daf05f0cc06d7b848b1ca445f19060600160405180910390a2836001015484600201541061197c5761197c611b48565b5050505061143e60018055565b6119916119ee565b600a80546001600160a01b0319166001600160a01b0392909216919091179055565b6119bb6119ee565b6001600160a01b0381166119e557604051631e4fbdf760e01b815260006004820152602401610866565b61143e81611a6d565b6000546001600160a01b031633146108ba5760405163118cdaa760e01b8152336004820152602401610866565b611a23611baf565b6002805460ff191690557f5db9ee0a495bf2e6ff9c91a7834c1ba4fdd244a5e8aa4e537bd38aeae4b073aa335b6040516001600160a01b03909116815260200160405180910390a1565b600080546001600160a01b038381166001600160a01b0319831681178455604051919092169283917f8be0079c531659141344cd1fd0a4f28419497f9722a3daafe3b4186f6b6457e09190a35050565b611ac5611b24565b6002805460ff191660011790557f62e78cea01bee320cd4e420270b5ea74000d11b0c9f74754ebdbfc544b05a258611a503390565b600260015403611b1d57604051633ee5aeb560e01b815260040160405180910390fd5b6002600155565b60025460ff16156108ba5760405163d93c066560e01b815260040160405180910390fd5b60075460065410156108ba57600680546000908152600560205260408120600301805460ff1916905581549190611b7e83612107565b9190505550600754600654116108ba576006546000908152600560205260409020600301805460ff19166001179055565b60025460ff166108ba57604051638dfc202b60e01b815260040160405180910390fd5b600060208284031215611be457600080fd5b5035919050565b6000815180845260005b81811015611c1157602081850181015186830182015201611bf5565b506000602082860101526020601f19601f83011685010191505092915050565b858152846020820152836040820152821515606082015260a060808201526000611c5e60a0830184611beb565b979650505050505050565b80356001600160a01b0381168114611c8057600080fd5b919050565b60008060408385031215611c9857600080fd5b611ca183611c69565b946020939093013593505050565b600060208284031215611cc157600080fd5b610b6f82611c69565b801515811461143e57600080fd5b60008060008060008060a08789031215611cf157600080fd5b8635955060208701359450604087013593506060870135611d1181611cca565b9250608087013567ffffffffffffffff811115611d2d57600080fd5b8701601f81018913611d3e57600080fd5b803567ffffffffffffffff811115611d5557600080fd5b896020828401011115611d6757600080fd5b60208201935080925050509295509295509295565b600080600060608486031215611d9157600080fd5b611d9a84611c69565b925060208401359150611daf60408501611c69565b90509250925092565b60008060408385031215611dcb57600080fd5b50508035926020909101359150565b87815260e060208201526000611df360e0830189611beb565b6040830197909752506060810194909452608084019290925260a0830152151560c09091015292915050565b600181811c90821680611e3357607f821691505b602082108103611e5357634e487b7160e01b600052602260045260246000fd5b50919050565b600060208284031215611e6b57600080fd5b8151610b6f81611cca565b634e487b7160e01b600052604160045260246000fd5b601f82111561080f57806000526020600020601f840160051c81016020851015611eb35750805b601f840160051c820191505b81811015611ed35760008155600101611ebf565b5050505050565b815167ffffffffffffffff811115611ef457611ef4611e76565b611f0881611f028454611e1f565b84611e8c565b6020601f821160018114611f3c5760008315611f245750848201515b600019600385901b1c1916600184901b178455611ed3565b600084815260208120601f198516915b82811015611f6c5787850151825560209485019460019092019101611f4c565b5084821015611f8a5786840151600019600387901b60f8161c191681555b50505050600190811b01905550565b634e487b7160e01b600052601160045260246000fd5b8082028115828204841417611fc657611fc6611f99565b92915050565b600082611fe957634e487b7160e01b600052601260045260246000fd5b500490565b81810381811115611fc657611fc6611f99565b6001815b600184111561203c5780850481111561202057612020611f99565b600184161561202e57908102905b60019390931c928002612005565b935093915050565b60008261205357506001611fc6565b8161206057506000611fc6565b816001811461207657600281146120805761209c565b6001915050611fc6565b60ff84111561209157612091611f99565b50506001821b611fc6565b5060208310610133831016604e8410600b84101617156120bf575081810a611fc6565b6120cc6000198484612001565b80600019048211156120e0576120e0611f99565b029392505050565b6000610b6f8383612044565b80820180821115611fc657611fc6611f99565b60006001820161211957612119611f99565b506001019056fea2646970667358221220bcc11fbc8690a3327b5b4a8d9fef2bdb4df5a5dc392bbc8d36ab1a31c9872deb64736f6c634300081f0033",
  "linkReferences": {},
  "deployedLinkReferences": {}
}