{
  "_format": "hh-sol-artifact-1",
  "contractName": "GuardianTokenSale",
  "sourceName": "contracts/GuardianTokenSale.sol",
  "abi": [
    {
      "inputs": [
        {
          "internalType": "address",
          "name": "_guardToken",
          "type": "address"
        },
        {
          "internalType": "address",
          "name": "_treasury",
          "type": "address"
        },
        {
          "internalType": "address",
          "name": "_guardianTreasury",
          "type": "address"
        },
        {
          "internalType": "address",
          "name": "_priceOracle",
          "type": "address"
        }
      ],
      "stateMutability": "nonpayable",
      "type": "constructor"
    },
    {
      "inputs": [],
      "name": "EnforcedPause",
      "type": "error"
    },
    {
      "inputs": [],
      "name": "ExpectedPause",
      "type": "error"
    },
    {
      "inputs": [
        {
          "internalType": "address",
          "name": "owner",
          "type": "address"
        }
      ],
      "name": "OwnableInvalidOwner",
      "type": "error"
    },
    {
      "inputs": [
        {
          "internalType": "address",
          "name": "account",
          "type": "address"
        }
      ],
      "name": "OwnableUnauthorizedAccount",
      "type": "error"
    },
    {
      "inputs": [],
      "name": "ReentrancyGuardReentrantCall",
      "type": "error"
    },
    {
      "anonymous": false,
      "inputs": [
        {
          "indexed": false,
          "internalType": "uint256",
          "name": "newPrice",
          "type": "uint256"
        }
      ],
      "name": "FallbackPriceUpdated",
      "type": "event"
    },
    {
      "anonymous": false,
      "inputs": [
        {
          "indexed": false,
          "internalType": "bool",
          "name": "enabled",
          "type": "bool"
        }
      ],
      "name": "OracleToggled",
      "type": "event"
    },
    {
      "anonymous": false,
      "inputs": [
        {
          "indexed": true,
          "internalType": "address",
          "name": "previousOwner",
          "type": "address"
        },
        {
          "indexed": true,
          "internalType": "address",
          "name": "newOwner",
          "type": "address"
        }
      ],
      "name": "OwnershipTransferred",
      "type": "event"
    },
    {
      "anonymous": false,
      "inputs": [
        {
          "indexed": false,
          "internalType": "address",
          "name": "account",
          "type": "address"
        }
      ],
      "name": "Paused",
      "type": "event"
    },
    {
      "anonymous": false,
      "inputs": [
        {
          "indexed": true,
          "internalType": "address",
          "name": "newOracle",
          "type": "address"
        }
      ],
      "name": "PriceOracleUpdated",
      "type": "event"
    },
    {
      "anonymous": false,
      "inputs": [
        {
          "indexed": true,
          "internalType": "address",
          "name": "referrer",
          "type": "address"
        },
        {
          "indexed": true,
          "internalType": "address",
          "name": "buyer",
          "type": "address"
        },
        {
          "indexed": false,
          "internalType": "uint256",
          "name": "reward",
          "type": "uint256"
        }
      ],
      "name": "ReferralReward",
      "type": "event"
    },
    {
      "anonymous": false,
      "inputs": [
        {
          "indexed": true,
          "internalType": "uint256",
          "name": "stage",
          "type": "uint256"
        },
        {
          "indexed": false,
          "internalType": "uint256",
          "name": "price",
          "type": "uint256"
        },
        {
          "indexed": false,
          "internalType": "uint256",
          "name": "maxTokens",
          "type": "uint256"
        }
      ],
      "name": "StageUpdated",
      "type": "event"
    },
    {
      "anonymous": false,
      "inputs": [
        {
          "indexed": true,
          "internalType": "address",
          "name": "buyer",
          "type": "address"
        },
        {
          "indexed": false,
          "internalType": "uint256",
          "name": "ethAmount",
          "type": "uint256"
        },
        {
          "indexed": false,
          "internalType": "uint256",
          "name": "tokenAmount",
          "type": "uint256"
        },
        {
          "indexed": false,
          "internalType": "uint256",
          "name": "stage",
          "type": "uint256"
        }
      ],
      "name": "TokensPurchased",
      "type": "event"
    },
    {
      "anonymous": false,
      "inputs": [
        {
          "indexed": true,
          "internalType": "address",
          "name": "buyer",
          "type": "address"
        },
        {
          "indexed": true,
          "internalType": "address",
          "name": "token",
          "type": "address"
        },
        {
          "indexed": false,
          "internalType": "uint256",
          "name": "tokenAmount",
          "type": "uint256"
        },
        {
          "indexed": false,
          "internalType": "uint256",
          "name": "guardTokens",
          "type": "uint256"
        },
        {
          "indexed": false,
          "internalType": "uint256",
          "name": "stage",
          "type": "uint256"
        }
      ],
      "name": "TokensPurchasedWithToken",
      "type": "event"
    },
    {
      "anonymous": false,
      "inputs": [
        {
          "indexed": false,
          "internalType": "address",
          "name": "account",
          "type": "address"
        }
      ],
      "name": "Unpaused",
      "type": "event"
    },
    {
      "inputs": [
        {
          "internalType": "address",
          "name": "",
          "type": "address"
        }
      ],
      "name": "acceptedTokens",
      "outputs": [
        {
          "internalType": "bool",
          "name": "",
          "type": "bool"
        }
      ],
      "stateMutability": "view",
      "type": "function"
    },
    {
      "inputs": [
        {
          "internalType": "address",
          "name": "token",
          "type": "address"
        },
        {
          "internalType": "uint256",
          "name": "decimals",
          "type": "uint256"
        }
      ],
      "name": "addAcceptedToken",
      "outputs": [],
      "stateMutability": "nonpayable",
      "type": "function"
    },
    {
      "inputs": [
        {
          "internalType": "address",
          "name": "referrer",
          "type": "address"
        }
      ],
      "name": "buyTokens",
      "outputs": [],
      "stateMutability": "payable",
      "type": "function"
    },
    {
      "inputs": [
        {
          "internalType": "address",
          "name": "token",
          "type": "address"
        },
        {
          "internalType": "uint256",
          "name": "tokenAmount",
          "type": "uint256"
        },
        {
          "internalType": "address",
          "name": "referrer",
          "type": "address"
        }
      ],
      "name": "buyTokensWithToken",
      "outputs": [],
      "stateMutability": "nonpayable",
      "type": "function"
    },
    {
      "inputs": [
        {
          "internalType": "uint256",
          "name": "ethAmount",
          "type": "uint256"
        }
      ],
      "name": "calculateTokens",
      "outputs": [
        {
          "internalType": "uint256",
          "name": "",
          "type": "uint256"
        }
      ],
      "stateMutability": "view",
      "type": "function"
    },
    {
      "inputs": [],
      "name": "currentStage",
      "outputs": [
        {
          "internalType": "uint256",
          "name": "",
          "type": "uint256"
        }
      ],
      "stateMutability": "view",
      "type": "function"
    },
    {
      "inputs": [],
      "name": "emergencyWithdraw",
      "outputs": [],
      "stateMutability": "nonpayable",
      "type": "function"
    },
    {
      "inputs": [],
      "name": "fallbackEthPrice",
      "outputs": [
        {
          "internalType": "uint256",
          "name": "",
          "type": "uint256"
        }
      ],
      "stateMutability": "view",
      "type": "function"
    },
    {
      "inputs": [],
      "name": "getCurrentEthPrice",
      "outputs": [
        {
          "internalType": "uint256",
          "name": "price",
          "type": "uint256"
        },
        {
          "internalType": "bool",
          "name": "fromOracle",
          "type": "bool"
        }
      ],
      "stateMutability": "view",
      "type": "function"
    },
    {
      "inputs": [],
      "name": "getCurrentSaleInfo",
      "outputs": [
        {
          "internalType": "uint256",
          "name": "stage",
          "type": "uint256"
        },
        {
          "internalType": "string",
          "name": "stageName",
          "type": "string"
        },
        {
          "internalType": "uint256",
          "name": "price",
          "type": "uint256"
        },
        {
          "internalType": "uint256",
          "name": "maxTokens",
          "type": "uint256"
        },
        {
          "internalType": "uint256",
          "name": "soldTokens",
          "type": "uint256"
        },
        {
          "internalType": "uint256",
          "name": "remainingTokens",
          "type": "uint256"
        },
        {
          "internalType": "bool",
          "name": "active",
          "type": "bool"
        },
        {
          "internalType": "uint256",
          "name": "priceInUsd",
          "type": "uint256"
        },
        {
          "internalType": "bool",
          "name": "oracleActive",
          "type": "bool"
        }
      ],
      "stateMutability": "view",
      "type": "function"
    },
    {
      "inputs": [
        {
          "internalType": "uint256",
          "name": "stage",
          "type": "uint256"
        }
      ],
      "name": "getTokenPriceInUsd",
      "outputs": [
        {
          "internalType": "uint256",
          "name": "",
          "type": "uint256"
        }
      ],
      "stateMutability": "view",
      "type": "function"
    },
    {
      "inputs": [],
      "name": "guardToken",
      "outputs": [
        {
          "internalType": "contract IERC20",
          "name": "",
          "type": "address"
        }
      ],
      "stateMutability": "view",
      "type": "function"
    },
    {
      "inputs": [],
      "name": "guardianTreasury",
      "outputs": [
        {
          "internalType": "address",
          "name": "",
          "type": "address"
        }
      ],
      "stateMutability": "view",
      "type": "function"
    },
    {
      "inputs": [],
      "name": "maxPurchase",
      "outputs": [
        {
          "internalType": "uint256",
          "name": "",
          "type": "uint256"
        }
      ],
      "stateMutability": "view",
      "type": "function"
    },
    {
      "inputs": [],
      "name": "minPurchase",
      "outputs": [
        {
          "internalType": "uint256",
          "name": "",
          "type": "uint256"
        }
      ],
      "stateMutability": "view",
      "type": "function"
    },
    {
      "inputs": [],
      "name": "owner",
      "outputs": [
        {
          "internalType": "address",
          "name": "",
          "type": "address"
        }
      ],
      "stateMutability": "view",
      "type": "function"
    },
    {
      "inputs": [],
      "name": "pause",
      "outputs": [],
      "stateMutability": "nonpayable",
      "type": "function"
    },
    {
      "inputs": [],
      "name": "paused",
      "outputs": [
        {
          "internalType": "bool",
          "name": "",
          "type": "bool"
        }
      ],
      "stateMutability": "view",
      "type": "function"
    },
    {
      "inputs": [],
      "name": "priceOracle",
      "outputs": [
        {
          "internalType": "contract IPriceOracle",
          "name": "",
          "type": "address"
        }
      ],
      "stateMutability": "view",
      "type": "function"
    },
    {
      "inputs": [
        {
          "internalType": "address",
          "name": "",
          "type": "address"
        }
      ],
      "name": "purchasedTokens",
      "outputs": [
        {
          "internalType": "uint256",
          "name": "",
          "type": "uint256"
        }
      ],
      "stateMutability": "view",
      "type": "function"
    },
    {
      "inputs": [],
      "name": "referralRate",
      "outputs": [
        {
          "internalType": "uint256",
          "name": "",
          "type": "uint256"
        }
      ],
      "stateMutability": "view",
      "type": "function"
    },
    {
      "inputs": [
        {
          "internalType": "address",
          "name": "",
          "type": "address"
        }
      ],
      "name": "referralRewards",
      "outputs": [
        {
          "internalType": "uint256",
          "name": "",
          "type": "uint256"
        }
      ],
      "stateMutability": "view",
      "type": "function"
    },
    {
      "inputs": [
        {
          "internalType": "address",
          "name": "",
          "type": "address"
        }
      ],
      "name": "referrers",
      "outputs": [
        {
          "internalType": "address",
          "name": "",
          "type": "address"
        }
      ],
      "stateMutability": "view",
      "type": "function"
    },
    {
      "inputs": [
        {
          "internalType": "address",
          "name": "token",
          "type": "address"
        }
      ],
      "name": "removeAcceptedToken",
      "outputs": [],
      "stateMutability": "nonpayable",
      "type": "function"
    },
    {
      "inputs": [],
      "name": "renounceOwnership",
      "outputs": [],
      "stateMutability": "nonpayable",
      "type": "function"
    },
    {
      "inputs": [
        {
          "internalType": "uint256",
          "name": "",
          "type": "uint256"
        }
      ],
      "name": "saleStages",
      "outputs": [
        {
          "internalType": "uint256",
          "name": "price",
          "type": "uint256"
        },
        {
          "internalType": "uint256",
          "name": "maxTokens",
          "type": "uint256"
        },
        {
          "internalType": "uint256",
          "name": "soldTokens",
          "type": "uint256"
        },
        {
          "internalType": "bool",
          "name": "active",
          "type": "bool"
        },
        {
          "internalType": "string",
          "name": "name",
          "type": "string"
        }
      ],
      "stateMutability": "view",
      "type": "function"
    },
    {
      "inputs": [
        {
          "internalType": "uint256",
          "name": "stage",
          "type": "uint256"
        }
      ],
      "name": "setCurrentStage",
      "outputs": [],
      "stateMutability": "nonpayable",
      "type": "function"
    },
    {
      "inputs": [
        {
          "internalType": "uint256",
          "name": "_fallbackPrice",
          "type": "uint256"
        }
      ],
      "name": "setFallbackEthPrice",
      "outputs": [],
      "stateMutability": "nonpayable",
      "type": "function"
    },
    {
      "inputs": [
        {
          "internalType": "address",
          "name": "_guardianTreasury",
          "type": "address"
        }
      ],
      "name": "setGuardianTreasury",
      "outputs": [],
      "stateMutability": "nonpayable",
      "type": "function"
    },
    {
      "inputs": [
        {
          "internalType": "address",
          "name": "_priceOracle",
          "type": "address"
        }
      ],
      "name": "setPriceOracle",
      "outputs": [],
      "stateMutability": "nonpayable",
      "type": "function"
    },
    {
      "inputs": [
        {
          "internalType": "uint256",
          "name": "min",
          "type": "uint256"
        },
        {
          "internalType": "uint256",
          "name": "max",
          "type": "uint256"
        }
      ],
      "name": "setPurchaseLimits",
      "outputs": [],
      "stateMutability": "nonpayable",
      "type": "function"
    },
    {
      "inputs": [
        {
          "internalType": "uint256",
          "name": "rate",
          "type": "uint256"
        }
      ],
      "name": "setReferralRate",
      "outputs": [],
      "stateMutability": "nonpayable",
      "type": "function"
    },
    {
      "inputs": [
        {
          "internalType": "address",
          "name": "_treasury",
          "type": "address"
        }
      ],
      "name": "setTreasury",
      "outputs": [],
      "stateMutability": "nonpayable",
      "type": "function"
    },
    {
      "inputs": [
        {
          "internalType": "bool",
          "name": "_useOracle",
          "type": "bool"
        }
      ],
      "name": "toggleOracle",
      "outputs": [],
      "stateMutability": "nonpayable",
      "type": "function"
    },
    {
      "inputs": [
        {
          "internalType": "address",
          "name": "",
          "type": "address"
        }
      ],
      "name": "tokenDecimals",
      "outputs": [
        {
          "internalType": "uint256",
          "name": "",
          "type": "uint256"
        }
      ],
      "stateMutability": "view",
      "type": "function"
    },
    {
      "inputs": [
        {
          "internalType": "address",
          "name": "",
          "type": "address"
        }
      ],
      "name": "totalContributed",
      "outputs": [
        {
          "internalType": "uint256",
          "name": "",
          "type": "uint256"
        }
      ],
      "stateMutability": "view",
      "type": "function"
    },
    {
      "inputs": [],
      "name": "totalStages",
      "outputs": [
        {
          "internalType": "uint256",
          "name": "",
          "type": "uint256"
        }
      ],
      "stateMutability": "view",
      "type": "function"
    },
    {
      "inputs": [
        {
          "internalType": "address",
          "name": "newOwner",
          "type": "address"
        }
      ],
      "name": "transferOwnership",
      "outputs": [],
      "stateMutability": "nonpayable",
      "type": "function"
    },
    {
      "inputs": [],
      "name": "treasury",
      "outputs": [
        {
          "internalType": "address",
          "name": "",
          "type": "address"
        }
      ],
      "stateMutability": "view",
      "type": "function"
    },
    {
      "inputs": [],
      "name": "unpause",
      "outputs": [],
      "stateMutability": "nonpayable",
      "type": "function"
    },
    {
      "inputs": [
        {
          "internalType": "uint256",
          "name": "stage",
          "type": "uint256"
        },
        {
          "internalType": "uint256",
          "name": "price",
          "type": "uint256"
        },
        {
          "internalType": "uint256",
          "name": "maxTokens",
          "type": "uint256"
        },
        {
          "internalType": "bool",
          "name": "active",
          "type": "bool"
        },
        {
          "internalType": "string",
          "name": "name",
          "type": "string"
        }
      ],
      "name": "updateSaleStage",
      "outputs": [],
      "stateMutability": "nonpayable",
      "type": "function"
    },
    {
      "inputs": [],
      "name": "updateStagesPricing",
      "outputs": [],
      "stateMutability": "nonpayable",
      "type": "function"
    },
    {
      "inputs": [],
      "name": "useOracle",
      "outputs": [
        {
          "internalType": "bool",
          "name": "",
          "type": "bool"
        }
      ],
      "stateMutability": "view",
      "type": "function"
    },
    {
      "inputs": [
        {
          "internalType": "address",
          "name": "token",
          "type": "address"
        },
        {
          "internalType": "uint256",
          "name": "amount",
          "type": "uint256"
        }
      ],
      "name": "withdrawTokens",
      "outputs": [],
      "stateMutability": "nonpayable",
      "type": "function"
    }
  ],
  "bytecode": "0x60a06040526002805460ff60a81b1916600160a81b1790556445d964b80060035560016007556000600855662386f26fc10000600d55678ac7230489e80000600e556101f460115534801561005357600080fd5b5060405161322738038061322783398101604081905261007291610645565b338061009857604051631e4fbdf760e01b81526000600482015260240160405180910390fd5b6100a181610111565b50600180556001600160a01b03848116608052600b80546001600160a01b031990811686841617909155600c80549091168483161790558116156101005760028054610100600160a81b0319166101006001600160a01b038416021790555b610108610161565b50505050610856565b600080546001600160a01b038381166001600160a01b0319831681178455604051919092169283917f8be0079c531659141344cd1fd0a4f28419497f9722a3daafe3b4186f6b6457e09190a35050565b6040518060a0016040528061018266038d7ea4c6800061054f60201b60201c565b81526a295be96e6406697200000060208083019190915260006040808401829052600160608086018290528251808401845260088152675072652d53616c6560c01b8187015260809687015292526006835284517f3e5fec24aa4dc4e5aee2e025e51e1392c72a2500577559fae9665c6d52bd6a31908155928501517f3e5fec24aa4dc4e5aee2e025e51e1392c72a2500577559fae9665c6d52bd6a32558401517f3e5fec24aa4dc4e5aee2e025e51e1392c72a2500577559fae9665c6d52bd6a33558301517f3e5fec24aa4dc4e5aee2e025e51e1392c72a2500577559fae9665c6d52bd6a34805460ff1916911515919091179055908201517f3e5fec24aa4dc4e5aee2e025e51e1392c72a2500577559fae9665c6d52bd6a35906102a89082610738565b509050506040518060a001604052806102cd6605543df729c00061054f60201b60201c565b81526a52b7d2dcc80cd2e400000060208083019190915260006040808401829052606080850183905281518083018352600b81526a5075626c69632053616c6560a81b8186015260809586015260029092526006835284517f8819ef417987f8ae7a81f42cdfb18815282fe989326fbff903d13cf0e03ace29908155928501517f8819ef417987f8ae7a81f42cdfb18815282fe989326fbff903d13cf0e03ace2a558401517f8819ef417987f8ae7a81f42cdfb18815282fe989326fbff903d13cf0e03ace2b558301517f8819ef417987f8ae7a81f42cdfb18815282fe989326fbff903d13cf0e03ace2c805460ff1916911515919091179055908201517f8819ef417987f8ae7a81f42cdfb18815282fe989326fbff903d13cf0e03ace2d906103f79082610738565b509050506040518060a0016040528061041c66071afd498d000061054f60201b60201c565b81526a7c13bc4b2c133c5600000060208083019190915260006040808401829052606080850183905281518083018352600a81526946696e616c2053616c6560b01b8186015260809586015260039092526006835284517f75f96ab15d697e93042dc45b5c896c4b27e89bb6eaf39475c5c371cb2513f7d2908155928501517f75f96ab15d697e93042dc45b5c896c4b27e89bb6eaf39475c5c371cb2513f7d3558401517f75f96ab15d697e93042dc45b5c896c4b27e89bb6eaf39475c5c371cb2513f7d4558301517f75f96ab15d697e93042dc45b5c896c4b27e89bb6eaf39475c5c371cb2513f7d5805460ff1916911515919091179055908201517f75f96ab15d697e93042dc45b5c896c4b27e89bb6eaf39475c5c371cb2513f7d6906105459082610738565b5050600360085550565b600061055a82610560565b92915050565b600254600090600160a81b900460ff16801561058b575060025461010090046001600160a01b031615155b156106185760025460405163bcecf66760e01b8152600481018490526101009091046001600160a01b03169063bcecf66790602401602060405180830381865afa9250505080156105f9575060408051601f3d908101601f191682019092526105f6918101906107f6565b60015b61055a5760035461060e836305f5e10061080f565b61055a9190610834565b60035461060e836305f5e10061080f565b919050565b80516001600160a01b038116811461062957600080fd5b6000806000806080858703121561065b57600080fd5b6106648561062e565b93506106726020860161062e565b92506106806040860161062e565b915061068e6060860161062e565b905092959194509250565b634e487b7160e01b600052604160045260246000fd5b600181811c908216806106c357607f821691505b6020821081036106e357634e487b7160e01b600052602260045260246000fd5b50919050565b601f82111561073357806000526020600020601f840160051c810160208510156107105750805b601f840160051c820191505b81811015610730576000815560010161071c565b50505b505050565b81516001600160401b0381111561075157610751610699565b6107658161075f84546106af565b846106e9565b6020601f82116001811461079957600083156107815750848201515b600019600385901b1c1916600184901b178455610730565b600084815260208120601f198516915b828110156107c957878501518255602094850194600190920191016107a9565b50848210156107e75786840151600019600387901b60f8161c191681555b50505050600190811b01905550565b60006020828403121561080857600080fd5b5051919050565b808202811582820484141761055a57634e487b7160e01b600052601160045260246000fd5b60008261085157634e487b7160e01b600052601260045260246000fd5b500490565b6080516129a1610886600039600081816107510152818161129c015281816113ac0152611b9801526129a16000f3fe6080604052600436106102675760003560e01c80638456cb5911610144578063d1e556e3116100b6578063f0f442601161007a578063f0f4426014610786578063f2fde38b146107a6578063f707d794146107c6578063f86a3529146107e6578063fdcd8d3a146107fc578063fe9e967b1461081c57600080fd5b8063d1e556e3146106e0578063d8134a231461070a578063db2e21bc1461072a578063e56588ef1461073f578063ec8ac4d81461077357600080fd5b80639829f748116101085780639829f7481461061d578063a053ce1f1461063d578063a0f243b814610653578063be30f0a614610680578063c8404255146106a0578063ca4863fd146106c057600080fd5b80638456cb591461057d5780638da5cb5b146105925780638ee573ac146105b05780639125009d146105dd578063977b055b1461060757600080fd5b80634d5d6812116101dd57806361d027b3116101a157806361d027b3146104c25780636bd3e1f3146104e2578063715018a61461050257806371aa60fd1461051757806377b7cda61461053757806382dc4a051461054d57600080fd5b80634d5d681214610427578063530e784f1461044757806353aaa63b146104675780635bf5d54c146104945780635c975abb146104aa57600080fd5b806338c67b731161022f57806338c67b731461033e5780633f4ba83a1461035e5780634487872414610373578063450957f4146103a45780634a3b68cc146103c45780634bae6f3f146103fa57600080fd5b806305547d141461026c57806306b091f9146102a65780632630c12f146102c857806333b5b62e14610305578063346b1d4814610329575b600080fd5b34801561027857600080fd5b5061028c610287366004612385565b61083c565b60405161029d9594939291906123e4565b60405180910390f35b3480156102b257600080fd5b506102c66102c1366004612433565b6108f9565b005b3480156102d457600080fd5b506002546102ed9061010090046001600160a01b031681565b6040516001600160a01b03909116815260200161029d565b34801561031157600080fd5b5061031b600d5481565b60405190815260200161029d565b34801561033557600080fd5b506102c6610998565b34801561034a57600080fd5b506102c6610359366004612385565b610a77565b34801561036a57600080fd5b506102c6610af1565b34801561037f57600080fd5b5060025461039490600160a81b900460ff1681565b604051901515815260200161029d565b3480156103b057600080fd5b50600c546102ed906001600160a01b031681565b3480156103d057600080fd5b506102ed6103df36600461245d565b600f602052600090815260409020546001600160a01b031681565b34801561040657600080fd5b5061031b61041536600461245d565b60096020526000908152604090205481565b34801561043357600080fd5b506102c6610442366004612486565b610b01565b34801561045357600080fd5b506102c661046236600461245d565b610c45565b34801561047357600080fd5b5061031b61048236600461245d565b60106020526000908152604090205481565b3480156104a057600080fd5b5061031b60075481565b3480156104b657600080fd5b5060025460ff16610394565b3480156104ce57600080fd5b50600b546102ed906001600160a01b031681565b3480156104ee57600080fd5b506102c66104fd366004612433565b610cee565b34801561050e57600080fd5b506102c6610d27565b34801561052357600080fd5b5061031b610532366004612385565b610d39565b34801561054357600080fd5b5061031b60035481565b34801561055957600080fd5b5061039461056836600461245d565b60046020526000908152604090205460ff1681565b34801561058957600080fd5b506102c6610e44565b34801561059e57600080fd5b506000546001600160a01b03166102ed565b3480156105bc57600080fd5b5061031b6105cb36600461245d565b60056020526000908152604090205481565b3480156105e957600080fd5b506105f2610e54565b6040805192835290151560208301520161029d565b34801561061357600080fd5b5061031b600e5481565b34801561062957600080fd5b506102c661063836600461252a565b610f23565b34801561064957600080fd5b5061031b60115481565b34801561065f57600080fd5b5061031b61066e36600461245d565b600a6020526000908152604090205481565b34801561068c57600080fd5b506102c661069b366004612566565b6114d9565b3480156106ac57600080fd5b506102c66106bb36600461245d565b6114ec565b3480156106cc57600080fd5b506102c66106db366004612385565b61156c565b3480156106ec57600080fd5b506106f56115bb565b60405161029d99989796959493929190612588565b34801561071657600080fd5b506102c661072536600461245d565b611794565b34801561073657600080fd5b506102c66117bd565b34801561074b57600080fd5b506102ed7f000000000000000000000000000000000000000000000000000000000000000081565b6102c661078136600461245d565b61185f565b34801561079257600080fd5b506102c66107a136600461245d565b611da7565b3480156107b257600080fd5b506102c66107c136600461245d565b611dd1565b3480156107d257600080fd5b506102c66107e13660046125df565b611e0c565b3480156107f257600080fd5b5061031b60085481565b34801561080857600080fd5b5061031b610817366004612385565b611e6c565b34801561082857600080fd5b506102c6610837366004612385565b612045565b6006602052600090815260409020805460018201546002830154600384015460048501805494959394929360ff90921692610876906125fc565b80601f01602080910402602001604051908101604052809291908181526020018280546108a2906125fc565b80156108ef5780601f106108c4576101008083540402835291602001916108ef565b820191906000526020600020905b8154815290600101906020018083116108d257829003601f168201915b5050505050905085565b6109016120c2565b816001600160a01b031663a9059cbb6109226000546001600160a01b031690565b6040516001600160e01b031960e084901b1681526001600160a01b039091166004820152602481018490526044016020604051808303816000875af115801561096f573d6000803e3d6000fd5b505050506040513d601f19601f820116820180604052508101906109939190612630565b505050565b6109a06120c2565b6001600854106109e7576109ba66038d7ea4c680006120ef565b600160005260066020527f3e5fec24aa4dc4e5aee2e025e51e1392c72a2500577559fae9665c6d52bd6a31555b600260085410610a2e57610a016605543df729c0006120ef565b600260005260066020527f8819ef417987f8ae7a81f42cdfb18815282fe989326fbff903d13cf0e03ace29555b600360085410610a7557610a4866071afd498d00006120ef565b600360005260066020527f75f96ab15d697e93042dc45b5c896c4b27e89bb6eaf39475c5c371cb2513f7d2555b565b610a7f6120c2565b600081118015610a9157506008548111155b610ab65760405162461bcd60e51b8152600401610aad9061264d565b60405180910390fd5b600780546000908152600660205260408082206003908101805460ff1990811690915593859055938252902090910180549091166001179055565b610af96120c2565b610a75612100565b610b096120c2565b600086118015610b1b57506008548611155b610b375760405162461bcd60e51b8152600401610aad9061264d565b6040518060a0016040528086815260200185815260200160066000898152602001908152602001600020600201548152602001841515815260200183838080601f01602080910402602001604051908101604052809392919081815260200183838082843760009201829052509390945250508881526006602090815260409182902084518155908401516001820155908301516002820155606083015160038201805460ff191691151591909117905560808301519091506004820190610bff90826126d8565b505060408051878152602081018790528892507f5e730b83087d8c0acea3e8f2df9f8b5dadbaf69af2f6fcb639bba647319d8b54910160405180910390a2505050505050565b610c4d6120c2565b6001600160a01b038116610c9c5760405162461bcd60e51b8152602060048201526016602482015275496e76616c6964206f7261636c65206164647265737360501b6044820152606401610aad565b60028054610100600160a81b0319166101006001600160a01b038416908102919091179091556040517fefe8ab924ca486283a79dc604baa67add51afb82af1db8ac386ebbba643cdffd90600090a250565b610cf66120c2565b6001600160a01b039091166000908152600460209081526040808320805460ff191660011790556005909152902055565b610d2f6120c2565b610a756000612152565b6007546000908152600660209081526040808320815160a08101835281548152600182015493810193909352600281015491830191909152600381015460ff1615156060830152600481018054849392916080840191610d98906125fc565b80601f0160208091040260200160405190810160405280929190818152602001828054610dc4906125fc565b8015610e115780601f10610de657610100808354040283529160200191610e11565b820191906000526020600020905b815481529060010190602001808311610df457829003601f168201915b5050509190925250508151919250610e33905084670de0b6b3a76400006127ad565b610e3d91906127c4565b9392505050565b610e4c6120c2565b610a756121a2565b6002546000908190600160a81b900460ff168015610e81575060025461010090046001600160a01b031615155b15610f1857600080600260019054906101000a90046001600160a01b03166001600160a01b0316638e15f4736040518163ffffffff1660e01b8152600401606060405180830381865afa158015610edc573d6000803e3d6000fd5b505050506040513d601f19601f82011682018060405250810190610f0091906127e6565b92505091508015610f15575092600192509050565b50505b505060035490600090565b610f2b6121df565b610f33612209565b6001600160a01b03831660009081526004602052604090205460ff16610f905760405162461bcd60e51b8152602060048201526012602482015271151bdad95b881b9bdd081858d8d95c1d195960721b6044820152606401610aad565b60008211610fd75760405162461bcd60e51b8152602060048201526014602482015273125b9d985b1a59081d1bdad95b88185b5bdd5b9d60621b6044820152606401610aad565b6007546000908152600660205260409020600381015460ff166110375760405162461bcd60e51b815260206004820152601860248201527743757272656e74207374616765206e6f742061637469766560401b6044820152606401610aad565b6001600160a01b0384166000908152600560205260409020548390601214611095576001600160a01b03851660009081526005602052604090205461107d906012612820565b61108890600a61291a565b61109290856127ad565b90505b60006110a08261222d565b83549091506000906110ba83670de0b6b3a76400006127ad565b6110c491906127c4565b905083600101548185600201546110db9190612926565b11156111205760405162461bcd60e51b815260206004820152601460248201527314dd1859d9481b1a5b5a5d08195e18d95959195960621b6044820152606401610aad565b600b546040516323b872dd60e01b81523360048201526001600160a01b03918216602482015260448101889052908816906323b872dd906064016020604051808303816000875af1158015611179573d6000803e3d6000fd5b505050506040513d601f19601f8201168201806040525081019061119d9190612630565b50808460020160008282546111b29190612926565b909155505033600090815260096020526040812080548392906111d6908490612926565b90915550506001600160a01b038516158015906111fc57506001600160a01b0385163314155b1561139057336000908152600f6020526040812080546001600160a01b0319166001600160a01b0388161790556011546127109061123a90846127ad565b61124491906127c4565b6001600160a01b038716600090815260106020526040812080549293508392909190611271908490612926565b909155505060405163a9059cbb60e01b81526001600160a01b038781166004830152602482018390527f0000000000000000000000000000000000000000000000000000000000000000169063a9059cbb906044016020604051808303816000875af11580156112e5573d6000803e3d6000fd5b505050506040513d601f19601f820116820180604052508101906113099190612630565b61134e5760405162461bcd60e51b8152602060048201526016602482015275149959995c9c985b081c995dd85c990819985a5b195960521b6044820152606401610aad565b60405181815233906001600160a01b038816907f53958b9c644a1d5529da7c36929d59417eb9a996f08e02a52632bfe20c92ef489060200160405180910390a3505b60405163a9059cbb60e01b8152336004820152602481018290527f00000000000000000000000000000000000000000000000000000000000000006001600160a01b03169063a9059cbb906044016020604051808303816000875af11580156113fd573d6000803e3d6000fd5b505050506040513d601f19601f820116820180604052508101906114219190612630565b6114655760405162461bcd60e51b8152602060048201526015602482015274151bdad95b881d1c985b9cd9995c8819985a5b1959605a1b6044820152606401610aad565b600754604080518881526020810184905280820192909252516001600160a01b0389169133917fd319dca9100cf772f04bd58574fcdb2272275af5b80e0e74fcefef901ba8940a9181900360600190a383600101548460020154106114cc576114cc6122fb565b5050505061099360018055565b6114e16120c2565b600d91909155600e55565b6114f46120c2565b6001600160a01b03811661154a5760405162461bcd60e51b815260206004820152601860248201527f496e76616c6964207472656173757279206164647265737300000000000000006044820152606401610aad565b600c80546001600160a01b0319166001600160a01b0392909216919091179055565b6115746120c2565b6103e88111156115b65760405162461bcd60e51b815260206004820152600d60248201526c0a4c2e8ca40e8dede40d0d2ced609b1b6044820152606401610aad565b601155565b600060606000806000806000806000806006600060075481526020019081526020016000206040518060a00160405290816000820154815260200160018201548152602001600282015481526020016003820160009054906101000a900460ff16151515158152602001600482018054611634906125fc565b80601f0160208091040260200160405190810160405280929190818152602001828054611660906125fc565b80156116ad5780601f10611682576101008083540402835291602001916116ad565b820191906000526020600020905b81548152906001019060200180831161169057829003601f168201915b50505050508152505090506000806116c3610e54565b600754604051637ee6c69d60e11b815260048101919091529193509150600090309063fdcd8d3a90602401602060405180830381865afa15801561170b573d6000803e3d6000fd5b505050506040513d601f19601f8201168201806040525081019061172f9190612939565b60075460808601518651602088015160408901519495509293919290916117568183612820565b60608a01516002548890600160a81b900460ff1680156117735750895b9c509c509c509c509c509c509c509c509c5050505050909192939495969798565b61179c6120c2565b6001600160a01b03166000908152600460205260409020805460ff19169055565b6117c56120c2565b600080546040516001600160a01b039091169047908381818185875af1925050503d8060008114611812576040519150601f19603f3d011682016040523d82523d6000602084013e611817565b606091505b505090508061185c5760405162461bcd60e51b815260206004820152601160248201527015da5d1a191c985dd85b0819985a5b1959607a1b6044820152606401610aad565b50565b6118676121df565b61186f612209565b600d543410156118ba5760405162461bcd60e51b815260206004820152601660248201527542656c6f77206d696e696d756d20707572636861736560501b6044820152606401610aad565b600e543411156119055760405162461bcd60e51b815260206004820152601660248201527541626f7665206d6178696d756d20707572636861736560501b6044820152606401610aad565b6007546000908152600660205260409020600381015460ff166119655760405162461bcd60e51b815260206004820152601860248201527743757272656e74207374616765206e6f742061637469766560401b6044820152606401610aad565b805460009061197c34670de0b6b3a76400006127ad565b61198691906127c4565b9050816001015481836002015461199d9190612926565b11156119e25760405162461bcd60e51b815260206004820152601460248201527314dd1859d9481b1a5b5a5d08195e18d95959195960621b6044820152606401610aad565b808260020160008282546119f69190612926565b90915550503360009081526009602052604081208054839290611a1a908490612926565b9091555050336000908152600a602052604081208054349290611a3e908490612926565b90915550506001600160a01b03831615801590611a6457506001600160a01b0383163314155b15611b7c57336000908152600f6020526040812080546001600160a01b0319166001600160a01b03861617905560115461271090611aa290346127ad565b611aac91906127c4565b6001600160a01b038516600090815260106020526040812080549293508392909190611ad9908490612926565b90915550506040516000906001600160a01b0386169083908381818185875af1925050503d8060008114611b29576040519150601f19603f3d011682016040523d82523d6000602084013e611b2e565b606091505b505090508015611b795760405182815233906001600160a01b038716907f53958b9c644a1d5529da7c36929d59417eb9a996f08e02a52632bfe20c92ef489060200160405180910390a35b50505b60405163a9059cbb60e01b8152336004820152602481018290527f00000000000000000000000000000000000000000000000000000000000000006001600160a01b03169063a9059cbb906044016020604051808303816000875af1158015611be9573d6000803e3d6000fd5b505050506040513d601f19601f82011682018060405250810190611c0d9190612630565b611c515760405162461bcd60e51b8152602060048201526015602482015274151bdad95b881d1c985b9cd9995c8819985a5b1959605a1b6044820152606401610aad565b336000908152600f602052604090205434906001600160a01b031615611c995761271060115434611c8291906127ad565b611c8c91906127c4565b611c969082612820565b90505b600c546040516000916001600160a01b03169083908381818185875af1925050503d8060008114611ce6576040519150601f19603f3d011682016040523d82523d6000602084013e611ceb565b606091505b5050905080611d3c5760405162461bcd60e51b815260206004820152601860248201527f5472656173757279207472616e73666572206661696c656400000000000000006044820152606401610aad565b60075460408051348152602081018690529081019190915233907f0d1a0d5e3d583a0e92588799dd06e50fd78c07daf05f0cc06d7b848b1ca445f19060600160405180910390a28360010154846002015410611d9a57611d9a6122fb565b5050505061185c60018055565b611daf6120c2565b600b80546001600160a01b0319166001600160a01b0392909216919091179055565b611dd96120c2565b6001600160a01b038116611e0357604051631e4fbdf760e01b815260006004820152602401610aad565b61185c81612152565b611e146120c2565b60028054821515600160a81b0260ff60a81b199091161790556040517fb192c0be01be51f7c38570e519ac5b0dbc88ef5dfb6cfb81fd1c8999f0b2ad8690611e6190831515815260200190565b60405180910390a150565b60008082118015611e7f57506008548211155b611e9b5760405162461bcd60e51b8152600401610aad9061264d565b6000828152600660209081526040808320815160a08101835281548152600182015493810193909352600281015491830191909152600381015460ff1615156060830152600481018054608084019190611ef4906125fc565b80601f0160208091040260200160405190810160405280929190818152602001828054611f20906125fc565b8015611f6d5780601f10611f4257610100808354040283529160200191611f6d565b820191906000526020600020905b815481529060010190602001808311611f5057829003601f168201915b50505091909252505060025491925050600160a81b900460ff168015611fa2575060025461010090046001600160a01b031615155b1561202b576002548151604051637ee6c69d60e11b815260048101919091526101009091046001600160a01b03169063fdcd8d3a90602401602060405180830381865afa925050508015612013575060408051601f3d908101601f1916820190925261201091810190612939565b60015b610e3d5760035481516305f5e10091610e33916127ad565b60035481516305f5e10091610e33916127ad565b50919050565b61204d6120c2565b6000811161208d5760405162461bcd60e51b815260206004820152600d60248201526c496e76616c696420707269636560981b6044820152606401610aad565b60038190556040518181527fef016671b6ed7d62b1a817ff4483fb60a62a693ae9fa4a13a778963dd57d609090602001611e61565b6000546001600160a01b03163314610a755760405163118cdaa760e01b8152336004820152602401610aad565b60006120fa8261222d565b92915050565b612108612362565b6002805460ff191690557f5db9ee0a495bf2e6ff9c91a7834c1ba4fdd244a5e8aa4e537bd38aeae4b073aa335b6040516001600160a01b03909116815260200160405180910390a1565b600080546001600160a01b038381166001600160a01b0319831681178455604051919092169283917f8be0079c531659141344cd1fd0a4f28419497f9722a3daafe3b4186f6b6457e09190a35050565b6121aa612209565b6002805460ff191660011790557f62e78cea01bee320cd4e420270b5ea74000d11b0c9f74754ebdbfc544b05a2586121353390565b60026001540361220257604051633ee5aeb560e01b815260040160405180910390fd5b6002600155565b60025460ff1615610a755760405163d93c066560e01b815260040160405180910390fd5b600254600090600160a81b900460ff168015612258575060025461010090046001600160a01b031615155b156122e55760025460405163bcecf66760e01b8152600481018490526101009091046001600160a01b03169063bcecf66790602401602060405180830381865afa9250505080156122c6575060408051601f3d908101601f191682019092526122c391810190612939565b60015b6120fa576003546122db836305f5e1006127ad565b6120fa91906127c4565b6003546122db836305f5e1006127ad565b919050565b6008546007541015610a7557600780546000908152600660205260408120600301805460ff191690558154919061233183612952565b919050555060085460075411610a75576007546000908152600660205260409020600301805460ff19166001179055565b60025460ff16610a7557604051638dfc202b60e01b815260040160405180910390fd5b60006020828403121561239757600080fd5b5035919050565b6000815180845260005b818110156123c4576020818501810151868301820152016123a8565b506000602082860101526020601f19601f83011685010191505092915050565b858152846020820152836040820152821515606082015260a06080820152600061241160a083018461239e565b979650505050505050565b80356001600160a01b03811681146122f657600080fd5b6000806040838503121561244657600080fd5b61244f8361241c565b946020939093013593505050565b60006020828403121561246f57600080fd5b610e3d8261241c565b801515811461185c57600080fd5b60008060008060008060a0878903121561249f57600080fd5b86359550602087013594506040870135935060608701356124bf81612478565b9250608087013567ffffffffffffffff8111156124db57600080fd5b8701601f810189136124ec57600080fd5b803567ffffffffffffffff81111561250357600080fd5b89602082840101111561251557600080fd5b60208201935080925050509295509295509295565b60008060006060848603121561253f57600080fd5b6125488461241c565b92506020840135915061255d6040850161241c565b90509250925092565b6000806040838503121561257957600080fd5b50508035926020909101359150565b898152610120602082015260006125a361012083018b61239e565b6040830199909952506060810196909652608086019490945260a0850192909252151560c084015260e083015215156101009091015292915050565b6000602082840312156125f157600080fd5b8135610e3d81612478565b600181811c9082168061261057607f821691505b60208210810361203f57634e487b7160e01b600052602260045260246000fd5b60006020828403121561264257600080fd5b8151610e3d81612478565b6020808252600d908201526c496e76616c696420737461676560981b604082015260600190565b634e487b7160e01b600052604160045260246000fd5b601f82111561099357806000526020600020601f840160051c810160208510156126b15750805b601f840160051c820191505b818110156126d157600081556001016126bd565b5050505050565b815167ffffffffffffffff8111156126f2576126f2612674565b6127068161270084546125fc565b8461268a565b6020601f82116001811461273a57600083156127225750848201515b600019600385901b1c1916600184901b1784556126d1565b600084815260208120601f198516915b8281101561276a578785015182556020948501946001909201910161274a565b50848210156127885786840151600019600387901b60f8161c191681555b50505050600190811b01905550565b634e487b7160e01b600052601160045260246000fd5b80820281158282048414176120fa576120fa612797565b6000826127e157634e487b7160e01b600052601260045260246000fd5b500490565b6000806000606084860312156127fb57600080fd5b835160208501516040860151919450925061281581612478565b809150509250925092565b818103818111156120fa576120fa612797565b6001815b600184111561286e5780850481111561285257612852612797565b600184161561286057908102905b60019390931c928002612837565b935093915050565b600082612885575060016120fa565b81612892575060006120fa565b81600181146128a857600281146128b2576128ce565b60019150506120fa565b60ff8411156128c3576128c3612797565b50506001821b6120fa565b5060208310610133831016604e8410600b84101617156128f1575081810a6120fa565b6128fe6000198484612833565b806000190482111561291257612912612797565b029392505050565b6000610e3d8383612876565b808201808211156120fa576120fa612797565b60006020828403121561294b57600080fd5b5051919050565b60006001820161296457612964612797565b506001019056fea2646970667358221220056cd92bcc44f9f3fffa826cc247e70c5828d60adfa9b373be948544cebedbb764736f6c634300081f0033",
  "linkReferences": {},
  "deployedLinkReferences": {}
}