{
  "_format": "hh-sol-artifact-1",
  "contractName": "EvolutionaryUpgradeableContract",
  "sourceName": "contracts/EvolutionaryUpgradeableContract.sol",
  "abi": [
    {
      "inputs": [
        {
          "internalType": "address",
          "name": "_logic",
          "type": "address"
        },
        {
          "internalType": "address",
          "name": "_admin",
          "type": "address"
        },
        {
          "internalType": "bytes",
          "name": "_data",
          "type": "bytes"
        },
        {
          "internalType": "address[]",
          "name": "_agents",
          "type": "address[]"
        },
        {
          "internalType": "uint256",
          "name": "_threshold",
          "type": "uint256"
        }
      ],
      "stateMutability": "nonpayable",
      "type": "constructor"
    },
    {
      "inputs": [
        {
          "internalType": "address",
          "name": "owner",
          "type": "address"
        }
      ],
      "name": "OwnableInvalidOwner",
      "type": "error"
    },
    {
      "inputs": [
        {
          "internalType": "address",
          "name": "account",
          "type": "address"
        }
      ],
      "name": "OwnableUnauthorizedAccount",
      "type": "error"
    },
    {
      "anonymous": false,
      "inputs": [
        {
          "indexed": true,
          "internalType": "address",
          "name": "previousOwner",
          "type": "address"
        },
        {
          "indexed": true,
          "internalType": "address",
          "name": "newOwner",
          "type": "address"
        }
      ],
      "name": "OwnershipTransferred",
      "type": "event"
    },
    {
      "anonymous": false,
      "inputs": [
        {
          "indexed": true,
          "internalType": "address",
          "name": "newImplementation",
          "type": "address"
        }
      ],
      "name": "UpgradeExecuted",
      "type": "event"
    },
    {
      "anonymous": false,
      "inputs": [
        {
          "indexed": true,
          "internalType": "address",
          "name": "newImplementation",
          "type": "address"
        },
        {
          "indexed": true,
          "internalType": "address",
          "name": "proposer",
          "type": "address"
        }
      ],
      "name": "UpgradeProposed",
      "type": "event"
    },
    {
      "inputs": [
        {
          "internalType": "uint256",
          "name": "",
          "type": "uint256"
        }
      ],
      "name": "agentAddresses",
      "outputs": [
        {
          "internalType": "address",
          "name": "",
          "type": "address"
        }
      ],
      "stateMutability": "view",
      "type": "function"
    },
    {
      "inputs": [
        {
          "internalType": "address",
          "name": "",
          "type": "address"
        }
      ],
      "name": "agentApproved",
      "outputs": [
        {
          "internalType": "bool",
          "name": "",
          "type": "bool"
        }
      ],
      "stateMutability": "view",
      "type": "function"
    },
    {
      "inputs": [],
      "name": "consensusThreshold",
      "outputs": [
        {
          "internalType": "uint256",
          "name": "",
          "type": "uint256"
        }
      ],
      "stateMutability": "view",
      "type": "function"
    },
    {
      "inputs": [
        {
          "internalType": "address",
          "name": "newImplementation",
          "type": "address"
        }
      ],
      "name": "executeUpgrade",
      "outputs": [],
      "stateMutability": "nonpayable",
      "type": "function"
    },
    {
      "inputs": [],
      "name": "getConsensus",
      "outputs": [
        {
          "internalType": "uint256",
          "name": "count",
          "type": "uint256"
        }
      ],
      "stateMutability": "view",
      "type": "function"
    },
    {
      "inputs": [
        {
          "internalType": "address",
          "name": "agent",
          "type": "address"
        }
      ],
      "name": "isAgent",
      "outputs": [
        {
          "internalType": "bool",
          "name": "",
          "type": "bool"
        }
      ],
      "stateMutability": "view",
      "type": "function"
    },
    {
      "inputs": [],
      "name": "owner",
      "outputs": [
        {
          "internalType": "address",
          "name": "",
          "type": "address"
        }
      ],
      "stateMutability": "view",
      "type": "function"
    },
    {
      "inputs": [
        {
          "internalType": "address",
          "name": "newImplementation",
          "type": "address"
        }
      ],
      "name": "proposeUpgrade",
      "outputs": [],
      "stateMutability": "nonpayable",
      "type": "function"
    },
    {
      "inputs": [],
      "name": "proxy",
      "outputs": [
        {
          "internalType": "contract TransparentUpgradeableProxy",
          "name": "",
          "type": "address"
        }
      ],
      "stateMutability": "view",
      "type": "function"
    },
    {
      "inputs": [],
      "name": "proxyAdmin",
      "outputs": [
        {
          "internalType": "contract ProxyAdmin",
          "name": "",
          "type": "address"
        }
      ],
      "stateMutability": "view",
      "type": "function"
    },
    {
      "inputs": [],
      "name": "renounceOwnership",
      "outputs": [],
      "stateMutability": "nonpayable",
      "type": "function"
    },
    {
      "inputs": [
        {
          "internalType": "address",
          "name": "newOwner",
          "type": "address"
        }
      ],
      "name": "transferOwnership",
      "outputs": [],
      "stateMutability": "nonpayable",
      "type": "function"
    }
  ],
  "bytecode": "0x608060405234801561001057600080fd5b50604051611e0b380380611e0b83398101604081905261002f91610326565b338061005557604051631e4fbdf760e01b81526000600482015260240160405180910390fd5b61005e81610133565b503360405161006c90610183565b6001600160a01b039091168152602001604051809103906000f080158015610098573d6000803e3d6000fd5b50600180546001600160a01b0319166001600160a01b0392909216918217905560405186919085906100c990610190565b6100d593929190610415565b604051809103906000f0801580156100f1573d6000803e3d6000fd5b50600280546001600160a01b0319166001600160a01b0392909216919091179055815161012590600390602085019061019d565b506005555061046692505050565b600080546001600160a01b038381166001600160a01b0319831681178455604051919092169283917f8be0079c531659141344cd1fd0a4f28419497f9722a3daafe3b4186f6b6457e09190a35050565b61052c80610a5d83390190565b610e8280610f8983390190565b8280548282559060005260206000209081019282156101f2579160200282015b828111156101f257825182546001600160a01b0319166001600160a01b039091161782556020909201916001909101906101bd565b506101fe929150610202565b5090565b5b808211156101fe5760008155600101610203565b80516001600160a01b038116811461022e57600080fd5b919050565b634e487b7160e01b600052604160045260246000fd5b604051601f8201601f191681016001600160401b038111828210171561027157610271610233565b604052919050565b60005b8381101561029457818101518382015260200161027c565b50506000910152565b600082601f8301126102ae57600080fd5b81516001600160401b038111156102c7576102c7610233565b8060051b6102d760208201610249565b918252602081850181019290810190868411156102f357600080fd5b6020860192505b8383101561031c5761030b83610217565b8252602092830192909101906102fa565b9695505050505050565b600080600080600060a0868803121561033e57600080fd5b61034786610217565b945061035560208701610217565b60408701519094506001600160401b0381111561037157600080fd5b8601601f8101881361038257600080fd5b80516001600160401b0381111561039b5761039b610233565b6103ae601f8201601f1916602001610249565b8181528960208385010111156103c357600080fd5b6103d4826020830160208601610279565b60608901519095509150506001600160401b038111156103f357600080fd5b6103ff8882890161029d565b6080979097015195989497509295949392505050565b60018060a01b038416815260018060a01b03831660208201526060604082015260008251806060840152610450816080850160208701610279565b601f01601f191691909101608001949350505050565b6105e8806104756000396000f3fe608060405234801561001057600080fd5b50600436106100b45760003560e01c8063a7676a6311610071578063a7676a6314610150578063adf96a0314610163578063c915fc9314610186578063ec55688914610199578063f2fde38b146101ac578063f9b0b5b9146101bf57600080fd5b8063179e740b146100b95780631ffbb064146100d4578063394d4bf3146100f75780633e47158c1461010c578063715018a6146101375780638da5cb5b1461013f575b600080fd5b6100c16101c8565b6040519081526020015b60405180910390f35b6100e76100e236600461052c565b610234565b60405190151581526020016100cb565b61010a61010536600461052c565b610293565b005b60015461011f906001600160a01b031681565b6040516001600160a01b0390911681526020016100cb565b61010a610338565b6000546001600160a01b031661011f565b61011f61015e36600461055c565b61034c565b6100e761017136600461052c565b60046020526000908152604090205460ff1681565b61010a61019436600461052c565b610376565b60025461011f906001600160a01b031681565b61010a6101ba36600461052c565b61040f565b6100c160055481565b6000805b6003548110156102305760046000600383815481106101ed576101ed610575565b60009182526020808320909101546001600160a01b0316835282019290925260400190205460ff161561022857816102248161058b565b9250505b6001016101cc565b5090565b6000805b60035481101561028a57826001600160a01b03166003828154811061025f5761025f610575565b6000918252602090912001546001600160a01b0316036102825750600192915050565b600101610238565b50600092915050565b61029b61044d565b6005546102a66101c8565b10156102f95760405162461bcd60e51b815260206004820152601a60248201527f4e6f7420656e6f756768206167656e7420636f6e73656e73757300000000000060448201526064015b60405180910390fd5b61030161047a565b6040516001600160a01b038216907ffd5a9ae7c73c11fde86dd61704e937a04c99e7eef668050f685aabc5d8a6b2e490600090a250565b61034061044d565b61034a60006104dc565b565b6003818154811061035c57600080fd5b6000918252602090912001546001600160a01b0316905081565b61037f33610234565b6103c25760405162461bcd60e51b8152602060048201526014602482015273139bdd08185d5d1a1bdc9a5e9959081859d95b9d60621b60448201526064016102f0565b33600081815260046020526040808220805460ff19166001179055516001600160a01b038416917f420e11517adc049205284113c0d2f388e6fdd10d26abf9dad517a493f0189f3291a350565b61041761044d565b6001600160a01b03811661044157604051631e4fbdf760e01b8152600060048201526024016102f0565b61044a816104dc565b50565b6000546001600160a01b0316331461034a5760405163118cdaa760e01b81523360048201526024016102f0565b60005b60035481101561044a57600060046000600384815481106104a0576104a0610575565b6000918252602080832091909101546001600160a01b031683528201929092526040019020805460ff191691151591909117905560010161047d565b600080546001600160a01b038381166001600160a01b0319831681178455604051919092169283917f8be0079c531659141344cd1fd0a4f28419497f9722a3daafe3b4186f6b6457e09190a35050565b60006020828403121561053e57600080fd5b81356001600160a01b038116811461055557600080fd5b9392505050565b60006020828403121561056e57600080fd5b5035919050565b634e487b7160e01b600052603260045260246000fd5b6000600182016105ab57634e487b7160e01b600052601160045260246000fd5b506001019056fea2646970667358221220fefd1e9e8927bc9cb835f63371a5a49289a85c0f6c2e89b99076c80841d728d364736f6c634300081f0033608060405234801561001057600080fd5b5060405161052c38038061052c83398101604081905261002f916100be565b806001600160a01b03811661005e57604051631e4fbdf760e01b81526000600482015260240160405180910390fd5b6100678161006e565b50506100ee565b600080546001600160a01b038381166001600160a01b0319831681178455604051919092169283917f8be0079c531659141344cd1fd0a4f28419497f9722a3daafe3b4186f6b6457e09190a35050565b6000602082840312156100d057600080fd5b81516001600160a01b03811681146100e757600080fd5b9392505050565b61042f806100fd6000396000f3fe60806040526004361061004a5760003560e01c8063715018a61461004f5780638da5cb5b146100665780639623609d14610093578063ad3cb1cc146100a6578063f2fde38b146100e4575b600080fd5b34801561005b57600080fd5b50610064610104565b005b34801561007257600080fd5b506000546040516001600160a01b0390911681526020015b60405180910390f35b6100646100a1366004610272565b610118565b3480156100b257600080fd5b506100d7604051806040016040528060058152602001640352e302e360dc1b81525081565b60405161008a9190610396565b3480156100f057600080fd5b506100646100ff3660046103b0565b610187565b61010c6101ca565b61011660006101f7565b565b6101206101ca565b60405163278f794360e11b81526001600160a01b03841690634f1ef28690349061015090869086906004016103cd565b6000604051808303818588803b15801561016957600080fd5b505af115801561017d573d6000803e3d6000fd5b5050505050505050565b61018f6101ca565b6001600160a01b0381166101be57604051631e4fbdf760e01b8152600060048201526024015b60405180910390fd5b6101c7816101f7565b50565b6000546001600160a01b031633146101165760405163118cdaa760e01b81523360048201526024016101b5565b600080546001600160a01b038381166001600160a01b0319831681178455604051919092169283917f8be0079c531659141344cd1fd0a4f28419497f9722a3daafe3b4186f6b6457e09190a35050565b6001600160a01b03811681146101c757600080fd5b634e487b7160e01b600052604160045260246000fd5b60008060006060848603121561028757600080fd5b833561029281610247565b925060208401356102a281610247565b9150604084013567ffffffffffffffff8111156102be57600080fd5b8401601f810186136102cf57600080fd5b803567ffffffffffffffff8111156102e9576102e961025c565b604051601f8201601f19908116603f0116810167ffffffffffffffff811182821017156103185761031861025c565b60405281815282820160200188101561033057600080fd5b816020840160208301376000602083830101528093505050509250925092565b6000815180845260005b818110156103765760208185018101518683018201520161035a565b506000602082860101526020601f19601f83011685010191505092915050565b6020815260006103a96020830184610350565b9392505050565b6000602082840312156103c257600080fd5b81356103a981610247565b6001600160a01b03831681526040602082018190526000906103f190830184610350565b94935050505056fea2646970667358221220a97d2cde1c3d0c339479bca4a0dcef81a29593a0273b77db628f332edf63409b64736f6c634300081f003360a0604052604051610e82380380610e828339810160408190526100229161039c565b828161002e828261008f565b50508160405161003d90610339565b6001600160a01b039091168152602001604051809103906000f080158015610069573d6000803e3d6000fd5b506001600160a01b031660805261008761008260805190565b6100ee565b50505061048e565b6100988261015c565b6040516001600160a01b038316907fbc7cd75a20ee27fd9adebab32041f755214dbc6bffa90cc0225b39da2e5c2d3b90600090a28051156100e2576100dd82826101db565b505050565b6100ea610252565b5050565b7f7e644d79422f17c01e4894b5f4f588d331ebfa28653d42ae832dc59e38c9798f61012e600080516020610e62833981519152546001600160a01b031690565b604080516001600160a01b03928316815291841660208301520160405180910390a161015981610273565b50565b806001600160a01b03163b60000361019757604051634c9c8ce360e01b81526001600160a01b03821660048201526024015b60405180910390fd5b807f360894a13ba1a3210667c828492db98dca3e2076cc3735a920a3ca505d382bbc5b80546001600160a01b0319166001600160a01b039290921691909117905550565b6060600080846001600160a01b0316846040516101f89190610472565b600060405180830381855af49150503d8060008114610233576040519150601f19603f3d011682016040523d82523d6000602084013e610238565b606091505b5090925090506102498583836102b2565b95945050505050565b34156102715760405163b398979f60e01b815260040160405180910390fd5b565b6001600160a01b03811661029d57604051633173bdd160e11b81526000600482015260240161018e565b80600080516020610e628339815191526101ba565b6060826102c7576102c282610311565b61030a565b81511580156102de57506001600160a01b0384163b155b1561030757604051639996b31560e01b81526001600160a01b038516600482015260240161018e565b50805b9392505050565b80511561032057805160208201fd5b60405163d6bda27560e01b815260040160405180910390fd5b61052c8061093683390190565b80516001600160a01b038116811461035d57600080fd5b919050565b634e487b7160e01b600052604160045260246000fd5b60005b8381101561039357818101518382015260200161037b565b50506000910152565b6000806000606084860312156103b157600080fd5b6103ba84610346565b92506103c860208501610346565b60408501519092506001600160401b038111156103e457600080fd5b8401601f810186136103f557600080fd5b80516001600160401b0381111561040e5761040e610362565b604051601f8201601f19908116603f011681016001600160401b038111828210171561043c5761043c610362565b60405281815282820160200188101561045457600080fd5b610465826020830160208601610378565b8093505050509250925092565b60008251610484818460208701610378565b9190910192915050565b60805161048e6104a860003960006010015261048e6000f3fe608060405261000c61000e565b005b7f00000000000000000000000000000000000000000000000000000000000000006001600160a01b0316330361007b576000356001600160e01b03191663278f794360e11b14610071576040516334ad5dbb60e21b815260040160405180910390fd5b610079610083565b565b6100796100b2565b6000806100933660048184610311565b8101906100a09190610351565b915091506100ae82826100c2565b5050565b6100796100bd61011d565b610155565b6100cb82610179565b6040516001600160a01b038316907fbc7cd75a20ee27fd9adebab32041f755214dbc6bffa90cc0225b39da2e5c2d3b90600090a28051156101155761011082826101f5565b505050565b6100ae61026b565b60006101507f360894a13ba1a3210667c828492db98dca3e2076cc3735a920a3ca505d382bbc546001600160a01b031690565b905090565b3660008037600080366000845af43d6000803e808015610174573d6000f35b3d6000fd5b806001600160a01b03163b6000036101b457604051634c9c8ce360e01b81526001600160a01b03821660048201526024015b60405180910390fd5b7f360894a13ba1a3210667c828492db98dca3e2076cc3735a920a3ca505d382bbc80546001600160a01b0319166001600160a01b0392909216919091179055565b6060600080846001600160a01b0316846040516102129190610429565b600060405180830381855af49150503d806000811461024d576040519150601f19603f3d011682016040523d82523d6000602084013e610252565b606091505b509150915061026285838361028a565b95945050505050565b34156100795760405163b398979f60e01b815260040160405180910390fd5b60608261029f5761029a826102e9565b6102e2565b81511580156102b657506001600160a01b0384163b155b156102df57604051639996b31560e01b81526001600160a01b03851660048201526024016101ab565b50805b9392505050565b8051156102f857805160208201fd5b60405163d6bda27560e01b815260040160405180910390fd5b6000808585111561032157600080fd5b8386111561032e57600080fd5b5050820193919092039150565b634e487b7160e01b600052604160045260246000fd5b6000806040838503121561036457600080fd5b82356001600160a01b038116811461037b57600080fd5b9150602083013567ffffffffffffffff81111561039757600080fd5b8301601f810185136103a857600080fd5b803567ffffffffffffffff8111156103c2576103c261033b565b604051601f8201601f19908116603f0116810167ffffffffffffffff811182821017156103f1576103f161033b565b60405281815282820160200187101561040957600080fd5b816020840160208301376000602083830101528093505050509250929050565b6000825160005b8181101561044a5760208186018101518583015201610430565b50600092019182525091905056fea26469706673582212203be31c976cf005b6dae741a86045ee46e0b10981cc8ab3ae568817d53efcb54a64736f6c634300081f0033608060405234801561001057600080fd5b5060405161052c38038061052c83398101604081905261002f916100be565b806001600160a01b03811661005e57604051631e4fbdf760e01b81526000600482015260240160405180910390fd5b6100678161006e565b50506100ee565b600080546001600160a01b038381166001600160a01b0319831681178455604051919092169283917f8be0079c531659141344cd1fd0a4f28419497f9722a3daafe3b4186f6b6457e09190a35050565b6000602082840312156100d057600080fd5b81516001600160a01b03811681146100e757600080fd5b9392505050565b61042f806100fd6000396000f3fe60806040526004361061004a5760003560e01c8063715018a61461004f5780638da5cb5b146100665780639623609d14610093578063ad3cb1cc146100a6578063f2fde38b146100e4575b600080fd5b34801561005b57600080fd5b50610064610104565b005b34801561007257600080fd5b506000546040516001600160a01b0390911681526020015b60405180910390f35b6100646100a1366004610272565b610118565b3480156100b257600080fd5b506100d7604051806040016040528060058152602001640352e302e360dc1b81525081565b60405161008a9190610396565b3480156100f057600080fd5b506100646100ff3660046103b0565b610187565b61010c6101ca565b61011660006101f7565b565b6101206101ca565b60405163278f794360e11b81526001600160a01b03841690634f1ef28690349061015090869086906004016103cd565b6000604051808303818588803b15801561016957600080fd5b505af115801561017d573d6000803e3d6000fd5b5050505050505050565b61018f6101ca565b6001600160a01b0381166101be57604051631e4fbdf760e01b8152600060048201526024015b60405180910390fd5b6101c7816101f7565b50565b6000546001600160a01b031633146101165760405163118cdaa760e01b81523360048201526024016101b5565b600080546001600160a01b038381166001600160a01b0319831681178455604051919092169283917f8be0079c531659141344cd1fd0a4f28419497f9722a3daafe3b4186f6b6457e09190a35050565b6001600160a01b03811681146101c757600080fd5b634e487b7160e01b600052604160045260246000fd5b60008060006060848603121561028757600080fd5b833561029281610247565b925060208401356102a281610247565b9150604084013567ffffffffffffffff8111156102be57600080fd5b8401601f810186136102cf57600080fd5b803567ffffffffffffffff8111156102e9576102e961025c565b604051601f8201601f19908116603f0116810167ffffffffffffffff811182821017156103185761031861025c565b60405281815282820160200188101561033057600080fd5b816020840160208301376000602083830101528093505050509250925092565b6000815180845260005b818110156103765760208185018101518683018201520161035a565b506000602082860101526020601f19601f83011685010191505092915050565b6020815260006103a96020830184610350565b9392505050565b6000602082840312156103c257600080fd5b81356103a981610247565b6001600160a01b03831681526040602082018190526000906103f190830184610350565b94935050505056fea2646970667358221220a97d2cde1c3d0c339479bca4a0dcef81a29593a0273b77db628f332edf63409b64736f6c634300081f0033b53127684a568b3173ae13b9f8a6016e243e63b6e8ee1178d6a717850b5d6103",
  "linkReferences": {},
  "deployedLinkReferences": {}
}