{
  "_format": "hh-sol-artifact-1",
  "contractName": "GuardianToken",
  "sourceName": "contracts/GuardianTokenUnified.sol",
  "abi": [
    {
      "inputs": [
        {
          "internalType": "address",
          "name": "initialOwner",
          "type": "address"
        }
      ],
      "stateMutability": "nonpayable",
      "type": "constructor"
    },
    {
      "inputs": [],
      "name": "ECDSAInvalidSignature",
      "type": "error"
    },
    {
      "inputs": [
        {
          "internalType": "uint256",
          "name": "length",
          "type": "uint256"
        }
      ],
      "name": "ECDSAInvalidSignatureLength",
      "type": "error"
    },
    {
      "inputs": [
        {
          "internalType": "bytes32",
          "name": "s",
          "type": "bytes32"
        }
      ],
      "name": "ECDSAInvalidSignatureS",
      "type": "error"
    },
    {
      "inputs": [
        {
          "internalType": "address",
          "name": "spender",
          "type": "address"
        },
        {
          "internalType": "uint256",
          "name": "allowance",
          "type": "uint256"
        },
        {
          "internalType": "uint256",
          "name": "needed",
          "type": "uint256"
        }
      ],
      "name": "ERC20InsufficientAllowance",
      "type": "error"
    },
    {
      "inputs": [
        {
          "internalType": "address",
          "name": "sender",
          "type": "address"
        },
        {
          "internalType": "uint256",
          "name": "balance",
          "type": "uint256"
        },
        {
          "internalType": "uint256",
          "name": "needed",
          "type": "uint256"
        }
      ],
      "name": "ERC20InsufficientBalance",
      "type": "error"
    },
    {
      "inputs": [
        {
          "internalType": "address",
          "name": "approver",
          "type": "address"
        }
      ],
      "name": "ERC20InvalidApprover",
      "type": "error"
    },
    {
      "inputs": [
        {
          "internalType": "address",
          "name": "receiver",
          "type": "address"
        }
      ],
      "name": "ERC20InvalidReceiver",
      "type": "error"
    },
    {
      "inputs": [
        {
          "internalType": "address",
          "name": "sender",
          "type": "address"
        }
      ],
      "name": "ERC20InvalidSender",
      "type": "error"
    },
    {
      "inputs": [
        {
          "internalType": "address",
          "name": "spender",
          "type": "address"
        }
      ],
      "name": "ERC20InvalidSpender",
      "type": "error"
    },
    {
      "inputs": [
        {
          "internalType": "uint256",
          "name": "deadline",
          "type": "uint256"
        }
      ],
      "name": "ERC2612ExpiredSignature",
      "type": "error"
    },
    {
      "inputs": [
        {
          "internalType": "address",
          "name": "signer",
          "type": "address"
        },
        {
          "internalType": "address",
          "name": "owner",
          "type": "address"
        }
      ],
      "name": "ERC2612InvalidSigner",
      "type": "error"
    },
    {
      "inputs": [
        {
          "internalType": "address",
          "name": "account",
          "type": "address"
        },
        {
          "internalType": "uint256",
          "name": "currentNonce",
          "type": "uint256"
        }
      ],
      "name": "InvalidAccountNonce",
      "type": "error"
    },
    {
      "inputs": [],
      "name": "InvalidShortString",
      "type": "error"
    },
    {
      "inputs": [
        {
          "internalType": "address",
          "name": "owner",
          "type": "address"
        }
      ],
      "name": "OwnableInvalidOwner",
      "type": "error"
    },
    {
      "inputs": [
        {
          "internalType": "address",
          "name": "account",
          "type": "address"
        }
      ],
      "name": "OwnableUnauthorizedAccount",
      "type": "error"
    },
    {
      "inputs": [],
      "name": "ReentrancyGuardReentrantCall",
      "type": "error"
    },
    {
      "inputs": [
        {
          "internalType": "string",
          "name": "str",
          "type": "string"
        }
      ],
      "name": "StringTooLong",
      "type": "error"
    },
    {
      "anonymous": false,
      "inputs": [
        {
          "indexed": true,
          "internalType": "address",
          "name": "owner",
          "type": "address"
        },
        {
          "indexed": true,
          "internalType": "address",
          "name": "spender",
          "type": "address"
        },
        {
          "indexed": false,
          "internalType": "uint256",
          "name": "value",
          "type": "uint256"
        }
      ],
      "name": "Approval",
      "type": "event"
    },
    {
      "anonymous": false,
      "inputs": [],
      "name": "EIP712DomainChanged",
      "type": "event"
    },
    {
      "anonymous": false,
      "inputs": [
        {
          "indexed": true,
          "internalType": "address",
          "name": "previousOwner",
          "type": "address"
        },
        {
          "indexed": true,
          "internalType": "address",
          "name": "newOwner",
          "type": "address"
        }
      ],
      "name": "OwnershipTransferred",
      "type": "event"
    },
    {
      "anonymous": false,
      "inputs": [
        {
          "indexed": true,
          "internalType": "address",
          "name": "user",
          "type": "address"
        },
        {
          "indexed": false,
          "internalType": "uint256",
          "name": "newLevel",
          "type": "uint256"
        }
      ],
      "name": "ProtectionUpdated",
      "type": "event"
    },
    {
      "anonymous": false,
      "inputs": [
        {
          "indexed": true,
          "internalType": "address",
          "name": "owner",
          "type": "address"
        },
        {
          "indexed": false,
          "internalType": "uint256",
          "name": "serialNumber",
          "type": "uint256"
        }
      ],
      "name": "ShieldActivated",
      "type": "event"
    },
    {
      "anonymous": false,
      "inputs": [
        {
          "indexed": true,
          "internalType": "address",
          "name": "owner",
          "type": "address"
        },
        {
          "indexed": false,
          "internalType": "uint256",
          "name": "serialNumber",
          "type": "uint256"
        }
      ],
      "name": "ShieldDeactivated",
      "type": "event"
    },
    {
      "anonymous": false,
      "inputs": [
        {
          "indexed": false,
          "internalType": "uint256",
          "name": "serialNumber",
          "type": "uint256"
        },
        {
          "indexed": true,
          "internalType": "address",
          "name": "by",
          "type": "address"
        }
      ],
      "name": "ShieldFlaggedStolen",
      "type": "event"
    },
    {
      "anonymous": false,
      "inputs": [
        {
          "indexed": true,
          "internalType": "address",
          "name": "owner",
          "type": "address"
        },
        {
          "indexed": false,
          "internalType": "uint256",
          "name": "serialNumber",
          "type": "uint256"
        },
        {
          "indexed": false,
          "internalType": "uint256",
          "name": "protectionLevel",
          "type": "uint256"
        },
        {
          "indexed": false,
          "internalType": "string",
          "name": "metadataURI",
          "type": "string"
        }
      ],
      "name": "ShieldMinted",
      "type": "event"
    },
    {
      "anonymous": false,
      "inputs": [
        {
          "indexed": false,
          "internalType": "uint256",
          "name": "serialNumber",
          "type": "uint256"
        },
        {
          "indexed": true,
          "internalType": "address",
          "name": "by",
          "type": "address"
        }
      ],
      "name": "ShieldRecovered",
      "type": "event"
    },
    {
      "anonymous": false,
      "inputs": [
        {
          "indexed": true,
          "internalType": "address",
          "name": "to",
          "type": "address"
        },
        {
          "indexed": false,
          "internalType": "uint256",
          "name": "amount",
          "type": "uint256"
        },
        {
          "indexed": false,
          "internalType": "uint256",
          "name": "totalMinted",
          "type": "uint256"
        }
      ],
      "name": "StageMint",
      "type": "event"
    },
    {
      "anonymous": false,
      "inputs": [
        {
          "indexed": true,
          "internalType": "address",
          "name": "from",
          "type": "address"
        },
        {
          "indexed": true,
          "internalType": "address",
          "name": "to",
          "type": "address"
        },
        {
          "indexed": false,
          "internalType": "uint256",
          "name": "value",
          "type": "uint256"
        }
      ],
      "name": "Transfer",
      "type": "event"
    },
    {
      "inputs": [],
      "name": "DOMAIN_SEPARATOR",
      "outputs": [
        {
          "internalType": "bytes32",
          "name": "",
          "type": "bytes32"
        }
      ],
      "stateMutability": "view",
      "type": "function"
    },
    {
      "inputs": [],
      "name": "INITIAL_STAGE_SUPPLY",
      "outputs": [
        {
          "internalType": "uint256",
          "name": "",
          "type": "uint256"
        }
      ],
      "stateMutability": "view",
      "type": "function"
    },
    {
      "inputs": [],
      "name": "MAX_SUPPLY",
      "outputs": [
        {
          "internalType": "uint256",
          "name": "",
          "type": "uint256"
        }
      ],
      "stateMutability": "view",
      "type": "function"
    },
    {
      "inputs": [
        {
          "internalType": "address",
          "name": "owner",
          "type": "address"
        },
        {
          "internalType": "address",
          "name": "spender",
          "type": "address"
        }
      ],
      "name": "allowance",
      "outputs": [
        {
          "internalType": "uint256",
          "name": "",
          "type": "uint256"
        }
      ],
      "stateMutability": "view",
      "type": "function"
    },
    {
      "inputs": [
        {
          "internalType": "address",
          "name": "spender",
          "type": "address"
        },
        {
          "internalType": "uint256",
          "name": "value",
          "type": "uint256"
        }
      ],
      "name": "approve",
      "outputs": [
        {
          "internalType": "bool",
          "name": "",
          "type": "bool"
        }
      ],
      "stateMutability": "nonpayable",
      "type": "function"
    },
    {
      "inputs": [
        {
          "internalType": "address",
          "name": "account",
          "type": "address"
        }
      ],
      "name": "balanceOf",
      "outputs": [
        {
          "internalType": "uint256",
          "name": "",
          "type": "uint256"
        }
      ],
      "stateMutability": "view",
      "type": "function"
    },
    {
      "inputs": [
        {
          "internalType": "uint256",
          "name": "value",
          "type": "uint256"
        }
      ],
      "name": "burn",
      "outputs": [],
      "stateMutability": "nonpayable",
      "type": "function"
    },
    {
      "inputs": [
        {
          "internalType": "address",
          "name": "account",
          "type": "address"
        },
        {
          "internalType": "uint256",
          "name": "value",
          "type": "uint256"
        }
      ],
      "name": "burnFrom",
      "outputs": [],
      "stateMutability": "nonpayable",
      "type": "function"
    },
    {
      "inputs": [],
      "name": "decimals",
      "outputs": [
        {
          "internalType": "uint8",
          "name": "",
          "type": "uint8"
        }
      ],
      "stateMutability": "view",
      "type": "function"
    },
    {
      "inputs": [],
      "name": "eip712Domain",
      "outputs": [
        {
          "internalType": "bytes1",
          "name": "fields",
          "type": "bytes1"
        },
        {
          "internalType": "string",
          "name": "name",
          "type": "string"
        },
        {
          "internalType": "string",
          "name": "version",
          "type": "string"
        },
        {
          "internalType": "uint256",
          "name": "chainId",
          "type": "uint256"
        },
        {
          "internalType": "address",
          "name": "verifyingContract",
          "type": "address"
        },
        {
          "internalType": "bytes32",
          "name": "salt",
          "type": "bytes32"
        },
        {
          "internalType": "uint256[]",
          "name": "extensions",
          "type": "uint256[]"
        }
      ],
      "stateMutability": "view",
      "type": "function"
    },
    {
      "inputs": [
        {
          "internalType": "uint256",
          "name": "serialNumber",
          "type": "uint256"
        }
      ],
      "name": "flagShieldStolen",
      "outputs": [],
      "stateMutability": "nonpayable",
      "type": "function"
    },
    {
      "inputs": [
        {
          "internalType": "address",
          "name": "user",
          "type": "address"
        }
      ],
      "name": "getActiveShieldCount",
      "outputs": [
        {
          "internalType": "uint256",
          "name": "",
          "type": "uint256"
        }
      ],
      "stateMutability": "view",
      "type": "function"
    },
    {
      "inputs": [
        {
          "internalType": "address",
          "name": "user",
          "type": "address"
        }
      ],
      "name": "getProtectionInfo",
      "outputs": [
        {
          "internalType": "bool",
          "name": "protected",
          "type": "bool"
        },
        {
          "internalType": "uint256",
          "name": "level",
          "type": "uint256"
        },
        {
          "internalType": "uint256",
          "name": "activeShields",
          "type": "uint256"
        }
      ],
      "stateMutability": "view",
      "type": "function"
    },
    {
      "inputs": [
        {
          "internalType": "uint256",
          "name": "serialNumber",
          "type": "uint256"
        }
      ],
      "name": "getShieldInfo",
      "outputs": [
        {
          "components": [
            {
              "internalType": "uint256",
              "name": "tokenId",
              "type": "uint256"
            },
            {
              "internalType": "uint256",
              "name": "serialNumber",
              "type": "uint256"
            },
            {
              "internalType": "string",
              "name": "metadataURI",
              "type": "string"
            },
            {
              "internalType": "bool",
              "name": "isActive",
              "type": "bool"
            },
            {
              "internalType": "uint256",
              "name": "protectionLevel",
              "type": "uint256"
            },
            {
              "internalType": "uint256",
              "name": "createdAt",
              "type": "uint256"
            },
            {
              "internalType": "bool",
              "name": "isStolen",
              "type": "bool"
            }
          ],
          "internalType": "struct GuardianToken.Shield",
          "name": "",
          "type": "tuple"
        }
      ],
      "stateMutability": "view",
      "type": "function"
    },
    {
      "inputs": [
        {
          "internalType": "address",
          "name": "user",
          "type": "address"
        }
      ],
      "name": "getUserShields",
      "outputs": [
        {
          "components": [
            {
              "internalType": "uint256",
              "name": "tokenId",
              "type": "uint256"
            },
            {
              "internalType": "uint256",
              "name": "serialNumber",
              "type": "uint256"
            },
            {
              "internalType": "string",
              "name": "metadataURI",
              "type": "string"
            },
            {
              "internalType": "bool",
              "name": "isActive",
              "type": "bool"
            },
            {
              "internalType": "uint256",
              "name": "protectionLevel",
              "type": "uint256"
            },
            {
              "internalType": "uint256",
              "name": "createdAt",
              "type": "uint256"
            },
            {
              "internalType": "bool",
              "name": "isStolen",
              "type": "bool"
            }
          ],
          "internalType": "struct GuardianToken.Shield[]",
          "name": "",
          "type": "tuple[]"
        }
      ],
      "stateMutability": "view",
      "type": "function"
    },
    {
      "inputs": [
        {
          "internalType": "address",
          "name": "",
          "type": "address"
        }
      ],
      "name": "isProtected",
      "outputs": [
        {
          "internalType": "bool",
          "name": "",
          "type": "bool"
        }
      ],
      "stateMutability": "view",
      "type": "function"
    },
    {
      "inputs": [],
      "name": "maxShieldsPerUser",
      "outputs": [
        {
          "internalType": "uint256",
          "name": "",
          "type": "uint256"
        }
      ],
      "stateMutability": "view",
      "type": "function"
    },
    {
      "inputs": [
        {
          "internalType": "uint256",
          "name": "serialNumber",
          "type": "uint256"
        },
        {
          "internalType": "string",
          "name": "metadataURI",
          "type": "string"
        },
        {
          "internalType": "uint256",
          "name": "protectionLevel_",
          "type": "uint256"
        }
      ],
      "name": "mintShield",
      "outputs": [],
      "stateMutability": "nonpayable",
      "type": "function"
    },
    {
      "inputs": [
        {
          "internalType": "address",
          "name": "to",
          "type": "address"
        },
        {
          "internalType": "uint256",
          "name": "amount",
          "type": "uint256"
        }
      ],
      "name": "mintStage",
      "outputs": [],
      "stateMutability": "nonpayable",
      "type": "function"
    },
    {
      "inputs": [],
      "name": "name",
      "outputs": [
        {
          "internalType": "string",
          "name": "",
          "type": "string"
        }
      ],
      "stateMutability": "view",
      "type": "function"
    },
    {
      "inputs": [
        {
          "internalType": "address",
          "name": "owner",
          "type": "address"
        }
      ],
      "name": "nonces",
      "outputs": [
        {
          "internalType": "uint256",
          "name": "",
          "type": "uint256"
        }
      ],
      "stateMutability": "view",
      "type": "function"
    },
    {
      "inputs": [],
      "name": "owner",
      "outputs": [
        {
          "internalType": "address",
          "name": "",
          "type": "address"
        }
      ],
      "stateMutability": "view",
      "type": "function"
    },
    {
      "inputs": [
        {
          "internalType": "address",
          "name": "owner",
          "type": "address"
        },
        {
          "internalType": "address",
          "name": "spender",
          "type": "address"
        },
        {
          "internalType": "uint256",
          "name": "value",
          "type": "uint256"
        },
        {
          "internalType": "uint256",
          "name": "deadline",
          "type": "uint256"
        },
        {
          "internalType": "uint8",
          "name": "v",
          "type": "uint8"
        },
        {
          "internalType": "bytes32",
          "name": "r",
          "type": "bytes32"
        },
        {
          "internalType": "bytes32",
          "name": "s",
          "type": "bytes32"
        }
      ],
      "name": "permit",
      "outputs": [],
      "stateMutability": "nonpayable",
      "type": "function"
    },
    {
      "inputs": [
        {
          "internalType": "address",
          "name": "",
          "type": "address"
        }
      ],
      "name": "protectionLevel",
      "outputs": [
        {
          "internalType": "uint256",
          "name": "",
          "type": "uint256"
        }
      ],
      "stateMutability": "view",
      "type": "function"
    },
    {
      "inputs": [
        {
          "internalType": "uint256",
          "name": "serialNumber",
          "type": "uint256"
        }
      ],
      "name": "recoverShield",
      "outputs": [],
      "stateMutability": "nonpayable",
      "type": "function"
    },
    {
      "inputs": [],
      "name": "renounceOwnership",
      "outputs": [],
      "stateMutability": "nonpayable",
      "type": "function"
    },
    {
      "inputs": [
        {
          "internalType": "uint256",
          "name": "newMax",
          "type": "uint256"
        }
      ],
      "name": "setMaxShieldsPerUser",
      "outputs": [],
      "stateMutability": "nonpayable",
      "type": "function"
    },
    {
      "inputs": [
        {
          "internalType": "uint256",
          "name": "newCost",
          "type": "uint256"
        }
      ],
      "name": "setShieldMintCost",
      "outputs": [],
      "stateMutability": "nonpayable",
      "type": "function"
    },
    {
      "inputs": [],
      "name": "shieldMintCost",
      "outputs": [
        {
          "internalType": "uint256",
          "name": "",
          "type": "uint256"
        }
      ],
      "stateMutability": "view",
      "type": "function"
    },
    {
      "inputs": [
        {
          "internalType": "uint256",
          "name": "",
          "type": "uint256"
        }
      ],
      "name": "shieldOwner",
      "outputs": [
        {
          "internalType": "address",
          "name": "",
          "type": "address"
        }
      ],
      "stateMutability": "view",
      "type": "function"
    },
    {
      "inputs": [
        {
          "internalType": "uint256",
          "name": "",
          "type": "uint256"
        }
      ],
      "name": "shields",
      "outputs": [
        {
          "internalType": "uint256",
          "name": "tokenId",
          "type": "uint256"
        },
        {
          "internalType": "uint256",
          "name": "serialNumber",
          "type": "uint256"
        },
        {
          "internalType": "string",
          "name": "metadataURI",
          "type": "string"
        },
        {
          "internalType": "bool",
          "name": "isActive",
          "type": "bool"
        },
        {
          "internalType": "uint256",
          "name": "protectionLevel",
          "type": "uint256"
        },
        {
          "internalType": "uint256",
          "name": "createdAt",
          "type": "uint256"
        },
        {
          "internalType": "bool",
          "name": "isStolen",
          "type": "bool"
        }
      ],
      "stateMutability": "view",
      "type": "function"
    },
    {
      "inputs": [],
      "name": "symbol",
      "outputs": [
        {
          "internalType": "string",
          "name": "",
          "type": "string"
        }
      ],
      "stateMutability": "view",
      "type": "function"
    },
    {
      "inputs": [
        {
          "internalType": "uint256",
          "name": "serialNumber",
          "type": "uint256"
        }
      ],
      "name": "toggleShield",
      "outputs": [],
      "stateMutability": "nonpayable",
      "type": "function"
    },
    {
      "inputs": [],
      "name": "totalMinted",
      "outputs": [
        {
          "internalType": "uint256",
          "name": "",
          "type": "uint256"
        }
      ],
      "stateMutability": "view",
      "type": "function"
    },
    {
      "inputs": [],
      "name": "totalSupply",
      "outputs": [
        {
          "internalType": "uint256",
          "name": "",
          "type": "uint256"
        }
      ],
      "stateMutability": "view",
      "type": "function"
    },
    {
      "inputs": [
        {
          "internalType": "address",
          "name": "to",
          "type": "address"
        },
        {
          "internalType": "uint256",
          "name": "amount",
          "type": "uint256"
        }
      ],
      "name": "transfer",
      "outputs": [
        {
          "internalType": "bool",
          "name": "",
          "type": "bool"
        }
      ],
      "stateMutability": "nonpayable",
      "type": "function"
    },
    {
      "inputs": [
        {
          "internalType": "address",
          "name": "from",
          "type": "address"
        },
        {
          "internalType": "address",
          "name": "to",
          "type": "address"
        },
        {
          "internalType": "uint256",
          "name": "amount",
          "type": "uint256"
        }
      ],
      "name": "transferFrom",
      "outputs": [
        {
          "internalType": "bool",
          "name": "",
          "type": "bool"
        }
      ],
      "stateMutability": "nonpayable",
      "type": "function"
    },
    {
      "inputs": [
        {
          "internalType": "address",
          "name": "newOwner",
          "type": "address"
        }
      ],
      "name": "transferOwnership",
      "outputs": [],
      "stateMutability": "nonpayable",
      "type": "function"
    },
    {
      "inputs": [
        {
          "internalType": "address",
          "name": "",
          "type": "address"
        },
        {
          "internalType": "uint256",
          "name": "",
          "type": "uint256"
        }
      ],
      "name": "userShields",
      "outputs": [
        {
          "internalType": "uint256",
          "name": "tokenId",
          "type": "uint256"
        },
        {
          "internalType": "uint256",
          "name": "serialNumber",
          "type": "uint256"
        },
        {
          "internalType": "string",
          "name": "metadataURI",
          "type": "string"
        },
        {
          "internalType": "bool",
          "name": "isActive",
          "type": "bool"
        },
        {
          "internalType": "uint256",
          "name": "protectionLevel",
          "type": "uint256"
        },
        {
          "internalType": "uint256",
          "name": "createdAt",
          "type": "uint256"
        },
        {
          "internalType": "bool",
          "name": "isStolen",
          "type": "bool"
        }
      ],
      "stateMutability": "view",
      "type": "function"
    }
  ],
  "bytecode": "0x6101606040526001601055683635c9adc5dea00000601155600a60125534801561002857600080fd5b5060405161302738038061302783398101604081905261004791610477565b806040518060400160405280600e81526020016d23bab0b93234b0b7102a37b5b2b760911b81525080604051806040016040528060018152602001603160f81b8152506040518060400160405280600e81526020016d23bab0b93234b0b7102a37b5b2b760911b8152506040518060400160405280600581526020016411d550549160da1b81525081600390816100de9190610546565b5060046100eb8282610546565b506100fb91508390506005610250565b6101205261010a816006610250565b61014052815160208084019190912060e052815190820120610100524660a05261019760e05161010051604080517f8b73c3c69bb8fe3d512ecc4cf759cc79239f7b179b0ffacaa9a75d522b39400f60208201529081019290925260608201524660808201523060a082015260009060c00160405160208183030381529060405280519060200120905090565b60805250503060c052506001600160a01b0381166101d057604051631e4fbdf760e01b8152600060048201526024015b60405180910390fd5b6101d981610283565b5060016009556101f4816af8277896582678ac0000006102d5565b6af8277896582678ac000000600a8190556040805182815260208101929092526001600160a01b038316917f1cabfe0c1a8cdd5816d44985b8bda15adb1be806350d8de8699fcb62a701c80c910160405180910390a250610697565b600060208351101561026c576102658361030f565b905061027d565b816102778482610546565b5060ff90505b92915050565b600880546001600160a01b038381166001600160a01b0319831681179093556040519116919082907f8be0079c531659141344cd1fd0a4f28419497f9722a3daafe3b4186f6b6457e090600090a35050565b6001600160a01b0382166102ff5760405163ec442f0560e01b8152600060048201526024016101c7565b61030b6000838361034d565b5050565b600080829050601f8151111561033a578260405163305a27a960e01b81526004016101c79190610604565b805161034582610652565b179392505050565b6001600160a01b03831661037857806002600082825461036d9190610676565b909155506103ea9050565b6001600160a01b038316600090815260208190526040902054818110156103cb5760405163391434e360e21b81526001600160a01b038516600482015260248101829052604481018390526064016101c7565b6001600160a01b03841660009081526020819052604090209082900390555b6001600160a01b03821661040657600280548290039055610425565b6001600160a01b03821660009081526020819052604090208054820190555b816001600160a01b0316836001600160a01b03167fddf252ad1be2c89b69c2b068fc378daa952ba7f163c4a11628f55a4df523b3ef8360405161046a91815260200190565b60405180910390a3505050565b60006020828403121561048957600080fd5b81516001600160a01b03811681146104a057600080fd5b9392505050565b634e487b7160e01b600052604160045260246000fd5b600181811c908216806104d157607f821691505b6020821081036104f157634e487b7160e01b600052602260045260246000fd5b50919050565b601f82111561054157806000526020600020601f840160051c8101602085101561051e5750805b601f840160051c820191505b8181101561053e576000815560010161052a565b50505b505050565b81516001600160401b0381111561055f5761055f6104a7565b6105738161056d84546104bd565b846104f7565b6020601f8211600181146105a7576000831561058f5750848201515b600019600385901b1c1916600184901b17845561053e565b600084815260208120601f198516915b828110156105d757878501518255602094850194600190920191016105b7565b50848210156105f55786840151600019600387901b60f8161c191681555b50505050600190811b01905550565b602081526000825180602084015260005b818110156106325760208186018101516040868401015201610615565b506000604082850101526040601f19601f83011684010191505092915050565b805160208083015191908110156104f15760001960209190910360031b1b16919050565b8082018082111561027d57634e487b7160e01b600052601160045260246000fd5b60805160a05160c05160e0516101005161012051610140516129366106f16000396000611cb001526000611c8301526000611b5a01526000611b3201526000611a8d01526000611ab701526000611ae101526129366000f3fe608060405234801561001057600080fd5b506004361061023d5760003560e01c8063715018a61161013b578063a9059cbb116100b8578063e6c74f081161007c578063e6c74f0814610567578063ef9b7ce21461057a578063f2fde38b14610583578063f862ab1b14610596578063fc73e8d0146105a957600080fd5b8063a9059cbb146104d2578063b8822018146104e5578063ce35de95146104f8578063d505accf1461051b578063dd62ed3e1461052e57600080fd5b80638da5cb5b116100ff5780638da5cb5b1461045657806395d89b411461047b5780639cb0a1ac146104835780639ebf3cbd146104a9578063a2309ff8146104c957600080fd5b8063715018a6146103fa57806379cc6790146104025780637ecebe00146104155780638294a42d1461042857806384b0196e1461043b57600080fd5b806324adecb4116101c9578063391227fb1161018d578063391227fb146103795780633e2b009d146103995780633e4afd20146103ac57806342966c68146103be57806370a08231146103d157600080fd5b806324adecb414610316578063313ce5671461034657806332cb6b0c146103555780633644e51514610368578063367e27fc1461037057600080fd5b8063128839eb11610210578063128839eb146102ab57806318160ddd146102be5780631c83ac32146102d05780631e27b2eb146102f057806323b872dd1461030357600080fd5b806306fdde031461024257806308e2b12e14610260578063095ea7b3146102755780630fff158214610298575b600080fd5b61024a6105d2565b60405161025791906122b3565b60405180910390f35b61027361026e3660046122c6565b610664565b005b6102886102833660046122fb565b6107fe565b6040519015158152602001610257565b6102736102a63660046122c6565b610818565b6102736102b93660046122c6565b6108a3565b6002545b604051908152602001610257565b6102e36102de366004612325565b6109a1565b60405161025791906123a1565b6102736102fe36600461241c565b610af4565b6102886103113660046124e9565b610e50565b610329610324366004612325565b610ef8565b604080519315158452602084019290925290820152606001610257565b60405160128152602001610257565b6102c26b1027e72f1f1281308800000081565b6102c2610f94565b6102c260125481565b6102c2610387366004612325565b600f6020526000908152604090205481565b6102c26103a7366004612325565b610fa3565b6102c26af8277896582678ac00000081565b6102736103cc3660046122c6565b611161565b6102c26103df366004612325565b6001600160a01b031660009081526020819052604090205490565b61027361116e565b6102736104103660046122fb565b611182565b6102c2610423366004612325565b61119b565b6102736104363660046122c6565b6111b9565b6104436111c6565b6040516102579796959493929190612526565b6008546001600160a01b03165b6040516001600160a01b039091168152602001610257565b61024a61120c565b6104966104913660046122fb565b61121b565b60405161025797969594939291906125be565b6104bc6104b73660046122c6565b611309565b6040516102579190612605565b6102c2600a5481565b6102886104e03660046122fb565b61144c565b6102736104f33660046122c6565b6114cd565b610288610506366004612325565b600e6020526000908152604090205460ff1681565b610273610529366004612618565b6114da565b6102c261053c36600461268b565b6001600160a01b03918216600090815260016020908152604080832093909416825291909152205490565b6102736105753660046122fb565b611614565b6102c260115481565b610273610591366004612325565b6116e6565b6104966105a43660046122c6565b611721565b6104636105b73660046122c6565b600c602052600090815260409020546001600160a01b031681565b6060600380546105e1906126be565b80601f016020809104026020016040519081016040528092919081815260200182805461060d906126be565b801561065a5780601f1061062f5761010080835404028352916020019161065a565b820191906000526020600020905b81548152906001019060200180831161063d57829003601f168201915b5050505050905090565b6000818152600c60205260409020546001600160a01b031633146106c25760405162461bcd60e51b815260206004820152601060248201526f2737ba1039b434b2b6321037bbb732b960811b60448201526064015b60405180910390fd5b6000818152600d6020908152604080832060038101805460ff19811660ff90911615179055338452600b909252822090915b81548110156107755783828281548110610710576107106126f8565b9060005260206000209060070201600101540361076d576003830154825460ff90911690839083908110610746576107466126f8565b60009182526020909120600790910201600301805460ff1916911515919091179055610775565b6001016106f4565b5061077f33611749565b600382015460ff16156107c75760405183815233907fe9413f3885abe2a330f2b4ed3086de0c0c5a84fb24bd0a98ab93045e303af4ac906020015b60405180910390a2505050565b60405183815233907f1f1151398954938b5251fb48679d0dfd65743488323549ef0cf1fd23c4b77a1a906020016107ba565b505050565b60003361080c8185856119c2565b60019150505b92915050565b6108206119cf565b6000818152600d6020908152604080832060068101805460ff199081169091556003820180549091166001179055600c90925290912054610869906001600160a01b0316611749565b60405182815233907fbe56ed6b62485f6f51efeb4b9eba3197546e5bb67e4c7c910393c5cd3cb27ae8906020015b60405180910390a25050565b6000818152600c60205260409020546001600160a01b03163314806108e15750336108d66008546001600160a01b031690565b6001600160a01b0316145b6109265760405162461bcd60e51b81526020600482015260166024820152754e6f7420617574686f72697a656420746f20666c616760501b60448201526064016106b9565b6000818152600d6020908152604080832060068101805460ff199081166001179091556003820180549091169055600c9092529091205461096f906001600160a01b0316611749565b60405182815233907f2ce6dd2981eff15554a7667f00104b200c010c4c3fb5aa8c6a9327fbbf4975e690602001610897565b6001600160a01b0381166000908152600b60209081526040808320805482518185028101850190935280835260609492939192909184015b82821015610ae957838290600052602060002090600702016040518060e00160405290816000820154815260200160018201548152602001600282018054610a20906126be565b80601f0160208091040260200160405190810160405280929190818152602001828054610a4c906126be565b8015610a995780601f10610a6e57610100808354040283529160200191610a99565b820191906000526020600020905b815481529060010190602001808311610a7c57829003601f168201915b5050509183525050600382015460ff9081161515602080840191909152600484015460408401526005840154606084015260069093015416151560809091015290825260019290920191016109d9565b505050509050919050565b610afc6119fc565b601154336000908152602081905260409020541015610b5d5760405162461bcd60e51b815260206004820152601960248201527f496e73756666696369656e7420475541524420746f6b656e730000000000000060448201526064016106b9565b6000838152600c60205260409020546001600160a01b031615610bc25760405162461bcd60e51b815260206004820152601a60248201527f53657269616c206e756d62657220616c7265616479207573656400000000000060448201526064016106b9565b600081118015610bd3575060648111155b610c1f5760405162461bcd60e51b815260206004820152601860248201527f496e76616c69642070726f74656374696f6e206c6576656c000000000000000060448201526064016106b9565b601254336000908152600b602052604090205410610c7f5760405162461bcd60e51b815260206004820152601d60248201527f4d617820736869656c647320706572207573657220657863656564656400000060448201526064016106b9565b610c8b33601154611a26565b6040805160e08101825260105481526020808201868152828401868152600160608501819052608085018790524260a0860152600060c08601819052898152600d909452949092208351815590519381019390935551909182916002820190610cf4908261275c565b50606082015160038201805491151560ff199283161790556080830151600483015560a0830151600583015560c09092015160069091018054911515919092161790556000848152600c6020908152604080832080546001600160a01b031916339081179091558352600b825280832080546001818101835591855293839020855160079095020193845591840151918301919091558201518291906002820190610d9f908261275c565b50606082015160038201805491151560ff199283161790556080830151600483015560a0830151600583015560c0909201516006909101805491151591909216179055610deb33611749565b60108054906000610dfb83612831565b9190505550336001600160a01b03167f8f47d2e241546db1ad22a9e9dd5ab5e5dac8d286b3e0ccad284b701b97c84d06858486604051610e3d9392919061284a565b60405180910390a2506107f96001600955565b6001600160a01b0383166000908152600e602052604081205460ff168015610e8f57506001600160a01b0384166000908152600f602052604090205415155b15610ee3576001600160a01b0384166000908152600f6020526040812054606490610eba9082612872565b610ec49085612885565b610ece919061289c565b9050610edb858583611a5c565b915050610ef1565b610eee848484611a5c565b90505b9392505050565b6001600160a01b0381166000818152600e6020908152604080832054600f909252808320549051633e2b009d60e01b8152600481019490945291928392839260ff16913090633e2b009d90602401602060405180830381865afa158015610f63573d6000803e3d6000fd5b505050506040513d601f19601f82011682018060405250810190610f8791906128be565b9250925092509193909250565b6000610f9e611a80565b905090565b6001600160a01b0381166000908152600b6020908152604080832080548251818502810185019093528083528493849084015b828210156110e657838290600052602060002090600702016040518060e0016040529081600082015481526020016001820154815260200160028201805461101d906126be565b80601f0160208091040260200160405190810160405280929190818152602001828054611049906126be565b80156110965780601f1061106b57610100808354040283529160200191611096565b820191906000526020600020905b81548152906001019060200180831161107957829003601f168201915b5050509183525050600382015460ff908116151560208084019190915260048401546040840152600584015460608401526006909301541615156080909101529082526001929092019101610fd6565b5050505090506000805b82518110156111595782818151811061110b5761110b6126f8565b602002602001015160600151801561113e5750828181518110611130576111306126f8565b602002602001015160c00151155b15611151578161114d81612831565b9250505b6001016110f0565b509392505050565b61116b3382611a26565b50565b6111766119cf565b6111806000611bab565b565b61118d823383611bfd565b6111978282611a26565b5050565b6001600160a01b038116600090815260076020526040812054610812565b6111c16119cf565b601155565b6000606080600080600060606111da611c7c565b6111e2611ca9565b60408051600080825260208201909252600f60f81b9b939a50919850469750309650945092509050565b6060600480546105e1906126be565b600b602052816000526040600020818154811061123757600080fd5b906000526020600020906007020160009150915050806000015490806001015490806002018054611267906126be565b80601f0160208091040260200160405190810160405280929190818152602001828054611293906126be565b80156112e05780601f106112b5576101008083540402835291602001916112e0565b820191906000526020600020905b8154815290600101906020018083116112c357829003601f168201915b505050600384015460048501546005860154600690960154949560ff9283169591945092501687565b61134d6040518060e0016040528060008152602001600081526020016060815260200160001515815260200160008152602001600081526020016000151581525090565b600d60008381526020019081526020016000206040518060e0016040529081600082015481526020016001820154815260200160028201805461138f906126be565b80601f01602080910402602001604051908101604052809291908181526020018280546113bb906126be565b80156114085780601f106113dd57610100808354040283529160200191611408565b820191906000526020600020905b8154815290600101906020018083116113eb57829003601f168201915b5050509183525050600382015460ff908116151560208301526004830154604083015260058301546060830152600690920154909116151560809091015292915050565b336000908152600e602052604081205460ff1680156114795750336000908152600f602052604090205415155b156114c357336000908152600f602052604081205460649061149b9082612872565b6114a59085612885565b6114af919061289c565b90506114bb8482611cd6565b915050610812565b610ef18383611cd6565b6114d56119cf565b601255565b834211156114fe5760405163313c898160e11b8152600481018590526024016106b9565b60007f6e71edae12b1b97f4d1f60370fef10105fa2faae0126114a169c64845d6126c988888861154b8c6001600160a01b0316600090815260076020526040902080546001810190915590565b6040805160208101969096526001600160a01b0394851690860152929091166060840152608083015260a082015260c0810186905260e00160405160208183030381529060405280519060200120905060006115a682611ce4565b905060006115b682878787611d11565b9050896001600160a01b0316816001600160a01b0316146115fd576040516325c0072360e11b81526001600160a01b0380831660048301528b1660248201526044016106b9565b6116088a8a8a6119c2565b50505050505050505050565b61161c6119cf565b6b1027e72f1f128130880000008161163360025490565b61163d91906128d7565b11156116805760405162461bcd60e51b815260206004820152601260248201527145786365656473206d617820737570706c7960701b60448201526064016106b9565b61168a8282611d3f565b80600a600082825461169c91906128d7565b9091555050600a546040516001600160a01b038416917f1cabfe0c1a8cdd5816d44985b8bda15adb1be806350d8de8699fcb62a701c80c9161089791858252602082015260400190565b6116ee6119cf565b6001600160a01b03811661171857604051631e4fbdf760e01b8152600060048201526024016106b9565b61116b81611bab565b600d6020526000908152604090208054600182015460028301805492939192611267906126be565b6001600160a01b0381166000908152600b6020908152604080832080548251818502810185019093528083529192909190849084015b8282101561188f57838290600052602060002090600702016040518060e001604052908160008201548152602001600182015481526020016002820180546117c6906126be565b80601f01602080910402602001604051908101604052809291908181526020018280546117f2906126be565b801561183f5780601f106118145761010080835404028352916020019161183f565b820191906000526020600020905b81548152906001019060200180831161182257829003601f168201915b5050509183525050600382015460ff90811615156020808401919091526004840154604084015260058401546060840152600690930154161515608090910152908252600192909201910161177f565b50505050905060008060005b835181101561192f578381815181106118b6576118b66126f8565b60200260200101516060015180156118e957508381815181106118db576118db6126f8565b602002602001015160c00151155b1561192757838181518110611900576119006126f8565b6020026020010151608001518361191791906128d7565b92508161192381612831565b9250505b60010161189b565b50600080821161194057600061194a565b61194a828461289c565b90506064811115611959575060645b6001600160a01b0385166000818152600f60209081526040808320859055600e825291829020805460ff191685151517905590518381527ff1647a2489de477d6d111f3ccd9b0e6e6743657da8f1ce1289754458cc9efa5d910160405180910390a25050505050565b6107f98383836001611d75565b6008546001600160a01b031633146111805760405163118cdaa760e01b81523360048201526024016106b9565b600260095403611a1f57604051633ee5aeb560e01b815260040160405180910390fd5b6002600955565b6001600160a01b038216611a5057604051634b637e8f60e11b8152600060048201526024016106b9565b61119782600083611e4a565b600033611a6a858285611bfd565b611a75858585611f74565b506001949350505050565b6000306001600160a01b037f000000000000000000000000000000000000000000000000000000000000000016148015611ad957507f000000000000000000000000000000000000000000000000000000000000000046145b15611b0357507f000000000000000000000000000000000000000000000000000000000000000090565b610f9e604080517f8b73c3c69bb8fe3d512ecc4cf759cc79239f7b179b0ffacaa9a75d522b39400f60208201527f0000000000000000000000000000000000000000000000000000000000000000918101919091527f000000000000000000000000000000000000000000000000000000000000000060608201524660808201523060a082015260009060c00160405160208183030381529060405280519060200120905090565b600880546001600160a01b038381166001600160a01b0319831681179093556040519116919082907f8be0079c531659141344cd1fd0a4f28419497f9722a3daafe3b4186f6b6457e090600090a35050565b6001600160a01b03838116600090815260016020908152604080832093861683529290522054600019811015611c765781811015611c6757604051637dc7a0d960e11b81526001600160a01b038416600482015260248101829052604481018390526064016106b9565b611c7684848484036000611d75565b50505050565b6060610f9e7f00000000000000000000000000000000000000000000000000000000000000006005611fd3565b6060610f9e7f00000000000000000000000000000000000000000000000000000000000000006006611fd3565b60003361080c818585611f74565b6000610812611cf1611a80565b8360405161190160f01b8152600281019290925260228201526042902090565b600080600080611d238888888861207e565b925092509250611d33828261214d565b50909695505050505050565b6001600160a01b038216611d695760405163ec442f0560e01b8152600060048201526024016106b9565b61119760008383611e4a565b6001600160a01b038416611d9f5760405163e602df0560e01b8152600060048201526024016106b9565b6001600160a01b038316611dc957604051634a1406b160e11b8152600060048201526024016106b9565b6001600160a01b0380851660009081526001602090815260408083209387168352929052208290558015611c7657826001600160a01b0316846001600160a01b03167f8c5be1e5ebec7d5bd14f71427d1e84f3dd0314c0f7b2291e5b200ac8c7c3b92584604051611e3c91815260200190565b60405180910390a350505050565b6001600160a01b038316611e75578060026000828254611e6a91906128d7565b90915550611ee79050565b6001600160a01b03831660009081526020819052604090205481811015611ec85760405163391434e360e21b81526001600160a01b038516600482015260248101829052604481018390526064016106b9565b6001600160a01b03841660009081526020819052604090209082900390555b6001600160a01b038216611f0357600280548290039055611f22565b6001600160a01b03821660009081526020819052604090208054820190555b816001600160a01b0316836001600160a01b03167fddf252ad1be2c89b69c2b068fc378daa952ba7f163c4a11628f55a4df523b3ef83604051611f6791815260200190565b60405180910390a3505050565b6001600160a01b038316611f9e57604051634b637e8f60e11b8152600060048201526024016106b9565b6001600160a01b038216611fc85760405163ec442f0560e01b8152600060048201526024016106b9565b6107f9838383611e4a565b606060ff8314611fed57611fe683612206565b9050610812565b818054611ff9906126be565b80601f0160208091040260200160405190810160405280929190818152602001828054612025906126be565b80156120725780601f1061204757610100808354040283529160200191612072565b820191906000526020600020905b81548152906001019060200180831161205557829003601f168201915b50505050509050610812565b600080807f7fffffffffffffffffffffffffffffff5d576e7357a4501ddfe92f46681b20a08411156120b95750600091506003905082612143565b604080516000808252602082018084528a905260ff891692820192909252606081018790526080810186905260019060a0016020604051602081039080840390855afa15801561210d573d6000803e3d6000fd5b5050604051601f1901519150506001600160a01b03811661213957506000925060019150829050612143565b9250600091508190505b9450945094915050565b6000826003811115612161576121616128ea565b0361216a575050565b600182600381111561217e5761217e6128ea565b0361219c5760405163f645eedf60e01b815260040160405180910390fd5b60028260038111156121b0576121b06128ea565b036121d15760405163fce698f760e01b8152600481018290526024016106b9565b60038260038111156121e5576121e56128ea565b03611197576040516335e2f38360e21b8152600481018290526024016106b9565b6060600061221383612245565b604080516020808252818301909252919250600091906020820181803683375050509182525060208101929092525090565b600060ff8216601f81111561081257604051632cd44ac360e21b815260040160405180910390fd5b6000815180845260005b8181101561229357602081850181015186830182015201612277565b506000602082860101526020601f19601f83011685010191505092915050565b602081526000610ef1602083018461226d565b6000602082840312156122d857600080fd5b5035919050565b80356001600160a01b03811681146122f657600080fd5b919050565b6000806040838503121561230e57600080fd5b612317836122df565b946020939093013593505050565b60006020828403121561233757600080fd5b610ef1826122df565b80518252602081015160208301526000604082015160e0604085015261236960e085018261226d565b90506060830151151560608501526080830151608085015260a083015160a085015260c0830151151560c08501528091505092915050565b6000602082016020835280845180835260408501915060408160051b86010192506020860160005b828110156123fa57603f198786030184526123e5858351612340565b945060209384019391909101906001016123c9565b50929695505050505050565b634e487b7160e01b600052604160045260246000fd5b60008060006060848603121561243157600080fd5b83359250602084013567ffffffffffffffff81111561244f57600080fd5b8401601f8101861361246057600080fd5b803567ffffffffffffffff81111561247a5761247a612406565b604051601f8201601f19908116603f0116810167ffffffffffffffff811182821017156124a9576124a9612406565b6040528181528282016020018810156124c157600080fd5b8160208401602083013760009181016020019190915293969395505050506040919091013590565b6000806000606084860312156124fe57600080fd5b612507846122df565b9250612515602085016122df565b929592945050506040919091013590565b60ff60f81b8816815260e06020820152600061254560e083018961226d565b8281036040840152612557818961226d565b606084018890526001600160a01b038716608085015260a0840186905283810360c08501528451808252602080870193509091019060005b818110156125ad57835183526020938401939092019160010161258f565b50909b9a5050505050505050505050565b87815286602082015260e0604082015260006125dd60e083018861226d565b951515606083015250608081019390935260a0830191909152151560c0909101529392505050565b602081526000610ef16020830184612340565b600080600080600080600060e0888a03121561263357600080fd5b61263c886122df565b965061264a602089016122df565b95506040880135945060608801359350608088013560ff8116811461266e57600080fd5b9699959850939692959460a0840135945060c09093013592915050565b6000806040838503121561269e57600080fd5b6126a7836122df565b91506126b5602084016122df565b90509250929050565b600181811c908216806126d257607f821691505b6020821081036126f257634e487b7160e01b600052602260045260246000fd5b50919050565b634e487b7160e01b600052603260045260246000fd5b601f8211156107f957806000526020600020601f840160051c810160208510156127355750805b601f840160051c820191505b818110156127555760008155600101612741565b5050505050565b815167ffffffffffffffff81111561277657612776612406565b61278a8161278484546126be565b8461270e565b6020601f8211600181146127be57600083156127a65750848201515b600019600385901b1c1916600184901b178455612755565b600084815260208120601f198516915b828110156127ee57878501518255602094850194600190920191016127ce565b508482101561280c5786840151600019600387901b60f8161c191681555b50505050600190811b01905550565b634e487b7160e01b600052601160045260246000fd5b6000600182016128435761284361281b565b5060010190565b838152826020820152606060408201526000612869606083018461226d565b95945050505050565b818103818111156108125761081261281b565b80820281158282048414176108125761081261281b565b6000826128b957634e487b7160e01b600052601260045260246000fd5b500490565b6000602082840312156128d057600080fd5b5051919050565b808201808211156108125761081261281b565b634e487b7160e01b600052602160045260246000fdfea264697066735822122049b025ffd47398161164e896b3d1380d1d016fc34e5568bbff257e501a34e8b964736f6c634300081f0033",
  "linkReferences": {},
  "deployedLinkReferences": {}
}