{
  "_format": "hh-sol-artifact-1",
  "contractName": "GuardianStaking",
  "sourceName": "contracts/GuardianStaking.sol",
  "abi": [
    {
      "inputs": [
        {
          "internalType": "address",
          "name": "_guardToken",
          "type": "address"
        },
        {
          "internalType": "uint256",
          "name": "_rewardRate",
          "type": "uint256"
        }
      ],
      "stateMutability": "nonpayable",
      "type": "constructor"
    },
    {
      "inputs": [
        {
          "internalType": "address",
          "name": "owner",
          "type": "address"
        }
      ],
      "name": "OwnableInvalidOwner",
      "type": "error"
    },
    {
      "inputs": [
        {
          "internalType": "address",
          "name": "account",
          "type": "address"
        }
      ],
      "name": "OwnableUnauthorizedAccount",
      "type": "error"
    },
    {
      "anonymous": false,
      "inputs": [
        {
          "indexed": true,
          "internalType": "address",
          "name": "previousOwner",
          "type": "address"
        },
        {
          "indexed": true,
          "internalType": "address",
          "name": "newOwner",
          "type": "address"
        }
      ],
      "name": "OwnershipTransferred",
      "type": "event"
    },
    {
      "anonymous": false,
      "inputs": [
        {
          "indexed": true,
          "internalType": "address",
          "name": "user",
          "type": "address"
        },
        {
          "indexed": false,
          "internalType": "uint256",
          "name": "amount",
          "type": "uint256"
        }
      ],
      "name": "RewardClaimed",
      "type": "event"
    },
    {
      "anonymous": false,
      "inputs": [
        {
          "indexed": true,
          "internalType": "address",
          "name": "user",
          "type": "address"
        },
        {
          "indexed": false,
          "internalType": "uint256",
          "name": "amount",
          "type": "uint256"
        }
      ],
      "name": "Staked",
      "type": "event"
    },
    {
      "anonymous": false,
      "inputs": [
        {
          "indexed": true,
          "internalType": "address",
          "name": "user",
          "type": "address"
        },
        {
          "indexed": false,
          "internalType": "uint256",
          "name": "amount",
          "type": "uint256"
        }
      ],
      "name": "Unstaked",
      "type": "event"
    },
    {
      "inputs": [],
      "name": "guardToken",
      "outputs": [
        {
          "internalType": "contract IERC20",
          "name": "",
          "type": "address"
        }
      ],
      "stateMutability": "view",
      "type": "function"
    },
    {
      "inputs": [],
      "name": "owner",
      "outputs": [
        {
          "internalType": "address",
          "name": "",
          "type": "address"
        }
      ],
      "stateMutability": "view",
      "type": "function"
    },
    {
      "inputs": [],
      "name": "renounceOwnership",
      "outputs": [],
      "stateMutability": "nonpayable",
      "type": "function"
    },
    {
      "inputs": [],
      "name": "rewardRate",
      "outputs": [
        {
          "internalType": "uint256",
          "name": "",
          "type": "uint256"
        }
      ],
      "stateMutability": "view",
      "type": "function"
    },
    {
      "inputs": [
        {
          "internalType": "uint256",
          "name": "amount",
          "type": "uint256"
        }
      ],
      "name": "stake",
      "outputs": [],
      "stateMutability": "nonpayable",
      "type": "function"
    },
    {
      "inputs": [
        {
          "internalType": "address",
          "name": "",
          "type": "address"
        }
      ],
      "name": "stakes",
      "outputs": [
        {
          "internalType": "uint256",
          "name": "amount",
          "type": "uint256"
        },
        {
          "internalType": "uint256",
          "name": "rewardDebt",
          "type": "uint256"
        },
        {
          "internalType": "uint256",
          "name": "lastStaked",
          "type": "uint256"
        }
      ],
      "stateMutability": "view",
      "type": "function"
    },
    {
      "inputs": [
        {
          "internalType": "address",
          "name": "newOwner",
          "type": "address"
        }
      ],
      "name": "transferOwnership",
      "outputs": [],
      "stateMutability": "nonpayable",
      "type": "function"
    },
    {
      "inputs": [
        {
          "internalType": "uint256",
          "name": "amount",
          "type": "uint256"
        }
      ],
      "name": "unstake",
      "outputs": [],
      "stateMutability": "nonpayable",
      "type": "function"
    }
  ],
  "bytecode": "0x60a060405234801561001057600080fd5b506040516106e63803806106e683398101604081905261002f916100c5565b338061005557604051631e4fbdf760e01b81526000600482015260240160405180910390fd5b61005e81610075565b506001600160a01b039091166080526001556100ff565b600080546001600160a01b038381166001600160a01b0319831681178455604051919092169283917f8be0079c531659141344cd1fd0a4f28419497f9722a3daafe3b4186f6b6457e09190a35050565b600080604083850312156100d857600080fd5b82516001600160a01b03811681146100ef57600080fd5b6020939093015192949293505050565b6080516105be6101286000396000818161014c01528181610219015261033f01526105be6000f3fe608060405234801561001057600080fd5b50600436106100885760003560e01c80638da5cb5b1161005b5780638da5cb5b1461010f578063a694fc3a14610134578063e56588ef14610147578063f2fde38b1461016e57600080fd5b806316934fc41461008d5780632e17de78146100db578063715018a6146100f05780637b0a47ee146100f8575b600080fd5b6100bb61009b3660046104db565b600260208190526000918252604090912080546001820154919092015483565b604080519384526020840192909252908201526060015b60405180910390f35b6100ee6100e936600461050b565b610181565b005b6100ee6102c8565b61010160015481565b6040519081526020016100d2565b6000546001600160a01b03165b6040516001600160a01b0390911681526020016100d2565b6100ee61014236600461050b565b6102dc565b61011c7f000000000000000000000000000000000000000000000000000000000000000081565b6100ee61017c3660046104db565b610420565b336000908152600260205260409020548111156101d95760405162461bcd60e51b8152602060048201526011602482015270139bdd08195b9bdd59da081cdd185ad959607a1b60448201526064015b60405180910390fd5b33600090815260026020526040812080548392906101f890849061053a565b909155505060405163a9059cbb60e01b8152336004820152602481018290527f00000000000000000000000000000000000000000000000000000000000000006001600160a01b03169063a9059cbb906044016020604051808303816000875af115801561026a573d6000803e3d6000fd5b505050506040513d601f19601f8201168201806040525081019061028e9190610553565b5060405181815233907f0f5bb82176feb1b5e747e28471aa92156a04d9f3ab9f45f28e2d704232b93f75906020015b60405180910390a250565b6102d061045e565b6102da600061048b565b565b6000811161031d5760405162461bcd60e51b815260206004820152600e60248201526d043616e6e6f74207374616b6520360941b60448201526064016101d0565b6040516323b872dd60e01b8152336004820152306024820152604481018290527f00000000000000000000000000000000000000000000000000000000000000006001600160a01b0316906323b872dd906064016020604051808303816000875af1158015610390573d6000803e3d6000fd5b505050506040513d601f19601f820116820180604052508101906103b49190610553565b5033600090815260026020526040812080548392906103d4908490610575565b90915550503360008181526002602081905260409182902042910155517f9e71bc8eea02a63969f509818f2dafb9254532904319f9dbda79b67bd34a5f3d906102bd9084815260200190565b61042861045e565b6001600160a01b03811661045257604051631e4fbdf760e01b8152600060048201526024016101d0565b61045b8161048b565b50565b6000546001600160a01b031633146102da5760405163118cdaa760e01b81523360048201526024016101d0565b600080546001600160a01b038381166001600160a01b0319831681178455604051919092169283917f8be0079c531659141344cd1fd0a4f28419497f9722a3daafe3b4186f6b6457e09190a35050565b6000602082840312156104ed57600080fd5b81356001600160a01b038116811461050457600080fd5b9392505050565b60006020828403121561051d57600080fd5b5035919050565b634e487b7160e01b600052601160045260246000fd5b8181038181111561054d5761054d610524565b92915050565b60006020828403121561056557600080fd5b8151801515811461050457600080fd5b8082018082111561054d5761054d61052456fea2646970667358221220c3b0e09805b7ea11df0aecf7a4d48bcccc5412dbc7127161e1d868b2967dbdb864736f6c634300081f0033",
  "linkReferences": {},
  "deployedLinkReferences": {}
}