{
  "_format": "hh-sol-artifact-1",
  "contractName": "GuardianTreasury",
  "sourceName": "contracts/GuardianTreasury.sol",
  "abi": [
    {
      "inputs": [
        {
          "internalType": "address",
          "name": "_treasurer",
          "type": "address"
        }
      ],
      "stateMutability": "nonpayable",
      "type": "constructor"
    },
    {
      "inputs": [],
      "name": "EnforcedPause",
      "type": "error"
    },
    {
      "inputs": [],
      "name": "ExpectedPause",
      "type": "error"
    },
    {
      "inputs": [
        {
          "internalType": "address",
          "name": "owner",
          "type": "address"
        }
      ],
      "name": "OwnableInvalidOwner",
      "type": "error"
    },
    {
      "inputs": [
        {
          "internalType": "address",
          "name": "account",
          "type": "address"
        }
      ],
      "name": "OwnableUnauthorizedAccount",
      "type": "error"
    },
    {
      "inputs": [],
      "name": "ReentrancyGuardReentrantCall",
      "type": "error"
    },
    {
      "inputs": [
        {
          "internalType": "address",
          "name": "token",
          "type": "address"
        }
      ],
      "name": "SafeERC20FailedOperation",
      "type": "error"
    },
    {
      "anonymous": false,
      "inputs": [
        {
          "indexed": true,
          "internalType": "address",
          "name": "from",
          "type": "address"
        },
        {
          "indexed": false,
          "internalType": "uint256",
          "name": "amount",
          "type": "uint256"
        }
      ],
      "name": "ETHDeposited",
      "type": "event"
    },
    {
      "anonymous": false,
      "inputs": [
        {
          "indexed": true,
          "internalType": "address",
          "name": "token",
          "type": "address"
        },
        {
          "indexed": false,
          "internalType": "uint256",
          "name": "amount",
          "type": "uint256"
        },
        {
          "indexed": false,
          "internalType": "address",
          "name": "to",
          "type": "address"
        }
      ],
      "name": "EmergencyWithdrawal",
      "type": "event"
    },
    {
      "anonymous": false,
      "inputs": [
        {
          "indexed": true,
          "internalType": "address",
          "name": "previousOwner",
          "type": "address"
        },
        {
          "indexed": true,
          "internalType": "address",
          "name": "newOwner",
          "type": "address"
        }
      ],
      "name": "OwnershipTransferred",
      "type": "event"
    },
    {
      "anonymous": false,
      "inputs": [
        {
          "indexed": false,
          "internalType": "address",
          "name": "account",
          "type": "address"
        }
      ],
      "name": "Paused",
      "type": "event"
    },
    {
      "anonymous": false,
      "inputs": [
        {
          "indexed": true,
          "internalType": "address",
          "name": "token",
          "type": "address"
        },
        {
          "indexed": true,
          "internalType": "address",
          "name": "from",
          "type": "address"
        },
        {
          "indexed": false,
          "internalType": "uint256",
          "name": "amount",
          "type": "uint256"
        }
      ],
      "name": "TokenDeposited",
      "type": "event"
    },
    {
      "anonymous": false,
      "inputs": [
        {
          "indexed": true,
          "internalType": "uint256",
          "name": "txId",
          "type": "uint256"
        },
        {
          "indexed": false,
          "internalType": "address",
          "name": "canceller",
          "type": "address"
        }
      ],
      "name": "TransactionCancelled",
      "type": "event"
    },
    {
      "anonymous": false,
      "inputs": [
        {
          "indexed": true,
          "internalType": "uint256",
          "name": "txId",
          "type": "uint256"
        },
        {
          "indexed": true,
          "internalType": "address",
          "name": "signer",
          "type": "address"
        }
      ],
      "name": "TransactionConfirmed",
      "type": "event"
    },
    {
      "anonymous": false,
      "inputs": [
        {
          "indexed": true,
          "internalType": "uint256",
          "name": "txId",
          "type": "uint256"
        },
        {
          "indexed": false,
          "internalType": "address",
          "name": "executor",
          "type": "address"
        }
      ],
      "name": "TransactionExecuted",
      "type": "event"
    },
    {
      "anonymous": false,
      "inputs": [
        {
          "indexed": true,
          "internalType": "uint256",
          "name": "txId",
          "type": "uint256"
        },
        {
          "indexed": true,
          "internalType": "address",
          "name": "proposer",
          "type": "address"
        },
        {
          "indexed": false,
          "internalType": "address",
          "name": "to",
          "type": "address"
        },
        {
          "indexed": false,
          "internalType": "uint256",
          "name": "value",
          "type": "uint256"
        },
        {
          "indexed": false,
          "internalType": "string",
          "name": "description",
          "type": "string"
        }
      ],
      "name": "TransactionProposed",
      "type": "event"
    },
    {
      "anonymous": false,
      "inputs": [
        {
          "indexed": true,
          "internalType": "address",
          "name": "oldTreasurer",
          "type": "address"
        },
        {
          "indexed": true,
          "internalType": "address",
          "name": "newTreasurer",
          "type": "address"
        }
      ],
      "name": "TreasurerChanged",
      "type": "event"
    },
    {
      "anonymous": false,
      "inputs": [
        {
          "indexed": false,
          "internalType": "address",
          "name": "account",
          "type": "address"
        }
      ],
      "name": "Unpaused",
      "type": "event"
    },
    {
      "stateMutability": "payable",
      "type": "fallback"
    },
    {
      "inputs": [],
      "name": "REQUIRED_SIGNATURES",
      "outputs": [
        {
          "internalType": "uint256",
          "name": "",
          "type": "uint256"
        }
      ],
      "stateMutability": "view",
      "type": "function"
    },
    {
      "inputs": [],
      "name": "TRANSACTION_EXPIRY",
      "outputs": [
        {
          "internalType": "uint256",
          "name": "",
          "type": "uint256"
        }
      ],
      "stateMutability": "view",
      "type": "function"
    },
    {
      "inputs": [
        {
          "internalType": "uint256",
          "name": "_txId",
          "type": "uint256"
        }
      ],
      "name": "cancelTransaction",
      "outputs": [],
      "stateMutability": "nonpayable",
      "type": "function"
    },
    {
      "inputs": [
        {
          "internalType": "address",
          "name": "_newTreasurer",
          "type": "address"
        }
      ],
      "name": "changeTreasurer",
      "outputs": [],
      "stateMutability": "nonpayable",
      "type": "function"
    },
    {
      "inputs": [
        {
          "internalType": "uint256",
          "name": "_txId",
          "type": "uint256"
        }
      ],
      "name": "confirmTransaction",
      "outputs": [],
      "stateMutability": "nonpayable",
      "type": "function"
    },
    {
      "inputs": [
        {
          "internalType": "contract IERC20",
          "name": "_token",
          "type": "address"
        },
        {
          "internalType": "uint256",
          "name": "_amount",
          "type": "uint256"
        }
      ],
      "name": "depositToken",
      "outputs": [],
      "stateMutability": "nonpayable",
      "type": "function"
    },
    {
      "inputs": [
        {
          "internalType": "address payable",
          "name": "_to",
          "type": "address"
        },
        {
          "internalType": "uint256",
          "name": "_amount",
          "type": "uint256"
        }
      ],
      "name": "emergencyWithdrawETH",
      "outputs": [],
      "stateMutability": "nonpayable",
      "type": "function"
    },
    {
      "inputs": [
        {
          "internalType": "contract IERC20",
          "name": "_token",
          "type": "address"
        },
        {
          "internalType": "address",
          "name": "_to",
          "type": "address"
        },
        {
          "internalType": "uint256",
          "name": "_amount",
          "type": "uint256"
        }
      ],
      "name": "emergencyWithdrawToken",
      "outputs": [],
      "stateMutability": "nonpayable",
      "type": "function"
    },
    {
      "inputs": [
        {
          "internalType": "address[]",
          "name": "_tokens",
          "type": "address[]"
        }
      ],
      "name": "getBalances",
      "outputs": [
        {
          "internalType": "uint256",
          "name": "ethBalance",
          "type": "uint256"
        },
        {
          "internalType": "uint256[]",
          "name": "tokenBalances",
          "type": "uint256[]"
        }
      ],
      "stateMutability": "view",
      "type": "function"
    },
    {
      "inputs": [],
      "name": "getPendingTransactions",
      "outputs": [
        {
          "internalType": "uint256[]",
          "name": "",
          "type": "uint256[]"
        }
      ],
      "stateMutability": "view",
      "type": "function"
    },
    {
      "inputs": [
        {
          "internalType": "uint256",
          "name": "_txId",
          "type": "uint256"
        }
      ],
      "name": "getTransaction",
      "outputs": [
        {
          "internalType": "address",
          "name": "to",
          "type": "address"
        },
        {
          "internalType": "uint256",
          "name": "value",
          "type": "uint256"
        },
        {
          "internalType": "bytes",
          "name": "data",
          "type": "bytes"
        },
        {
          "internalType": "bool",
          "name": "executed",
          "type": "bool"
        },
        {
          "internalType": "uint256",
          "name": "confirmations",
          "type": "uint256"
        },
        {
          "internalType": "uint256",
          "name": "timestamp",
          "type": "uint256"
        },
        {
          "internalType": "string",
          "name": "description",
          "type": "string"
        },
        {
          "internalType": "bool",
          "name": "ownerConfirmed",
          "type": "bool"
        },
        {
          "internalType": "bool",
          "name": "treasurerConfirmed",
          "type": "bool"
        }
      ],
      "stateMutability": "view",
      "type": "function"
    },
    {
      "inputs": [
        {
          "internalType": "address",
          "name": "_address",
          "type": "address"
        }
      ],
      "name": "isAuthorized",
      "outputs": [
        {
          "internalType": "bool",
          "name": "",
          "type": "bool"
        }
      ],
      "stateMutability": "view",
      "type": "function"
    },
    {
      "inputs": [],
      "name": "owner",
      "outputs": [
        {
          "internalType": "address",
          "name": "",
          "type": "address"
        }
      ],
      "stateMutability": "view",
      "type": "function"
    },
    {
      "inputs": [],
      "name": "pause",
      "outputs": [],
      "stateMutability": "nonpayable",
      "type": "function"
    },
    {
      "inputs": [],
      "name": "paused",
      "outputs": [
        {
          "internalType": "bool",
          "name": "",
          "type": "bool"
        }
      ],
      "stateMutability": "view",
      "type": "function"
    },
    {
      "inputs": [
        {
          "internalType": "address",
          "name": "_to",
          "type": "address"
        },
        {
          "internalType": "uint256",
          "name": "_value",
          "type": "uint256"
        },
        {
          "internalType": "bytes",
          "name": "_data",
          "type": "bytes"
        },
        {
          "internalType": "string",
          "name": "_description",
          "type": "string"
        }
      ],
      "name": "proposeTransaction",
      "outputs": [
        {
          "internalType": "uint256",
          "name": "",
          "type": "uint256"
        }
      ],
      "stateMutability": "nonpayable",
      "type": "function"
    },
    {
      "inputs": [],
      "name": "renounceOwnership",
      "outputs": [],
      "stateMutability": "nonpayable",
      "type": "function"
    },
    {
      "inputs": [],
      "name": "transactionCount",
      "outputs": [
        {
          "internalType": "uint256",
          "name": "",
          "type": "uint256"
        }
      ],
      "stateMutability": "view",
      "type": "function"
    },
    {
      "inputs": [
        {
          "internalType": "uint256",
          "name": "",
          "type": "uint256"
        }
      ],
      "name": "transactions",
      "outputs": [
        {
          "internalType": "address",
          "name": "to",
          "type": "address"
        },
        {
          "internalType": "uint256",
          "name": "value",
          "type": "uint256"
        },
        {
          "internalType": "bytes",
          "name": "data",
          "type": "bytes"
        },
        {
          "internalType": "bool",
          "name": "executed",
          "type": "bool"
        },
        {
          "internalType": "uint256",
          "name": "confirmations",
          "type": "uint256"
        },
        {
          "internalType": "uint256",
          "name": "timestamp",
          "type": "uint256"
        },
        {
          "internalType": "string",
          "name": "description",
          "type": "string"
        }
      ],
      "stateMutability": "view",
      "type": "function"
    },
    {
      "inputs": [
        {
          "internalType": "address",
          "name": "newOwner",
          "type": "address"
        }
      ],
      "name": "transferOwnership",
      "outputs": [],
      "stateMutability": "nonpayable",
      "type": "function"
    },
    {
      "inputs": [],
      "name": "treasurer",
      "outputs": [
        {
          "internalType": "address",
          "name": "",
          "type": "address"
        }
      ],
      "stateMutability": "view",
      "type": "function"
    },
    {
      "inputs": [],
      "name": "unpause",
      "outputs": [],
      "stateMutability": "nonpayable",
      "type": "function"
    },
    {
      "inputs": [
        {
          "internalType": "address payable",
          "name": "_to",
          "type": "address"
        },
        {
          "internalType": "uint256",
          "name": "_amount",
          "type": "uint256"
        },
        {
          "internalType": "string",
          "name": "_description",
          "type": "string"
        }
      ],
      "name": "withdrawETH",
      "outputs": [
        {
          "internalType": "uint256",
          "name": "",
          "type": "uint256"
        }
      ],
      "stateMutability": "nonpayable",
      "type": "function"
    },
    {
      "inputs": [
        {
          "internalType": "contract IERC20",
          "name": "_token",
          "type": "address"
        },
        {
          "internalType": "address",
          "name": "_to",
          "type": "address"
        },
        {
          "internalType": "uint256",
          "name": "_amount",
          "type": "uint256"
        },
        {
          "internalType": "string",
          "name": "_description",
          "type": "string"
        }
      ],
      "name": "withdrawToken",
      "outputs": [
        {
          "internalType": "uint256",
          "name": "",
          "type": "uint256"
        }
      ],
      "stateMutability": "nonpayable",
      "type": "function"
    },
    {
      "stateMutability": "payable",
      "type": "receive"
    }
  ],
  "bytecode": "0x608060405234801561001057600080fd5b506040516124ed3803806124ed83398101604081905261002f9161018d565b338061005657604051631e4fbdf760e01b8152600060048201526024015b60405180910390fd5b61005f8161013d565b50600180556001600160a01b0381166100ba5760405162461bcd60e51b815260206004820152601960248201527f496e76616c696420747265617375726572206164647265737300000000000000604482015260640161004d565b336001600160a01b038216036101125760405162461bcd60e51b815260206004820152601960248201527f5472656173757265722063616e6e6f74206265206f776e657200000000000000604482015260640161004d565b600280546001600160a01b0390921661010002610100600160a81b03199092169190911790556101bd565b600080546001600160a01b038381166001600160a01b0319831681178455604051919092169283917f8be0079c531659141344cd1fd0a4f28419497f9722a3daafe3b4186f6b6457e09190a35050565b60006020828403121561019f57600080fd5b81516001600160a01b03811681146101b657600080fd5b9392505050565b612321806101cc6000396000f3fe60806040526004361061014f5760003560e01c80638da5cb5b116100b6578063cca87bc81161006f578063cca87bc814610420578063d11db83f14610440578063d79e856714610462578063f2fde38b14610482578063fda49eb4146104a2578063fe9fbb80146104c75761018c565b80638da5cb5b146103505780639ac18b19146103825780639ace38c214610397578063b77bf600146103ca578063c01a8c84146103e0578063c074a27e146104005761018c565b80633f4ba83a116101085780633f4ba83a146102ad5780634f79f7da146102c25780635c975abb146102e257806362aef68f14610306578063715018a6146103265780638456cb591461033b5761018c565b806306f7fe10146101be578063277327a5146101e85780632d2ae1c11461020a5780633380c0d814610238578063338b5dea1461025857806333ea3dc8146102785761018c565b3661018c5760405134815233907f6c703791f399558807424f489ccd811c72b4ff0b74af547264fad7c646776df0906020015b60405180910390a2005b60405134815233907f6c703791f399558807424f489ccd811c72b4ff0b74af547264fad7c646776df090602001610182565b3480156101ca57600080fd5b506101d562093a8081565b6040519081526020015b60405180910390f35b3480156101f457600080fd5b50610208610203366004611b71565b6104e7565b005b34801561021657600080fd5b5061022a610225366004611bb2565b610651565b6040516101df929190611c65565b34801561024457600080fd5b50610208610253366004611c7e565b610762565b34801561026457600080fd5b50610208610273366004611c97565b6108eb565b34801561028457600080fd5b50610298610293366004611c7e565b610964565b6040516101df99989796959493929190611d09565b3480156102b957600080fd5b50610208610b6a565b3480156102ce57600080fd5b506101d56102dd366004611e2e565b610b7c565b3480156102ee57600080fd5b5060025460ff165b60405190151581526020016101df565b34801561031257600080fd5b506101d5610321366004611e9a565b610cf6565b34801561033257600080fd5b50610208610dd0565b34801561034757600080fd5b50610208610de2565b34801561035c57600080fd5b506000546001600160a01b03165b6040516001600160a01b0390911681526020016101df565b34801561038e57600080fd5b506101d5600281565b3480156103a357600080fd5b506103b76103b2366004611c7e565b610e2e565b6040516101df9796959493929190611ef3565b3480156103d657600080fd5b506101d560045481565b3480156103ec57600080fd5b506102086103fb366004611c7e565b610f8c565b34801561040c57600080fd5b506101d561041b366004611f4e565b6111b1565b34801561042c57600080fd5b5061020861043b366004611fcf565b611379565b34801561044c57600080fd5b5061045561149d565b6040516101df9190611fec565b34801561046e57600080fd5b5061020861047d366004611c97565b61160b565b34801561048e57600080fd5b5061020861049d366004611fcf565b611729565b3480156104ae57600080fd5b5060025461036a9061010090046001600160a01b031681565b3480156104d357600080fd5b506102f66104e2366004611fcf565b611767565b6104ef61179c565b6104f76117c9565b6001600160a01b0382166105445760405162461bcd60e51b815260206004820152600f60248201526e496e76616c6964206164647265737360881b60448201526064015b60405180910390fd5b6040516370a0823160e01b81523060048201526001600160a01b038416906370a0823190602401602060405180830381865afa158015610588573d6000803e3d6000fd5b505050506040513d601f19601f820116820180604052508101906105ac9190611fff565b8111156105f25760405162461bcd60e51b8152602060048201526014602482015273496e73756666696369656e742062616c616e636560601b604482015260640161053b565b6106066001600160a01b03841683836117ec565b604080518281526001600160a01b0384811660208301528516917f3ab9db27a4cdd8c603a752b62d5fbd93b4b3509fe2596708e9688e42bbac357691015b60405180910390a2505050565b4760608267ffffffffffffffff81111561066d5761066d611d77565b604051908082528060200260200182016040528015610696578160200160208202803683370190505b50905060005b8381101561075a578484828181106106b6576106b6612018565b90506020020160208101906106cb9190611fcf565b6040516370a0823160e01b81523060048201526001600160a01b0391909116906370a0823190602401602060405180830381865afa158015610711573d6000803e3d6000fd5b505050506040513d601f19601f820116820180604052508101906107359190611fff565b82828151811061074757610747612018565b602090810291909101015260010161069c565b509250929050565b6000546001600160a01b031633148061078a575060025461010090046001600160a01b031633145b6107a65760405162461bcd60e51b815260040161053b9061202e565b60045481106107c75760405162461bcd60e51b815260040161053b90612056565b6000818152600360208190526040909120015460ff161561082a5760405162461bcd60e51b815260206004820152601c60248201527f5472616e73616374696f6e20616c726561647920657865637574656400000000604482015260640161053b565b600081815260036020908152604080832033845260050190915290205460ff166108965760405162461bcd60e51b815260206004820152601860248201527f4e6f7420617574686f72697a656420746f2063616e63656c0000000000000000604482015260640161053b565b600081815260036020818152604092839020909101805460ff19166001179055905133815282917fbeed812a0535c283c6bc8eda32deb53df2603d7c1b518b07e2bec1df38da8393910160405180910390a250565b6000811161090b5760405162461bcd60e51b815260040161053b90612086565b6109206001600160a01b03831633308461184b565b60405181815233906001600160a01b038416907ff1444b5cad7ce70cb018d1b8edc8618fe303f3c7f034d8d572a6e27facbf2bef9060200160405180910390a35050565b6000806060600080600060606000806004548a106109945760405162461bcd60e51b815260040161053b90612056565b60008a8152600360208190526040822080546001820154928201546004830154600684015493956001600160a01b039093169493600287019360ff90931692600788019060058901906109ef6000546001600160a01b031690565b6001600160a01b03908116825260208083019390935260409182016000908120546002546101009004909216815260058c01909352912054865460ff92831692909116908790610a3e906120bd565b80601f0160208091040260200160405190810160405280929190818152602001828054610a6a906120bd565b8015610ab75780601f10610a8c57610100808354040283529160200191610ab7565b820191906000526020600020905b815481529060010190602001808311610a9a57829003601f168201915b50505050509650828054610aca906120bd565b80601f0160208091040260200160405190810160405280929190818152602001828054610af6906120bd565b8015610b435780601f10610b1857610100808354040283529160200191610b43565b820191906000526020600020905b815481529060010190602001808311610b2657829003601f168201915b50505050509250995099509950995099509950995099509950509193959799909294969850565b610b7261179c565b610b7a61188a565b565b600080546001600160a01b0316331480610ba5575060025461010090046001600160a01b031633145b610bc15760405162461bcd60e51b815260040161053b9061202e565b60008311610be15760405162461bcd60e51b815260040161053b90612086565b6040516370a0823160e01b81523060048201526001600160a01b038616906370a0823190602401602060405180830381865afa158015610c25573d6000803e3d6000fd5b505050506040513d601f19601f82011682018060405250810190610c499190611fff565b831115610c985760405162461bcd60e51b815260206004820152601a60248201527f496e73756666696369656e7420746f6b656e2062616c616e6365000000000000604482015260640161053b565b604080516001600160a01b038616602482015260448082018690528251808303909101815260649091019091526020810180516001600160e01b031663a9059cbb60e01b179052610cec86600083866111b1565b9695505050505050565b600080546001600160a01b0316331480610d1f575060025461010090046001600160a01b031633145b610d3b5760405162461bcd60e51b815260040161053b9061202e565b60008311610d5b5760405162461bcd60e51b815260040161053b90612086565b47831115610dab5760405162461bcd60e51b815260206004820152601860248201527f496e73756666696369656e74204554482062616c616e63650000000000000000604482015260640161053b565b604080516000815260208101909152610dc89085908590856111b1565b949350505050565b610dd861179c565b610b7a60006118dc565b6000546001600160a01b0316331480610e0a575060025461010090046001600160a01b031633145b610e265760405162461bcd60e51b815260040161053b9061202e565b610b7a61192c565b6003602052600090815260409020805460018201546002830180546001600160a01b03909316939192610e60906120bd565b80601f0160208091040260200160405190810160405280929190818152602001828054610e8c906120bd565b8015610ed95780601f10610eae57610100808354040283529160200191610ed9565b820191906000526020600020905b815481529060010190602001808311610ebc57829003601f168201915b505050600384015460048501546006860154600787018054969760ff9094169692955090935090610f09906120bd565b80601f0160208091040260200160405190810160405280929190818152602001828054610f35906120bd565b8015610f825780601f10610f5757610100808354040283529160200191610f82565b820191906000526020600020905b815481529060010190602001808311610f6557829003601f168201915b5050505050905087565b6000546001600160a01b0316331480610fb4575060025461010090046001600160a01b031633145b610fd05760405162461bcd60e51b815260040161053b9061202e565b806004548110610ff25760405162461bcd60e51b815260040161053b90612056565b6000818152600360208190526040909120015460ff16156110555760405162461bcd60e51b815260206004820152601c60248201527f5472616e73616374696f6e20616c726561647920657865637574656400000000604482015260640161053b565b6000818152600360205260409020600601546110759062093a809061210d565b4211156110ba5760405162461bcd60e51b8152602060048201526013602482015272151c985b9cd858dd1a5bdb88195e1c1a5c9959606a1b604482015260640161053b565b6000828152600360209081526040808320338452600581019092529091205460ff16156111395760405162461bcd60e51b815260206004820152602760248201527f5472616e73616374696f6e20616c726561647920636f6e6669726d65642062796044820152661039b2b73232b960c91b606482015260840161053b565b3360009081526005820160205260408120805460ff191660011790556004820180549161116583612120565b9091555050604051339084907f15c2f311c9e0f53b50388279894aeff029a3457884a6601e924fca879e12adcc90600090a360028160040154036111ac576111ac83611969565b505050565b600080546001600160a01b03163314806111da575060025461010090046001600160a01b031633145b6111f65760405162461bcd60e51b815260040161053b9061202e565b6001600160a01b03851661124c5760405162461bcd60e51b815260206004820152601b60248201527f496e76616c69642064657374696e6174696f6e20616464726573730000000000604482015260640161053b565b600454600081815260036020526040902080546001600160a01b0319166001600160a01b038816178155600181018690556002810161128b8682612187565b5060038101805460ff1990811690915560016004830181905533600090815260058401602052604090208054909216179055426006820155600781016112d18582612187565b50600480549060006112e283612120565b9190505550336001600160a01b0316827fd3e200dc0d04bb5f75092a75b77f23decba743707dc3e5c3d159d647b149f17589898860405161132593929190612246565b60405180910390a3604051339083907f15c2f311c9e0f53b50388279894aeff029a3457884a6601e924fca879e12adcc90600090a3600281600401540361136f5761136f82611969565b5095945050505050565b61138161179c565b6001600160a01b0381166113d75760405162461bcd60e51b815260206004820152601960248201527f496e76616c696420747265617375726572206164647265737300000000000000604482015260640161053b565b6000546001600160a01b03166001600160a01b0316816001600160a01b0316036114435760405162461bcd60e51b815260206004820152601960248201527f5472656173757265722063616e6e6f74206265206f776e657200000000000000604482015260640161053b565b600280546001600160a01b03838116610100818102610100600160a81b031985161790945560405193909204169182907f86e6c3f4874915279045a6fe1ac2063932f9fc43e7a21f46c40a0e2ed84ba2ea90600090a35050565b6060600060045467ffffffffffffffff8111156114bc576114bc611d77565b6040519080825280602002602001820160405280156114e5578160200160208202803683370190505b5090506000805b600454811015611571576000818152600360208190526040909120015460ff1615801561153857506000818152600360205260409020600601546115349062093a809061210d565b4211155b15611569578083838151811061155057611550612018565b60209081029190910101528161156581612120565b9250505b6001016114ec565b5060008167ffffffffffffffff81111561158d5761158d611d77565b6040519080825280602002602001820160405280156115b6578160200160208202803683370190505b50905060005b82811015611603578381815181106115d6576115d6612018565b60200260200101518282815181106115f0576115f0612018565b60209081029190910101526001016115bc565b509392505050565b61161361179c565b61161b6117c9565b6001600160a01b0382166116635760405162461bcd60e51b815260206004820152600f60248201526e496e76616c6964206164647265737360881b604482015260640161053b565b478111156116aa5760405162461bcd60e51b8152602060048201526014602482015273496e73756666696369656e742062616c616e636560601b604482015260640161053b565b6040516001600160a01b0383169082156108fc029083906000818181858888f193505050501580156116e0573d6000803e3d6000fd5b50604080518281526001600160a01b03841660208201526000917f3ab9db27a4cdd8c603a752b62d5fbd93b4b3509fe2596708e9688e42bbac3576910160405180910390a25050565b61173161179c565b6001600160a01b03811661175b57604051631e4fbdf760e01b81526000600482015260240161053b565b611764816118dc565b50565b600080546001600160a01b038381169116148061179657506002546001600160a01b0383811661010090920416145b92915050565b6000546001600160a01b03163314610b7a5760405163118cdaa760e01b815233600482015260240161053b565b60025460ff16610b7a57604051638dfc202b60e01b815260040160405180910390fd5b6040516001600160a01b038381166024830152604482018390526111ac91859182169063a9059cbb906064015b604051602081830303815290604052915060e01b6020820180516001600160e01b038381831617835250505050611ac7565b6040516001600160a01b0384811660248301528381166044830152606482018390526118849186918216906323b872dd90608401611819565b50505050565b6118926117c9565b6002805460ff191690557f5db9ee0a495bf2e6ff9c91a7834c1ba4fdd244a5e8aa4e537bd38aeae4b073aa335b6040516001600160a01b03909116815260200160405180910390a1565b600080546001600160a01b038381166001600160a01b0319831681178455604051919092169283917f8be0079c531659141344cd1fd0a4f28419497f9722a3daafe3b4186f6b6457e09190a35050565b611934611b38565b6002805460ff191660011790557f62e78cea01bee320cd4e420270b5ea74000d11b0c9f74754ebdbfc544b05a2586118bf3390565b600081815260036020526040902060048101546002146119cb5760405162461bcd60e51b815260206004820152601a60248201527f496e73756666696369656e7420636f6e6669726d6174696f6e73000000000000604482015260640161053b565b60038101805460ff191660019081179091558154908201546040516000926001600160a01b03169190611a02906002860190612276565b60006040518083038185875af1925050503d8060008114611a3f576040519150601f19603f3d011682016040523d82523d6000602084013e611a44565b606091505b5050905080611a955760405162461bcd60e51b815260206004820152601c60248201527f5472616e73616374696f6e20657865637574696f6e206661696c656400000000604482015260640161053b565b60405133815283907fefc13bdcf58f184ea7cae26b499fb33b539e01d0197cea456f3ada289b8cf19b90602001610644565b600080602060008451602086016000885af180611aea576040513d6000823e3d81fd5b50506000513d91508115611b02578060011415611b0f565b6001600160a01b0384163b155b1561188457604051635274afe760e01b81526001600160a01b038516600482015260240161053b565b60025460ff1615610b7a5760405163d93c066560e01b815260040160405180910390fd5b6001600160a01b038116811461176457600080fd5b600080600060608486031215611b8657600080fd5b8335611b9181611b5c565b92506020840135611ba181611b5c565b929592945050506040919091013590565b60008060208385031215611bc557600080fd5b823567ffffffffffffffff811115611bdc57600080fd5b8301601f81018513611bed57600080fd5b803567ffffffffffffffff811115611c0457600080fd5b8560208260051b8401011115611c1957600080fd5b6020919091019590945092505050565b600081518084526020840193506020830160005b82811015611c5b578151865260209586019590910190600101611c3d565b5093949350505050565b828152604060208201526000610dc86040830184611c29565b600060208284031215611c9057600080fd5b5035919050565b60008060408385031215611caa57600080fd5b8235611cb581611b5c565b946020939093013593505050565b6000815180845260005b81811015611ce957602081850181015186830182015201611ccd565b506000602082860101526020601f19601f83011685010191505092915050565b60018060a01b038a16815288602082015261012060408201526000611d3261012083018a611cc3565b88151560608401528760808401528660a084015282810360c0840152611d588187611cc3565b94151560e0840152505090151561010090910152979650505050505050565b634e487b7160e01b600052604160045260246000fd5b60008067ffffffffffffffff841115611da857611da8611d77565b50604051601f19601f85018116603f0116810181811067ffffffffffffffff82111715611dd757611dd7611d77565b604052838152905080828401851015611def57600080fd5b83836020830137600060208583010152509392505050565b600082601f830112611e1857600080fd5b611e2783833560208501611d8d565b9392505050565b60008060008060808587031215611e4457600080fd5b8435611e4f81611b5c565b93506020850135611e5f81611b5c565b925060408501359150606085013567ffffffffffffffff811115611e8257600080fd5b611e8e87828801611e07565b91505092959194509250565b600080600060608486031215611eaf57600080fd5b8335611eba81611b5c565b925060208401359150604084013567ffffffffffffffff811115611edd57600080fd5b611ee986828701611e07565b9150509250925092565b60018060a01b038816815286602082015260e060408201526000611f1a60e0830188611cc3565b86151560608401528560808401528460a084015282810360c0840152611f408185611cc3565b9a9950505050505050505050565b60008060008060808587031215611f6457600080fd5b8435611f6f81611b5c565b935060208501359250604085013567ffffffffffffffff811115611f9257600080fd5b8501601f81018713611fa357600080fd5b611fb287823560208401611d8d565b925050606085013567ffffffffffffffff811115611e8257600080fd5b600060208284031215611fe157600080fd5b8135611e2781611b5c565b602081526000611e276020830184611c29565b60006020828403121561201157600080fd5b5051919050565b634e487b7160e01b600052603260045260246000fd5b6020808252600e908201526d139bdd08185d5d1a1bdc9a5e995960921b604082015260600190565b602080825260169082015275125b9d985b1a59081d1c985b9cd858dd1a5bdb88125160521b604082015260600190565b6020808252601d908201527f416d6f756e74206d7573742062652067726561746572207468616e2030000000604082015260600190565b600181811c908216806120d157607f821691505b6020821081036120f157634e487b7160e01b600052602260045260246000fd5b50919050565b634e487b7160e01b600052601160045260246000fd5b80820180821115611796576117966120f7565b600060018201612132576121326120f7565b5060010190565b601f8211156111ac57806000526020600020601f840160051c810160208510156121605750805b601f840160051c820191505b81811015612180576000815560010161216c565b5050505050565b815167ffffffffffffffff8111156121a1576121a1611d77565b6121b5816121af84546120bd565b84612139565b6020601f8211600181146121e957600083156121d15750848201515b600019600385901b1c1916600184901b178455612180565b600084815260208120601f198516915b8281101561221957878501518255602094850194600190920191016121f9565b50848210156122375786840151600019600387901b60f8161c191681555b50505050600190811b01905550565b60018060a01b038416815282602082015260606040820152600061226d6060830184611cc3565b95945050505050565b6000808354612284816120bd565b60018216801561229b57600181146122b0576122e0565b60ff19831686528115158202860193506122e0565b86600052602060002060005b838110156122d8578154888201526001909101906020016122bc565b505081860193505b50919594505050505056fea2646970667358221220c5272ddedb6c6a3d94622f366898e1b2a7cfaa19c54a0907fc3e67070922f0db64736f6c634300081f0033",
  "linkReferences": {},
  "deployedLinkReferences": {}
}