{
  "_format": "hh-sol-artifact-1",
  "contractName": "GuardianShieldNFT",
  "sourceName": "contracts/GuardianShieldNFT.sol",
  "abi": [
    {
      "inputs": [
        {
          "internalType": "address",
          "name": "_treasuryAddress",
          "type": "address"
        }
      ],
      "stateMutability": "nonpayable",
      "type": "constructor"
    },
    {
      "inputs": [],
      "name": "ERC721EnumerableForbiddenBatchMint",
      "type": "error"
    },
    {
      "inputs": [
        {
          "internalType": "address",
          "name": "sender",
          "type": "address"
        },
        {
          "internalType": "uint256",
          "name": "tokenId",
          "type": "uint256"
        },
        {
          "internalType": "address",
          "name": "owner",
          "type": "address"
        }
      ],
      "name": "ERC721IncorrectOwner",
      "type": "error"
    },
    {
      "inputs": [
        {
          "internalType": "address",
          "name": "operator",
          "type": "address"
        },
        {
          "internalType": "uint256",
          "name": "tokenId",
          "type": "uint256"
        }
      ],
      "name": "ERC721InsufficientApproval",
      "type": "error"
    },
    {
      "inputs": [
        {
          "internalType": "address",
          "name": "approver",
          "type": "address"
        }
      ],
      "name": "ERC721InvalidApprover",
      "type": "error"
    },
    {
      "inputs": [
        {
          "internalType": "address",
          "name": "operator",
          "type": "address"
        }
      ],
      "name": "ERC721InvalidOperator",
      "type": "error"
    },
    {
      "inputs": [
        {
          "internalType": "address",
          "name": "owner",
          "type": "address"
        }
      ],
      "name": "ERC721InvalidOwner",
      "type": "error"
    },
    {
      "inputs": [
        {
          "internalType": "address",
          "name": "receiver",
          "type": "address"
        }
      ],
      "name": "ERC721InvalidReceiver",
      "type": "error"
    },
    {
      "inputs": [
        {
          "internalType": "address",
          "name": "sender",
          "type": "address"
        }
      ],
      "name": "ERC721InvalidSender",
      "type": "error"
    },
    {
      "inputs": [
        {
          "internalType": "uint256",
          "name": "tokenId",
          "type": "uint256"
        }
      ],
      "name": "ERC721NonexistentToken",
      "type": "error"
    },
    {
      "inputs": [
        {
          "internalType": "address",
          "name": "owner",
          "type": "address"
        },
        {
          "internalType": "uint256",
          "name": "index",
          "type": "uint256"
        }
      ],
      "name": "ERC721OutOfBoundsIndex",
      "type": "error"
    },
    {
      "inputs": [],
      "name": "EnforcedPause",
      "type": "error"
    },
    {
      "inputs": [],
      "name": "ExpectedPause",
      "type": "error"
    },
    {
      "inputs": [
        {
          "internalType": "address",
          "name": "owner",
          "type": "address"
        }
      ],
      "name": "OwnableInvalidOwner",
      "type": "error"
    },
    {
      "inputs": [
        {
          "internalType": "address",
          "name": "account",
          "type": "address"
        }
      ],
      "name": "OwnableUnauthorizedAccount",
      "type": "error"
    },
    {
      "inputs": [],
      "name": "ReentrancyGuardReentrantCall",
      "type": "error"
    },
    {
      "anonymous": false,
      "inputs": [
        {
          "indexed": true,
          "internalType": "address",
          "name": "owner",
          "type": "address"
        },
        {
          "indexed": true,
          "internalType": "address",
          "name": "approved",
          "type": "address"
        },
        {
          "indexed": true,
          "internalType": "uint256",
          "name": "tokenId",
          "type": "uint256"
        }
      ],
      "name": "Approval",
      "type": "event"
    },
    {
      "anonymous": false,
      "inputs": [
        {
          "indexed": true,
          "internalType": "address",
          "name": "owner",
          "type": "address"
        },
        {
          "indexed": true,
          "internalType": "address",
          "name": "operator",
          "type": "address"
        },
        {
          "indexed": false,
          "internalType": "bool",
          "name": "approved",
          "type": "bool"
        }
      ],
      "name": "ApprovalForAll",
      "type": "event"
    },
    {
      "anonymous": false,
      "inputs": [
        {
          "indexed": false,
          "internalType": "uint256",
          "name": "_fromTokenId",
          "type": "uint256"
        },
        {
          "indexed": false,
          "internalType": "uint256",
          "name": "_toTokenId",
          "type": "uint256"
        }
      ],
      "name": "BatchMetadataUpdate",
      "type": "event"
    },
    {
      "anonymous": false,
      "inputs": [
        {
          "indexed": false,
          "internalType": "uint256",
          "name": "_tokenId",
          "type": "uint256"
        }
      ],
      "name": "MetadataUpdate",
      "type": "event"
    },
    {
      "anonymous": false,
      "inputs": [
        {
          "indexed": true,
          "internalType": "address",
          "name": "previousOwner",
          "type": "address"
        },
        {
          "indexed": true,
          "internalType": "address",
          "name": "newOwner",
          "type": "address"
        }
      ],
      "name": "OwnershipTransferred",
      "type": "event"
    },
    {
      "anonymous": false,
      "inputs": [
        {
          "indexed": false,
          "internalType": "address",
          "name": "account",
          "type": "address"
        }
      ],
      "name": "Paused",
      "type": "event"
    },
    {
      "anonymous": false,
      "inputs": [
        {
          "indexed": true,
          "internalType": "uint256",
          "name": "tokenId",
          "type": "uint256"
        },
        {
          "indexed": false,
          "internalType": "uint256",
          "name": "serialNumber",
          "type": "uint256"
        },
        {
          "indexed": true,
          "internalType": "address",
          "name": "burner",
          "type": "address"
        }
      ],
      "name": "ShieldBurned",
      "type": "event"
    },
    {
      "anonymous": false,
      "inputs": [
        {
          "indexed": true,
          "internalType": "uint256",
          "name": "tokenId",
          "type": "uint256"
        },
        {
          "indexed": false,
          "internalType": "uint256",
          "name": "serialNumber",
          "type": "uint256"
        },
        {
          "indexed": true,
          "internalType": "address",
          "name": "owner",
          "type": "address"
        },
        {
          "indexed": false,
          "internalType": "string",
          "name": "shieldType",
          "type": "string"
        }
      ],
      "name": "ShieldMinted",
      "type": "event"
    },
    {
      "anonymous": false,
      "inputs": [
        {
          "indexed": true,
          "internalType": "uint256",
          "name": "newTokenId",
          "type": "uint256"
        },
        {
          "indexed": false,
          "internalType": "uint256",
          "name": "serialNumber",
          "type": "uint256"
        },
        {
          "indexed": true,
          "internalType": "address",
          "name": "originalOwner",
          "type": "address"
        }
      ],
      "name": "ShieldRecovered",
      "type": "event"
    },
    {
      "anonymous": false,
      "inputs": [
        {
          "indexed": true,
          "internalType": "uint256",
          "name": "tokenId",
          "type": "uint256"
        },
        {
          "indexed": false,
          "internalType": "uint256",
          "name": "serialNumber",
          "type": "uint256"
        },
        {
          "indexed": true,
          "internalType": "address",
          "name": "reporter",
          "type": "address"
        },
        {
          "indexed": false,
          "internalType": "uint256",
          "name": "timestamp",
          "type": "uint256"
        }
      ],
      "name": "ShieldStolen",
      "type": "event"
    },
    {
      "anonymous": false,
      "inputs": [
        {
          "indexed": false,
          "internalType": "string",
          "name": "shieldType",
          "type": "string"
        },
        {
          "indexed": false,
          "internalType": "uint256",
          "name": "cost",
          "type": "uint256"
        },
        {
          "indexed": false,
          "internalType": "uint256",
          "name": "protection",
          "type": "uint256"
        }
      ],
      "name": "ShieldTypeAdded",
      "type": "event"
    },
    {
      "anonymous": false,
      "inputs": [
        {
          "indexed": true,
          "internalType": "address",
          "name": "from",
          "type": "address"
        },
        {
          "indexed": true,
          "internalType": "address",
          "name": "to",
          "type": "address"
        },
        {
          "indexed": true,
          "internalType": "uint256",
          "name": "tokenId",
          "type": "uint256"
        }
      ],
      "name": "Transfer",
      "type": "event"
    },
    {
      "anonymous": false,
      "inputs": [
        {
          "indexed": false,
          "internalType": "address",
          "name": "account",
          "type": "address"
        }
      ],
      "name": "Unpaused",
      "type": "event"
    },
    {
      "inputs": [
        {
          "internalType": "address",
          "name": "reporter",
          "type": "address"
        }
      ],
      "name": "addAuthorizedReporter",
      "outputs": [],
      "stateMutability": "nonpayable",
      "type": "function"
    },
    {
      "inputs": [
        {
          "internalType": "string",
          "name": "shieldType",
          "type": "string"
        },
        {
          "internalType": "uint256",
          "name": "cost",
          "type": "uint256"
        },
        {
          "internalType": "uint256",
          "name": "protection",
          "type": "uint256"
        }
      ],
      "name": "addShieldType",
      "outputs": [],
      "stateMutability": "nonpayable",
      "type": "function"
    },
    {
      "inputs": [
        {
          "internalType": "address",
          "name": "to",
          "type": "address"
        },
        {
          "internalType": "uint256",
          "name": "tokenId",
          "type": "uint256"
        }
      ],
      "name": "approve",
      "outputs": [],
      "stateMutability": "nonpayable",
      "type": "function"
    },
    {
      "inputs": [
        {
          "internalType": "address",
          "name": "",
          "type": "address"
        }
      ],
      "name": "authorizedReporters",
      "outputs": [
        {
          "internalType": "bool",
          "name": "",
          "type": "bool"
        }
      ],
      "stateMutability": "view",
      "type": "function"
    },
    {
      "inputs": [
        {
          "internalType": "address",
          "name": "owner",
          "type": "address"
        }
      ],
      "name": "balanceOf",
      "outputs": [
        {
          "internalType": "uint256",
          "name": "",
          "type": "uint256"
        }
      ],
      "stateMutability": "view",
      "type": "function"
    },
    {
      "inputs": [
        {
          "internalType": "address",
          "name": "to",
          "type": "address"
        },
        {
          "internalType": "string[]",
          "name": "shieldTypes",
          "type": "string[]"
        },
        {
          "internalType": "string[]",
          "name": "metadataArray",
          "type": "string[]"
        },
        {
          "internalType": "uint256",
          "name": "quantity",
          "type": "uint256"
        }
      ],
      "name": "batchMintShields",
      "outputs": [
        {
          "internalType": "uint256[]",
          "name": "",
          "type": "uint256[]"
        }
      ],
      "stateMutability": "payable",
      "type": "function"
    },
    {
      "inputs": [
        {
          "internalType": "uint256",
          "name": "tokenId",
          "type": "uint256"
        }
      ],
      "name": "burnStolenToken",
      "outputs": [],
      "stateMutability": "nonpayable",
      "type": "function"
    },
    {
      "inputs": [],
      "name": "emergencyWithdraw",
      "outputs": [],
      "stateMutability": "nonpayable",
      "type": "function"
    },
    {
      "inputs": [
        {
          "internalType": "uint256",
          "name": "tokenId",
          "type": "uint256"
        }
      ],
      "name": "getApproved",
      "outputs": [
        {
          "internalType": "address",
          "name": "",
          "type": "address"
        }
      ],
      "stateMutability": "view",
      "type": "function"
    },
    {
      "inputs": [],
      "name": "getContractStats",
      "outputs": [
        {
          "internalType": "uint256",
          "name": "_totalMinted",
          "type": "uint256"
        },
        {
          "internalType": "uint256",
          "name": "_totalBurned",
          "type": "uint256"
        },
        {
          "internalType": "uint256",
          "name": "_totalRecovered",
          "type": "uint256"
        },
        {
          "internalType": "uint256",
          "name": "_totalSupply",
          "type": "uint256"
        },
        {
          "internalType": "uint256",
          "name": "_nextSerial",
          "type": "uint256"
        }
      ],
      "stateMutability": "view",
      "type": "function"
    },
    {
      "inputs": [
        {
          "internalType": "uint256",
          "name": "tokenId",
          "type": "uint256"
        }
      ],
      "name": "getShieldDetails",
      "outputs": [
        {
          "components": [
            {
              "internalType": "uint256",
              "name": "serialNumber",
              "type": "uint256"
            },
            {
              "internalType": "string",
              "name": "shieldType",
              "type": "string"
            },
            {
              "internalType": "uint256",
              "name": "protectionLevel",
              "type": "uint256"
            },
            {
              "internalType": "uint256",
              "name": "mintTimestamp",
              "type": "uint256"
            },
            {
              "internalType": "address",
              "name": "originalOwner",
              "type": "address"
            },
            {
              "internalType": "bool",
              "name": "isStolen",
              "type": "bool"
            },
            {
              "internalType": "uint256",
              "name": "stolenTimestamp",
              "type": "uint256"
            },
            {
              "internalType": "string",
              "name": "metadata",
              "type": "string"
            }
          ],
          "internalType": "struct GuardianShieldNFT.ShieldToken",
          "name": "",
          "type": "tuple"
        }
      ],
      "stateMutability": "view",
      "type": "function"
    },
    {
      "inputs": [
        {
          "internalType": "uint256",
          "name": "serialNumber",
          "type": "uint256"
        }
      ],
      "name": "getTokenBySerialNumber",
      "outputs": [
        {
          "internalType": "uint256",
          "name": "tokenId",
          "type": "uint256"
        },
        {
          "internalType": "address",
          "name": "currentOwner",
          "type": "address"
        },
        {
          "internalType": "bool",
          "name": "exists",
          "type": "bool"
        }
      ],
      "stateMutability": "view",
      "type": "function"
    },
    {
      "inputs": [
        {
          "internalType": "address",
          "name": "owner",
          "type": "address"
        }
      ],
      "name": "getTokensOfOwner",
      "outputs": [
        {
          "internalType": "uint256[]",
          "name": "",
          "type": "uint256[]"
        }
      ],
      "stateMutability": "view",
      "type": "function"
    },
    {
      "inputs": [
        {
          "internalType": "address",
          "name": "owner",
          "type": "address"
        },
        {
          "internalType": "address",
          "name": "operator",
          "type": "address"
        }
      ],
      "name": "isApprovedForAll",
      "outputs": [
        {
          "internalType": "bool",
          "name": "",
          "type": "bool"
        }
      ],
      "stateMutability": "view",
      "type": "function"
    },
    {
      "inputs": [
        {
          "internalType": "address",
          "name": "to",
          "type": "address"
        },
        {
          "internalType": "string",
          "name": "shieldType",
          "type": "string"
        },
        {
          "internalType": "string",
          "name": "metadata",
          "type": "string"
        }
      ],
      "name": "mintShield",
      "outputs": [
        {
          "internalType": "uint256",
          "name": "",
          "type": "uint256"
        }
      ],
      "stateMutability": "payable",
      "type": "function"
    },
    {
      "inputs": [],
      "name": "name",
      "outputs": [
        {
          "internalType": "string",
          "name": "",
          "type": "string"
        }
      ],
      "stateMutability": "view",
      "type": "function"
    },
    {
      "inputs": [],
      "name": "owner",
      "outputs": [
        {
          "internalType": "address",
          "name": "",
          "type": "address"
        }
      ],
      "stateMutability": "view",
      "type": "function"
    },
    {
      "inputs": [
        {
          "internalType": "uint256",
          "name": "tokenId",
          "type": "uint256"
        }
      ],
      "name": "ownerOf",
      "outputs": [
        {
          "internalType": "address",
          "name": "",
          "type": "address"
        }
      ],
      "stateMutability": "view",
      "type": "function"
    },
    {
      "inputs": [],
      "name": "pause",
      "outputs": [],
      "stateMutability": "nonpayable",
      "type": "function"
    },
    {
      "inputs": [],
      "name": "paused",
      "outputs": [
        {
          "internalType": "bool",
          "name": "",
          "type": "bool"
        }
      ],
      "stateMutability": "view",
      "type": "function"
    },
    {
      "inputs": [
        {
          "internalType": "address",
          "name": "reporter",
          "type": "address"
        }
      ],
      "name": "removeAuthorizedReporter",
      "outputs": [],
      "stateMutability": "nonpayable",
      "type": "function"
    },
    {
      "inputs": [],
      "name": "renounceOwnership",
      "outputs": [],
      "stateMutability": "nonpayable",
      "type": "function"
    },
    {
      "inputs": [
        {
          "internalType": "uint256",
          "name": "tokenId",
          "type": "uint256"
        }
      ],
      "name": "reportStolen",
      "outputs": [],
      "stateMutability": "nonpayable",
      "type": "function"
    },
    {
      "inputs": [
        {
          "internalType": "uint256",
          "name": "tokenId",
          "type": "uint256"
        },
        {
          "internalType": "address",
          "name": "rightfulOwner",
          "type": "address"
        }
      ],
      "name": "returnToOwner",
      "outputs": [],
      "stateMutability": "nonpayable",
      "type": "function"
    },
    {
      "inputs": [
        {
          "internalType": "address",
          "name": "from",
          "type": "address"
        },
        {
          "internalType": "address",
          "name": "to",
          "type": "address"
        },
        {
          "internalType": "uint256",
          "name": "tokenId",
          "type": "uint256"
        }
      ],
      "name": "safeTransferFrom",
      "outputs": [],
      "stateMutability": "nonpayable",
      "type": "function"
    },
    {
      "inputs": [
        {
          "internalType": "address",
          "name": "from",
          "type": "address"
        },
        {
          "internalType": "address",
          "name": "to",
          "type": "address"
        },
        {
          "internalType": "uint256",
          "name": "tokenId",
          "type": "uint256"
        },
        {
          "internalType": "bytes",
          "name": "data",
          "type": "bytes"
        }
      ],
      "name": "safeTransferFrom",
      "outputs": [],
      "stateMutability": "nonpayable",
      "type": "function"
    },
    {
      "inputs": [
        {
          "internalType": "address",
          "name": "operator",
          "type": "address"
        },
        {
          "internalType": "bool",
          "name": "approved",
          "type": "bool"
        }
      ],
      "name": "setApprovalForAll",
      "outputs": [],
      "stateMutability": "nonpayable",
      "type": "function"
    },
    {
      "inputs": [
        {
          "internalType": "uint256",
          "name": "",
          "type": "uint256"
        }
      ],
      "name": "shieldTokens",
      "outputs": [
        {
          "internalType": "uint256",
          "name": "serialNumber",
          "type": "uint256"
        },
        {
          "internalType": "string",
          "name": "shieldType",
          "type": "string"
        },
        {
          "internalType": "uint256",
          "name": "protectionLevel",
          "type": "uint256"
        },
        {
          "internalType": "uint256",
          "name": "mintTimestamp",
          "type": "uint256"
        },
        {
          "internalType": "address",
          "name": "originalOwner",
          "type": "address"
        },
        {
          "internalType": "bool",
          "name": "isStolen",
          "type": "bool"
        },
        {
          "internalType": "uint256",
          "name": "stolenTimestamp",
          "type": "uint256"
        },
        {
          "internalType": "string",
          "name": "metadata",
          "type": "string"
        }
      ],
      "stateMutability": "view",
      "type": "function"
    },
    {
      "inputs": [
        {
          "internalType": "string",
          "name": "",
          "type": "string"
        }
      ],
      "name": "shieldTypeCost",
      "outputs": [
        {
          "internalType": "uint256",
          "name": "",
          "type": "uint256"
        }
      ],
      "stateMutability": "view",
      "type": "function"
    },
    {
      "inputs": [
        {
          "internalType": "string",
          "name": "",
          "type": "string"
        }
      ],
      "name": "shieldTypeProtection",
      "outputs": [
        {
          "internalType": "uint256",
          "name": "",
          "type": "uint256"
        }
      ],
      "stateMutability": "view",
      "type": "function"
    },
    {
      "inputs": [
        {
          "internalType": "uint256",
          "name": "",
          "type": "uint256"
        }
      ],
      "name": "stolenTokenReporter",
      "outputs": [
        {
          "internalType": "address",
          "name": "",
          "type": "address"
        }
      ],
      "stateMutability": "view",
      "type": "function"
    },
    {
      "inputs": [
        {
          "internalType": "bytes4",
          "name": "interfaceId",
          "type": "bytes4"
        }
      ],
      "name": "supportsInterface",
      "outputs": [
        {
          "internalType": "bool",
          "name": "",
          "type": "bool"
        }
      ],
      "stateMutability": "view",
      "type": "function"
    },
    {
      "inputs": [],
      "name": "symbol",
      "outputs": [
        {
          "internalType": "string",
          "name": "",
          "type": "string"
        }
      ],
      "stateMutability": "view",
      "type": "function"
    },
    {
      "inputs": [
        {
          "internalType": "uint256",
          "name": "index",
          "type": "uint256"
        }
      ],
      "name": "tokenByIndex",
      "outputs": [
        {
          "internalType": "uint256",
          "name": "",
          "type": "uint256"
        }
      ],
      "stateMutability": "view",
      "type": "function"
    },
    {
      "inputs": [
        {
          "internalType": "address",
          "name": "owner",
          "type": "address"
        },
        {
          "internalType": "uint256",
          "name": "index",
          "type": "uint256"
        }
      ],
      "name": "tokenOfOwnerByIndex",
      "outputs": [
        {
          "internalType": "uint256",
          "name": "",
          "type": "uint256"
        }
      ],
      "stateMutability": "view",
      "type": "function"
    },
    {
      "inputs": [
        {
          "internalType": "uint256",
          "name": "tokenId",
          "type": "uint256"
        }
      ],
      "name": "tokenURI",
      "outputs": [
        {
          "internalType": "string",
          "name": "",
          "type": "string"
        }
      ],
      "stateMutability": "view",
      "type": "function"
    },
    {
      "inputs": [],
      "name": "totalBurned",
      "outputs": [
        {
          "internalType": "uint256",
          "name": "",
          "type": "uint256"
        }
      ],
      "stateMutability": "view",
      "type": "function"
    },
    {
      "inputs": [],
      "name": "totalMinted",
      "outputs": [
        {
          "internalType": "uint256",
          "name": "",
          "type": "uint256"
        }
      ],
      "stateMutability": "view",
      "type": "function"
    },
    {
      "inputs": [],
      "name": "totalRecovered",
      "outputs": [
        {
          "internalType": "uint256",
          "name": "",
          "type": "uint256"
        }
      ],
      "stateMutability": "view",
      "type": "function"
    },
    {
      "inputs": [],
      "name": "totalSupply",
      "outputs": [
        {
          "internalType": "uint256",
          "name": "",
          "type": "uint256"
        }
      ],
      "stateMutability": "view",
      "type": "function"
    },
    {
      "inputs": [
        {
          "internalType": "address",
          "name": "from",
          "type": "address"
        },
        {
          "internalType": "address",
          "name": "to",
          "type": "address"
        },
        {
          "internalType": "uint256",
          "name": "tokenId",
          "type": "uint256"
        }
      ],
      "name": "transferFrom",
      "outputs": [],
      "stateMutability": "nonpayable",
      "type": "function"
    },
    {
      "inputs": [
        {
          "internalType": "address",
          "name": "newOwner",
          "type": "address"
        }
      ],
      "name": "transferOwnership",
      "outputs": [],
      "stateMutability": "nonpayable",
      "type": "function"
    },
    {
      "inputs": [],
      "name": "treasuryAddress",
      "outputs": [
        {
          "internalType": "address",
          "name": "",
          "type": "address"
        }
      ],
      "stateMutability": "view",
      "type": "function"
    },
    {
      "inputs": [],
      "name": "unpause",
      "outputs": [],
      "stateMutability": "nonpayable",
      "type": "function"
    },
    {
      "inputs": [
        {
          "internalType": "address",
          "name": "newTreasury",
          "type": "address"
        }
      ],
      "name": "updateTreasuryAddress",
      "outputs": [],
      "stateMutability": "nonpayable",
      "type": "function"
    }
  ],
  "bytecode": "0x6080604052620186a160145560006015556000601655600060175534801561002657600080fd5b50604051614853380380614853833981016040819052610045916102b4565b336040518060400160405280601d81526020017f477561726469616e536869656c6420536563757269747920546f6b656e0000008152506040518060400160405280600481526020016311d4d4d560e21b81525081600090816100a89190610383565b5060016100b58282610383565b5050506001600160a01b0381166100e657604051631e4fbdf760e01b81526000600482015260240160405180910390fd5b6100ef8161013a565b506001600c819055601380546001600160a01b0319166001600160a01b038416179055336000908152601260205260409020805460ff1916909117905561013461018c565b50610441565b600b80546001600160a01b038381166001600160a01b0319831681179093556040519116919082907f8be0079c531659141344cd1fd0a4f28419497f9722a3daafe3b4186f6b6457e090600090a35050565b662386f26fc1000060186040516101ae9064426173696360d81b815260050190565b908152604080519182900360200182209290925564426173696360d81b81526019600580830182905283519283900360259081018420839055665072656d69756d60c81b808552601860078087018290528751968790036027908101882066b1a2bc2ec500009055928752860185905286519586900390910185206032905564456c69746560d81b8086528584018290528651958690038301862067016345785d8a000090558552918401839052845193849003018320604b90556723bab0b93234b0b760c11b808452600880850192909252845193849003602890810185206703782dace9d90000905590845290830191909152915190819003909101902060649055565b6000602082840312156102c657600080fd5b81516001600160a01b03811681146102dd57600080fd5b9392505050565b634e487b7160e01b600052604160045260246000fd5b600181811c9082168061030e57607f821691505b60208210810361032e57634e487b7160e01b600052602260045260246000fd5b50919050565b601f82111561037e57806000526020600020601f840160051c8101602085101561035b5750805b601f840160051c820191505b8181101561037b5760008155600101610367565b50505b505050565b81516001600160401b0381111561039c5761039c6102e4565b6103b0816103aa84546102fa565b84610334565b6020601f8211600181146103e457600083156103cc5750848201515b600019600385901b1c1916600184901b17845561037b565b600084815260208120601f198516915b8281101561041457878501518255602094850194600190920191016103f4565b50848210156104325786840151600019600387901b60f8161c191681555b50505050600190811b01905550565b614403806104506000396000f3fe6080604052600436106102725760003560e01c806383a8adb01161014f578063c5f956af116100c1578063dc1c002f1161007a578063dc1c002f146107a3578063dfe6b5d6146107d7578063e63fb88f14610814578063e985e9c514610834578063ee568e1214610854578063f2fde38b1461087457600080fd5b8063c5f956af146106f5578063c87b56dd14610715578063ca1a6fbb14610735578063d1d3c5451461074b578063d89135cd14610778578063db2e21bc1461078e57600080fd5b8063a22cb46511610113578063a22cb46514610627578063a2309ff814610647578063a6b2f3951461065d578063b88d4fde1461067d578063bda0a5601461069d578063c5cfbc22146106b057600080fd5b806383a8adb0146105ac578063841e4561146105bf5780638456cb59146105df5780638da5cb5b146105f457806395d89b411461061257600080fd5b80633a41429a116101e85780635c975abb116101ac5780635c975abb146104da5780635de6dc55146104f25780636352211e1461051f5780636b09d84a1461053f57806370a0823114610577578063715018a61461059757600080fd5b80633a41429a1461041d5780633d1101fd1461044d5780633f4ba83a1461048557806342842e0e1461049a5780634f6ccce7146104ba57600080fd5b806318160ddd1161023a57806318160ddd146103485780631b3c2ce91461036757806323b872dd146103875780632f745c59146103a757806336ac905f146103c7578063389a032a146103fd57600080fd5b806301ffc9a7146102775780630695519c146102ac57806306fdde03146102ce578063081812fc146102f0578063095ea7b314610328575b600080fd5b34801561028357600080fd5b5061029761029236600461369e565b610894565b60405190151581526020015b60405180910390f35b3480156102b857600080fd5b506102cc6102c73660046136d7565b6108a5565b005b3480156102da57600080fd5b506102e3610a72565b6040516102a39190613753565b3480156102fc57600080fd5b5061031061030b366004613766565b610b04565b6040516001600160a01b0390911681526020016102a3565b34801561033457600080fd5b506102cc61034336600461377f565b610b2d565b34801561035457600080fd5b506008545b6040519081526020016102a3565b34801561037357600080fd5b506102cc610382366004613766565b610b3c565b34801561039357600080fd5b506102cc6103a23660046137a9565b610cc3565b3480156103b357600080fd5b506103596103c236600461377f565b610d48565b3480156103d357600080fd5b506103106103e2366004613766565b6011602052600090815260409020546001600160a01b031681565b34801561040957600080fd5b506102cc610418366004613766565b610dad565b34801561042957600080fd5b506102976104383660046137e6565b60126020526000908152604090205460ff1681565b34801561045957600080fd5b506103596104683660046138c2565b805160208183018101805160198252928201919093012091525481565b34801561049157600080fd5b506102cc610f55565b3480156104a657600080fd5b506102cc6104b53660046137a9565b610f67565b3480156104c657600080fd5b506103596104d5366004613766565b610f87565b3480156104e657600080fd5b50600d5460ff16610297565b3480156104fe57600080fd5b5061051261050d3660046137e6565b610fe0565b6040516102a391906138f6565b34801561052b57600080fd5b5061031061053a366004613766565b6110d8565b34801561054b57600080fd5b5061035961055a3660046138c2565b805160208183018101805160188252928201919093012091525481565b34801561058357600080fd5b506103596105923660046137e6565b6110e3565b3480156105a357600080fd5b506102cc61112b565b6105126105ba3660046139df565b61113d565b3480156105cb57600080fd5b506102cc6105da3660046137e6565b6115f6565b3480156105eb57600080fd5b506102cc611620565b34801561060057600080fd5b50600b546001600160a01b0316610310565b34801561061e57600080fd5b506102e3611630565b34801561063357600080fd5b506102cc610642366004613a5e565b61163f565b34801561065357600080fd5b5061035960155481565b34801561066957600080fd5b506102cc6106783660046137e6565b61164a565b34801561068957600080fd5b506102cc610698366004613a9a565b611673565b6103596106ab366004613b15565b61168b565b3480156106bc57600080fd5b506106d06106cb366004613766565b6119ce565b604080519384526001600160a01b0390921660208401521515908201526060016102a3565b34801561070157600080fd5b50601354610310906001600160a01b031681565b34801561072157600080fd5b506102e3610730366004613766565b611a74565b34801561074157600080fd5b5061035960175481565b34801561075757600080fd5b5061076b610766366004613766565b611a7f565b6040516102a39190613b8c565b34801561078457600080fd5b5061035960165481565b34801561079a57600080fd5b506102cc611c9e565b3480156107af57600080fd5b506107c36107be366004613766565b611d4e565b6040516102a3989796959493929190613c1f565b3480156107e357600080fd5b506107ec611eb4565b604080519586526020860194909452928401919091526060830152608082015260a0016102a3565b34801561082057600080fd5b506102cc61082f3660046137e6565b611ee2565b34801561084057600080fd5b5061029761084f366004613c87565b611f0e565b34801561086057600080fd5b506102cc61086f366004613cb1565b611f3c565b34801561088057600080fd5b506102cc61088f3660046137e6565b612027565b600061089f82612062565b92915050565b6013546001600160a01b03163314806108d75750336108cc600b546001600160a01b031690565b6001600160a01b0316145b6109215760405162461bcd60e51b815260206004820152601660248201527527b7363c903a3932b0b9bab93c9037b91037bbb732b960511b60448201526064015b60405180910390fd5b600061092c83612087565b6001600160a01b0316036109525760405162461bcd60e51b815260040161091890613cfe565b6013546001600160a01b0316610967836110d8565b6001600160a01b0316146109b55760405162461bcd60e51b8152602060048201526015602482015274546f6b656e206e6f7420696e20747265617375727960581b6044820152606401610918565b6000828152600e60205260409020600401546001600160a01b03828116911614610a1a5760405162461bcd60e51b81526020600482015260166024820152752737ba103a3432903934b3b43a333ab61037bbb732b960511b6044820152606401610918565b601354610a31906001600160a01b031682846120a2565b6000610a3c83611a74565b9050600081604051602001610a519190613d48565b6040516020818303038152906040529050610a6c8482612152565b50505050565b606060008054610a8190613d77565b80601f0160208091040260200160405190810160405280929190818152602001828054610aad90613d77565b8015610afa5780601f10610acf57610100808354040283529160200191610afa565b820191906000526020600020905b815481529060010190602001808311610add57829003601f168201915b5050505050905090565b6000610b0f826121a2565b506000828152600460205260409020546001600160a01b031661089f565b610b388282336121da565b5050565b610b446121e7565b6000610b4f82612087565b6001600160a01b031603610b755760405162461bcd60e51b815260040161091890613cfe565b3360009081526012602052604090205460ff16610bcd5760405162461bcd60e51b81526020600482015260166024820152752737ba1030baba3437b934bd32b2103a3790313ab93760511b6044820152606401610918565b6000818152600e6020526040902060040154600160a01b900460ff16610c355760405162461bcd60e51b815260206004820152601960248201527f546f6b656e206e6f74207265706f727465642073746f6c656e000000000000006044820152606401610918565b6000818152600e6020526040902080546004909101546001600160a01b0316610c5d83612211565b60168054906000610c6d83613dc7565b9091555050604051828152339084907fd85c1f7ff564f119b6965b28745bea7cbb5b8a67127c670b860d2e638dbf1bc89060200160405180910390a3610cb482828561224c565b5050610cc06001600c55565b50565b6001600160a01b038216610ced57604051633250574960e11b815260006004820152602401610918565b6000610cfa838333612591565b9050836001600160a01b0316816001600160a01b031614610a6c576040516364283d7b60e01b81526001600160a01b0380861660048301526024820184905282166044820152606401610918565b6000610d53836110e3565b8210610d845760405163295f44f760e21b81526001600160a01b038416600482015260248101839052604401610918565b506001600160a01b03919091166000908152600660209081526040808320938352929052205490565b6000610db882612087565b6001600160a01b031603610dde5760405162461bcd60e51b815260040161091890613cfe565b33610de8826110d8565b6001600160a01b03161480610e0c57503360009081526012602052604090205460ff165b610e585760405162461bcd60e51b815260206004820152601860248201527f4e6f7420617574686f72697a656420746f207265706f727400000000000000006044820152606401610918565b6000818152600e6020526040902060040154600160a01b900460ff1615610ec15760405162461bcd60e51b815260206004820152601760248201527f416c7265616479207265706f727465642073746f6c656e0000000000000000006044820152606401610918565b6000818152600e6020818152604080842060048101805460ff60a01b1916600160a01b1790554260058201819055601184529482902080546001600160a01b031916339081179091559390925290549051919284927fa047ba9076d74366c869c993236d9e3088ebb736de4fbf1f3fdb8df144b4f0be92610f4a92908252602082015260400190565b60405180910390a350565b610f5d61259e565b610f656125cb565b565b610f8283838360405180602001604052806000815250611673565b505050565b6000610f9260085490565b8210610fbb5760405163295f44f760e21b81526000600482015260248101839052604401610918565b60088281548110610fce57610fce613de0565b90600052602060002001549050919050565b60606000610fed836110e3565b90506000816001600160401b0381111561100957611009613801565b604051908082528060200260200182016040528015611032578160200160208202803683370190505b509050600060015b600854811115801561104b57508382105b156110ce57600061105b82612087565b6001600160a01b03161415801561108b5750856001600160a01b0316611080826110d8565b6001600160a01b0316145b156110bc57808383815181106110a3576110a3613de0565b6020908102919091010152816110b881613dc7565b9250505b806110c681613dc7565b91505061103a565b5090949350505050565b600061089f826121a2565b60006001600160a01b03821661110f576040516322718ad960e21b815260006004820152602401610918565b506001600160a01b031660009081526003602052604090205490565b61113361259e565b610f65600061261d565b60606111476121e7565b61114f61266f565b600082118015611160575060328211155b61119f5760405162461bcd60e51b815260206004820152601060248201526f496e76616c6964207175616e7469747960801b6044820152606401610918565b818451146111e35760405162461bcd60e51b81526020600482015260116024820152704d69736d6174636865642061727261797360781b6044820152606401610918565b818351146112275760405162461bcd60e51b81526020600482015260116024820152704d69736d6174636865642061727261797360781b6044820152606401610918565b6000805b838110156112fd576000601987838151811061124957611249613de0565b602002602001015160405161125e9190613df6565b908152602001604051809103902054116112b05760405162461bcd60e51b8152602060048201526013602482015272496e76616c696420736869656c64207479706560681b6044820152606401610918565b60188682815181106112c4576112c4613de0565b60200260200101516040516112d99190613df6565b908152602001604051809103902054826112f39190613e12565b915060010161122b565b50803410156113455760405162461bcd60e51b8152602060048201526014602482015273125b9cdd59999a58da595b9d081c185e5b595b9d60621b6044820152606401610918565b6000836001600160401b0381111561135f5761135f613801565b604051908082528060200260200182016040528015611388578160200160208202803683370190505b50905060005b848110156115e0576000816113a260085490565b6113ad906001613e12565b6113b79190613e12565b905060006113c3612693565b90506040518061010001604052808281526020018a85815181106113e9576113e9613de0565b6020026020010151815260200160198b868151811061140a5761140a613de0565b602002602001015160405161141f9190613df6565b90815260200160405180910390205481526020014281526020018b6001600160a01b031681526020016000151581526020016000815260200189858151811061146a5761146a613de0565b6020908102919091018101519091526000848152600e8252604090208251815590820151600182019061149d9082613e6c565b506040820151600282015560608201516003820155608082015160048201805460a08501511515600160a01b026001600160a81b03199091166001600160a01b039093169290921791909117905560c0820151600582015560e082015160068201906115099082613e6c565b5050506000818152600f60205260408120805460ff19166001179055601580549161153383613dc7565b91905055506115428a836126b1565b600061154d836126cb565b90506115598382612152565b8285858151811061156c5761156c613de0565b6020026020010181815250508a6001600160a01b0316837fc49ba1d539bbba86338db5e94bfbf7d04ed20373e5fe751f9645dd9696774718848d88815181106115b7576115b7613de0565b60200260200101516040516115cd929190613f2a565b60405180910390a350505060010161138e565b509150506115ee6001600c55565b949350505050565b6115fe61259e565b601380546001600160a01b0319166001600160a01b0392909216919091179055565b61162861259e565b610f656128b5565b606060018054610a8190613d77565b610b383383836128f2565b61165261259e565b6001600160a01b03166000908152601260205260409020805460ff19169055565b61167e848484610cc3565b610a6c3385858585612991565b60006116956121e7565b61169d61266f565b60006019846040516116af9190613df6565b908152602001604051809103902054116117015760405162461bcd60e51b8152602060048201526013602482015272496e76616c696420736869656c64207479706560681b6044820152606401610918565b6018836040516117119190613df6565b9081526020016040518091039020543410156117665760405162461bcd60e51b8152602060048201526014602482015273125b9cdd59999a58da595b9d081c185e5b595b9d60621b6044820152606401610918565b600061177160085490565b61177c906001613e12565b90506000611788612693565b90506040518061010001604052808281526020018681526020016019876040516117b29190613df6565b908152604080516020928190038301902054835242838301526001600160a01b038a16838201526000606084018190526080840181905260a0909301889052858352600e8252909120825181559082015160018201906118129082613e6c565b506040820151600282015560608201516003820155608082015160048201805460a08501511515600160a01b026001600160a81b03199091166001600160a01b039093169290921791909117905560c0820151600582015560e0820151600682019061187e9082613e6c565b5050506000818152600f60205260408120805460ff1916600117905560158054916118a883613dc7565b91905055506118b786836126b1565b60006118c2836126cb565b90506118ce8382612152565b3415611979576013546040516000916001600160a01b03169034908381818185875af1925050503d8060008114611921576040519150601f19603f3d011682016040523d82523d6000602084013e611926565b606091505b50509050806119775760405162461bcd60e51b815260206004820152601760248201527f5472656173757279207061796d656e74206661696c65640000000000000000006044820152606401610918565b505b866001600160a01b0316837fc49ba1d539bbba86338db5e94bfbf7d04ed20373e5fe751f9645dd969677471884896040516119b5929190613f2a565b60405180910390a350506001600c5590505b9392505050565b6000818152600f60205260408120548190819060ff166119f657506000915081905080611a6d565b60015b6008548111611a60576000611a0d82612087565b6001600160a01b031614158015611a3157506000818152600e602052604090205485145b15611a4e5780611a40826110d8565b600193509350935050611a6d565b80611a5881613dc7565b9150506119f9565b5060008060009250925092505b9193909250565b606061089f82612abc565b611ad26040518061010001604052806000815260200160608152602001600081526020016000815260200160006001600160a01b0316815260200160001515815260200160008152602001606081525090565b6000611add83612087565b6001600160a01b031603611b035760405162461bcd60e51b815260040161091890613cfe565b600e60008381526020019081526020016000206040518061010001604052908160008201548152602001600182018054611b3c90613d77565b80601f0160208091040260200160405190810160405280929190818152602001828054611b6890613d77565b8015611bb55780601f10611b8a57610100808354040283529160200191611bb5565b820191906000526020600020905b815481529060010190602001808311611b9857829003601f168201915b5050509183525050600282015460208201526003820154604082015260048201546001600160a01b0381166060830152600160a01b900460ff1615156080820152600582015460a082015260068201805460c090920191611c1590613d77565b80601f0160208091040260200160405190810160405280929190818152602001828054611c4190613d77565b8015611c8e5780601f10611c6357610100808354040283529160200191611c8e565b820191906000526020600020905b815481529060010190602001808311611c7157829003601f168201915b5050505050815250509050919050565b611ca661259e565b6000611cba600b546001600160a01b031690565b6001600160a01b03164760405160006040518083038185875af1925050503d8060008114611d04576040519150601f19603f3d011682016040523d82523d6000602084013e611d09565b606091505b5050905080610cc05760405162461bcd60e51b815260206004820152601160248201527015da5d1a191c985dd85b0819985a5b1959607a1b6044820152606401610918565b600e6020526000908152604090208054600182018054919291611d7090613d77565b80601f0160208091040260200160405190810160405280929190818152602001828054611d9c90613d77565b8015611de95780601f10611dbe57610100808354040283529160200191611de9565b820191906000526020600020905b815481529060010190602001808311611dcc57829003601f168201915b505050506002830154600384015460048501546005860154600687018054969794969395506001600160a01b03831694600160a01b90930460ff1693919291611e3190613d77565b80601f0160208091040260200160405190810160405280929190818152602001828054611e5d90613d77565b8015611eaa5780601f10611e7f57610100808354040283529160200191611eaa565b820191906000526020600020905b815481529060010190602001808311611e8d57829003601f168201915b5050505050905088565b6000806000806000601554601654601754611ece60085490565b601454945094509450945094509091929394565b611eea61259e565b6001600160a01b03166000908152601260205260409020805460ff19166001179055565b6001600160a01b03918216600090815260056020908152604080832093909416825291909152205460ff1690565b611f4461259e565b600081118015611f55575060648111155b611fa15760405162461bcd60e51b815260206004820152601860248201527f496e76616c69642070726f74656374696f6e206c6576656c00000000000000006044820152606401610918565b81601884604051611fb29190613df6565b90815260200160405180910390208190555080601984604051611fd59190613df6565b9081526020016040518091039020819055507fee3111b6b0447c706a20103c12fad25d24727f35425d59e28f58ad25612283ef83838360405161201a93929190613f43565b60405180910390a1505050565b61202f61259e565b6001600160a01b03811661205957604051631e4fbdf760e01b815260006004820152602401610918565b610cc08161261d565b60006001600160e01b03198216632483248360e11b148061089f575061089f82612bc5565b6000908152600260205260409020546001600160a01b031690565b6001600160a01b0382166120cc57604051633250574960e11b815260006004820152602401610918565b60006120da83836000612591565b90506001600160a01b03811661210657604051637e27328960e01b815260048101839052602401610918565b836001600160a01b0316816001600160a01b031614610a6c576040516364283d7b60e01b81526001600160a01b0380861660048301526024820184905282166044820152606401610918565b6000828152600a6020526040902061216a8282613e6c565b506040518281527ff8e1a15aba9398e019f0b49df1a4fde98ee17ae345cb5f6b5e2c27f5033e8ce79060200160405180910390a15050565b6000806121ae83612087565b90506001600160a01b03811661089f57604051637e27328960e01b815260048101849052602401610918565b610f828383836001612bea565b6002600c540361220a57604051633ee5aeb560e01b815260040160405180910390fd5b6002600c55565b60006122206000836000612591565b90506001600160a01b038116610b3857604051637e27328960e01b815260048101839052602401610918565b600061225760085490565b612262906001613e12565b90506000600e6000848152602001908152602001600020604051806101000160405290816000820154815260200160018201805461229f90613d77565b80601f01602080910402602001604051908101604052809291908181526020018280546122cb90613d77565b80156123185780601f106122ed57610100808354040283529160200191612318565b820191906000526020600020905b8154815290600101906020018083116122fb57829003601f168201915b5050509183525050600282015460208201526003820154604082015260048201546001600160a01b0381166060830152600160a01b900460ff1615156080820152600582015460a082015260068201805460c09092019161237890613d77565b80601f01602080910402602001604051908101604052809291908181526020018280546123a490613d77565b80156123f15780601f106123c6576101008083540402835291602001916123f1565b820191906000526020600020905b8154815290600101906020018083116123d457829003601f168201915b50505050508152505090506040518061010001604052808681526020018260200151815260200182604001518152602001428152602001856001600160a01b03168152602001600015158152602001600081526020018260e0015160405160200161245c9190613f68565b60408051601f1981840301815291815291526000848152600e6020908152919020825181559082015160018201906124949082613e6c565b506040820151600282015560608201516003820155608082015160048201805460a08501511515600160a01b026001600160a81b03199091166001600160a01b039093169290921791909117905560c0820151600582015560e082015160068201906125009082613e6c565b505060135461251991506001600160a01b0316836126b1565b600061252483612cf0565b90506125308382612152565b6017805490600061254083613dc7565b9190505550846001600160a01b0316837f8590574c01974ce09a1417385b7cdf10baf839deca90eb582fe2519aa11520848860405161258191815260200190565b60405180910390a3505050505050565b60006115ee848484612eb2565b600b546001600160a01b03163314610f655760405163118cdaa760e01b8152336004820152602401610918565b6125d3612f7f565b600d805460ff191690557f5db9ee0a495bf2e6ff9c91a7834c1ba4fdd244a5e8aa4e537bd38aeae4b073aa335b6040516001600160a01b03909116815260200160405180910390a1565b600b80546001600160a01b038381166001600160a01b0319831681179093556040519116919082907f8be0079c531659141344cd1fd0a4f28419497f9722a3daafe3b4186f6b6457e090600090a35050565b600d5460ff1615610f655760405163d93c066560e01b815260040160405180910390fd5b601480546000918190836126a683613dc7565b909155509092915050565b610b38828260405180602001604052806000815250612fa2565b6000818152600e602090815260408083208151610100810190925280548252600181018054606095948401919061270190613d77565b80601f016020809104026020016040519081016040528092919081815260200182805461272d90613d77565b801561277a5780601f1061274f5761010080835404028352916020019161277a565b820191906000526020600020905b81548152906001019060200180831161275d57829003601f168201915b5050509183525050600282015460208201526003820154604082015260048201546001600160a01b0381166060830152600160a01b900460ff1615156080820152600582015460a082015260068201805460c0909201916127da90613d77565b80601f016020809104026020016040519081016040528092919081815260200182805461280690613d77565b80156128535780601f1061282857610100808354040283529160200191612853565b820191906000526020600020905b81548152906001019060200180831161283657829003601f168201915b5050505050815250509050600061286d8260000151612fba565b825161287890612fba565b836020015161288a8560400151612fba565b60405160200161289d9493929190614008565b60408051601f19818403018152919052949350505050565b6128bd61266f565b600d805460ff191660011790557f62e78cea01bee320cd4e420270b5ea74000d11b0c9f74754ebdbfc544b05a2586126003390565b6001600160a01b03821661292457604051630b61174360e31b81526001600160a01b0383166004820152602401610918565b6001600160a01b03838116600081815260056020908152604080832094871680845294825291829020805460ff191686151590811790915591519182527f17307eab39ab6107e8899845ad3d59bd9653f200f220920489ca2b5937696c31910160405180910390a3505050565b6001600160a01b0383163b15612ab557604051630a85bd0160e11b81526001600160a01b0384169063150b7a02906129d3908890889087908790600401614183565b6020604051808303816000875af1925050508015612a0e575060408051601f3d908101601f19168201909252612a0b918101906141b6565b60015b612a77573d808015612a3c576040519150601f19603f3d011682016040523d82523d6000602084013e612a41565b606091505b508051600003612a6f57604051633250574960e11b81526001600160a01b0385166004820152602401610918565b805160208201fd5b6001600160e01b03198116630a85bd0160e11b14612ab357604051633250574960e11b81526001600160a01b0385166004820152602401610918565b505b5050505050565b6060612ac7826121a2565b506000828152600a602052604081208054612ae190613d77565b80601f0160208091040260200160405190810160405280929190818152602001828054612b0d90613d77565b8015612b5a5780601f10612b2f57610100808354040283529160200191612b5a565b820191906000526020600020905b815481529060010190602001808311612b3d57829003601f168201915b505050505090506000612b7860408051602081019091526000815290565b90508051600003612b8a575092915050565b815115612bbc578082604051602001612ba49291906141d3565b60405160208183030381529060405292505050919050565b6115ee846130ba565b60006001600160e01b0319821663780e9d6360e01b148061089f575061089f8261312e565b8080612bfe57506001600160a01b03821615155b15612cc0576000612c0e846121a2565b90506001600160a01b03831615801590612c3a5750826001600160a01b0316816001600160a01b031614155b8015612c4d5750612c4b8184611f0e565b155b15612c765760405163a9fbf51f60e01b81526001600160a01b0384166004820152602401610918565b8115612cbe5783856001600160a01b0316826001600160a01b03167f8c5be1e5ebec7d5bd14f71427d1e84f3dd0314c0f7b2291e5b200ac8c7c3b92560405160405180910390a45b505b5050600090815260046020526040902080546001600160a01b0319166001600160a01b0392909216919091179055565b6000818152600e6020908152604080832081516101008101909252805482526001810180546060959484019190612d2690613d77565b80601f0160208091040260200160405190810160405280929190818152602001828054612d5290613d77565b8015612d9f5780601f10612d7457610100808354040283529160200191612d9f565b820191906000526020600020905b815481529060010190602001808311612d8257829003601f168201915b5050509183525050600282015460208201526003820154604082015260048201546001600160a01b0381166060830152600160a01b900460ff1615156080820152600582015460a082015260068201805460c090920191612dff90613d77565b80601f0160208091040260200160405190810160405280929190818152602001828054612e2b90613d77565b8015612e785780601f10612e4d57610100808354040283529160200191612e78565b820191906000526020600020905b815481529060010190602001808311612e5b57829003601f168201915b50505050508152505090506000612e928260000151612fba565b8251612e9d90612fba565b60208085015160405161289d94939201614202565b600080612ec085858561317e565b90506001600160a01b038116612f1d57612f1884600880546000838152600960205260408120829055600182018355919091527ff3f7a9fe364faab93b216da50a3214154f22a0a2b415b23a84c8169e8b636ee30155565b612f40565b846001600160a01b0316816001600160a01b031614612f4057612f408185613272565b6001600160a01b038516612f5c57612f57846132f3565b6115ee565b846001600160a01b0316816001600160a01b0316146115ee576115ee85856133a2565b600d5460ff16610f6557604051638dfc202b60e01b815260040160405180910390fd5b612fac83836133f2565b610f82336000858585612991565b606081600003612fe15750506040805180820190915260018152600360fc1b602082015290565b8160005b811561300b5780612ff581613dc7565b91506130049050600a8361437c565b9150612fe5565b6000816001600160401b0381111561302557613025613801565b6040519080825280601f01601f19166020018201604052801561304f576020820181803683370190505b5090505b84156115ee57613064600183614390565b9150613071600a866143a3565b61307c906030613e12565b60f81b81838151811061309157613091613de0565b60200101906001600160f81b031916908160001a9053506130b3600a8661437c565b9450613053565b60606130c5826121a2565b5060006130dd60408051602081019091526000815290565b905060008151116130fd57604051806020016040528060008152506119c7565b8061310784613457565b6040516020016131189291906141d3565b6040516020818303038152906040529392505050565b60006001600160e01b031982166380ac58cd60e01b148061315f57506001600160e01b03198216635b5e139f60e01b145b8061089f57506301ffc9a760e01b6001600160e01b031983161461089f565b60008061318a84612087565b90506001600160a01b038316156131a6576131a68184866134e9565b6001600160a01b038116156131e4576131c3600085600080612bea565b6001600160a01b038116600090815260036020526040902080546000190190555b6001600160a01b03851615613213576001600160a01b0385166000908152600360205260409020805460010190555b60008481526002602052604080822080546001600160a01b0319166001600160a01b0389811691821790925591518793918516917fddf252ad1be2c89b69c2b068fc378daa952ba7f163c4a11628f55a4df523b3ef91a4949350505050565b600061327d836110e3565b6000838152600760209081526040808320546001600160a01b03881684526006909252909120919250908183146132d457600083815260208281526040808320548584528184208190558352600790915290208290555b6000938452600760209081526040808620869055938552525081205550565b60085460009061330590600190614390565b6000838152600960205260408120546008805493945090928490811061332d5761332d613de0565b90600052602060002001549050806008838154811061334e5761334e613de0565b6000918252602080832090910192909255828152600990915260408082208490558582528120556008805480613386576133866143b7565b6001900381819060005260206000200160009055905550505050565b600060016133af846110e3565b6133b99190614390565b6001600160a01b039093166000908152600660209081526040808320868452825280832085905593825260079052919091209190915550565b6001600160a01b03821661341c57604051633250574960e11b815260006004820152602401610918565b600061342a83836000612591565b90506001600160a01b03811615610f82576040516339e3563760e11b815260006004820152602401610918565b606060006134648361354d565b60010190506000816001600160401b0381111561348357613483613801565b6040519080825280601f01601f1916602001820160405280156134ad576020820181803683370190505b5090508181016020015b600019016f181899199a1a9b1b9c1cb0b131b232b360811b600a86061a8153600a85049450846134b757509392505050565b6134f4838383613625565b610f82576001600160a01b03831661352257604051637e27328960e01b815260048101829052602401610918565b60405163177e802f60e01b81526001600160a01b038316600482015260248101829052604401610918565b60008072184f03e93ff9f4daa797ed6e38ed64bf6a1f0160401b831061358c5772184f03e93ff9f4daa797ed6e38ed64bf6a1f0160401b830492506040015b6d04ee2d6d415b85acef810000000083106135b8576d04ee2d6d415b85acef8100000000830492506020015b662386f26fc1000083106135d657662386f26fc10000830492506010015b6305f5e10083106135ee576305f5e100830492506008015b612710831061360257612710830492506004015b60648310613614576064830492506002015b600a831061089f5760010192915050565b60006001600160a01b038316158015906115ee5750826001600160a01b0316846001600160a01b0316148061365f575061365f8484611f0e565b806115ee5750506000908152600460205260409020546001600160a01b03908116911614919050565b6001600160e01b031981168114610cc057600080fd5b6000602082840312156136b057600080fd5b81356119c781613688565b80356001600160a01b03811681146136d257600080fd5b919050565b600080604083850312156136ea57600080fd5b823591506136fa602084016136bb565b90509250929050565b60005b8381101561371e578181015183820152602001613706565b50506000910152565b6000815180845261373f816020860160208601613703565b601f01601f19169290920160200192915050565b6020815260006119c76020830184613727565b60006020828403121561377857600080fd5b5035919050565b6000806040838503121561379257600080fd5b61379b836136bb565b946020939093013593505050565b6000806000606084860312156137be57600080fd5b6137c7846136bb565b92506137d5602085016136bb565b929592945050506040919091013590565b6000602082840312156137f857600080fd5b6119c7826136bb565b634e487b7160e01b600052604160045260246000fd5b604051601f8201601f191681016001600160401b038111828210171561383f5761383f613801565b604052919050565b6000806001600160401b0384111561386157613861613801565b50601f8301601f191660200161387681613817565b91505082815283838301111561388b57600080fd5b828260208301376000602084830101529392505050565b600082601f8301126138b357600080fd5b6119c783833560208501613847565b6000602082840312156138d457600080fd5b81356001600160401b038111156138ea57600080fd5b6115ee848285016138a2565b602080825282518282018190526000918401906040840190835b8181101561392e578351835260209384019390920191600101613910565b509095945050505050565b600082601f83011261394a57600080fd5b81356001600160401b0381111561396357613963613801565b8060051b61397360208201613817565b9182526020818501810192908101908684111561398f57600080fd5b6020860192505b838310156139d55782356001600160401b038111156139b457600080fd5b6139c3886020838a01016138a2565b83525060209283019290910190613996565b9695505050505050565b600080600080608085870312156139f557600080fd5b6139fe856136bb565b935060208501356001600160401b03811115613a1957600080fd5b613a2587828801613939565b93505060408501356001600160401b03811115613a4157600080fd5b613a4d87828801613939565b949793965093946060013593505050565b60008060408385031215613a7157600080fd5b613a7a836136bb565b915060208301358015158114613a8f57600080fd5b809150509250929050565b60008060008060808587031215613ab057600080fd5b613ab9856136bb565b9350613ac7602086016136bb565b92506040850135915060608501356001600160401b03811115613ae957600080fd5b8501601f81018713613afa57600080fd5b613b0987823560208401613847565b91505092959194509250565b600080600060608486031215613b2a57600080fd5b613b33846136bb565b925060208401356001600160401b03811115613b4e57600080fd5b613b5a868287016138a2565b92505060408401356001600160401b03811115613b7657600080fd5b613b82868287016138a2565b9150509250925092565b6020815281516020820152600060208301516101006040840152613bb4610120840182613727565b9050604084015160608401526060840151608084015260018060a01b0360808501511660a084015260a0840151613bef60c085018215159052565b5060c084015160e084015260e0840151601f1984830301610100850152613c168282613727565b95945050505050565b88815261010060208201526000613c3a61010083018a613727565b60408301899052606083018890526001600160a01b038716608084015285151560a084015260c0830185905282810360e0840152613c788185613727565b9b9a5050505050505050505050565b60008060408385031215613c9a57600080fd5b613ca3836136bb565b91506136fa602084016136bb565b600080600060608486031215613cc657600080fd5b83356001600160401b03811115613cdc57600080fd5b613ce8868287016138a2565b9660208601359650604090950135949350505050565b602080825260149082015273151bdad95b88191bd95cc81b9bdd08195e1a5cdd60621b604082015260600190565b60008151613d3e818560208601613703565b9290920192915050565b60008251613d5a818460208701613703565b6a205b52455455524e45445d60a81b920191825250600b01919050565b600181811c90821680613d8b57607f821691505b602082108103613dab57634e487b7160e01b600052602260045260246000fd5b50919050565b634e487b7160e01b600052601160045260246000fd5b600060018201613dd957613dd9613db1565b5060010190565b634e487b7160e01b600052603260045260246000fd5b60008251613e08818460208701613703565b9190910192915050565b8082018082111561089f5761089f613db1565b601f821115610f8257806000526020600020601f840160051c81016020851015613e4c5750805b601f840160051c820191505b81811015612ab55760008155600101613e58565b81516001600160401b03811115613e8557613e85613801565b613e9981613e938454613d77565b84613e25565b6020601f821160018114613ecd5760008315613eb55750848201515b600019600385901b1c1916600184901b178455612ab5565b600084815260208120601f198516915b82811015613efd5787850151825560209485019460019092019101613edd565b5084821015613f1b5786840151600019600387901b60f8161c191681555b50505050600190811b01905550565b8281526040602082015260006115ee6040830184613727565b606081526000613f566060830186613727565b60208301949094525060400152919050565b60008251613f7a818460208701613703565b6b205b5245434f56455245445d60a01b920191825250600c01919050565b7f7b2274726169745f74797065223a2253657269616c204e756d626572222c227681526630b63ab2911d1160c91b602082015260270190565b7f7b2274726169745f74797065223a22536869656c642054797065222c2276616c8152643ab2911d1160d91b602082015260250190565b787b226e616d65223a22477561726469616e536869656c64202360381b81526000855161403c816019850160208a01613703565b61088b60f21b6019918401918201527f226465736372697074696f6e223a22536563757269747920536869656c642054601b8201527f6f6b656e20776974682074686566742070726f74656374696f6e222c00000000603b8201526d2261747472696275746573223a5b60901b60578201526140ba60658201613f98565b905085516140cc818360208a01613703565b62089f4b60ea1b91019081526140e460038201613fd1565b9050600085516140f8818460208a01613703565b8201905061417761416961415c61415661411b8562089f4b60ea1b815260030190565b7f7b2274726169745f74797065223a2250726f74656374696f6e204c6576656c2281526816113b30b63ab2911d60b91b602082015260290190565b88613d2c565b607d60f81b815260010190565b615d7d60f01b815260020190565b98975050505050505050565b6001600160a01b03858116825284166020820152604081018390526080606082018190526000906139d590830184613727565b6000602082840312156141c857600080fd5b81516119c781613688565b600083516141e5818460208801613703565b8351908301906141f9818360208801613703565b01949350505050565b787b226e616d65223a22477561726469616e536869656c64202360381b815260008451614236816019850160208901613703565b6d0816d49150d3d59154915117488b60921b6019918401918201527f226465736372697074696f6e223a225265636f7665726564205365637572697460278201527f7920536869656c6420546f6b656e206177616974696e672072657475726e20746047820152681bc81bdddb995c888b60ba1b60678201526d2261747472696275746573223a5b60901b60708201526142d2607e8201613f98565b905084516142e4818360208901613703565b62089f4b60ea1b91019081526003810161435b61416961431e61430f61430985613fd1565b89613d2c565b62089f4b60ea1b815260030190565b7f7b2274726169745f74797065223a22537461747573222c2276616c7565223a2281526a5265636f7665726564227d60a81b6020820152602b0190565b979650505050505050565b634e487b7160e01b600052601260045260246000fd5b60008261438b5761438b614366565b500490565b8181038181111561089f5761089f613db1565b6000826143b2576143b2614366565b500690565b634e487b7160e01b600052603160045260246000fdfea264697066735822122086bd61297f5c36180ad3ced469583d50c8684e3dfddaea7ef1bc479b9bb0ef5764736f6c634300081f0033",
  "linkReferences": {},
  "deployedLinkReferences": {}
}