{
  "_format": "hh-sol-artifact-1",
  "contractName": "GuardianToken",
  "sourceName": "contracts/GuardianToken.sol",
  "abi": [
    {
      "inputs": [
        {
          "internalType": "address",
          "name": "initialSaleAddress",
          "type": "address"
        }
      ],
      "stateMutability": "nonpayable",
      "type": "constructor"
    },
    {
      "inputs": [
        {
          "internalType": "address",
          "name": "spender",
          "type": "address"
        },
        {
          "internalType": "uint256",
          "name": "allowance",
          "type": "uint256"
        },
        {
          "internalType": "uint256",
          "name": "needed",
          "type": "uint256"
        }
      ],
      "name": "ERC20InsufficientAllowance",
      "type": "error"
    },
    {
      "inputs": [
        {
          "internalType": "address",
          "name": "sender",
          "type": "address"
        },
        {
          "internalType": "uint256",
          "name": "balance",
          "type": "uint256"
        },
        {
          "internalType": "uint256",
          "name": "needed",
          "type": "uint256"
        }
      ],
      "name": "ERC20InsufficientBalance",
      "type": "error"
    },
    {
      "inputs": [
        {
          "internalType": "address",
          "name": "approver",
          "type": "address"
        }
      ],
      "name": "ERC20InvalidApprover",
      "type": "error"
    },
    {
      "inputs": [
        {
          "internalType": "address",
          "name": "receiver",
          "type": "address"
        }
      ],
      "name": "ERC20InvalidReceiver",
      "type": "error"
    },
    {
      "inputs": [
        {
          "internalType": "address",
          "name": "sender",
          "type": "address"
        }
      ],
      "name": "ERC20InvalidSender",
      "type": "error"
    },
    {
      "inputs": [
        {
          "internalType": "address",
          "name": "spender",
          "type": "address"
        }
      ],
      "name": "ERC20InvalidSpender",
      "type": "error"
    },
    {
      "inputs": [
        {
          "internalType": "address",
          "name": "owner",
          "type": "address"
        }
      ],
      "name": "OwnableInvalidOwner",
      "type": "error"
    },
    {
      "inputs": [
        {
          "internalType": "address",
          "name": "account",
          "type": "address"
        }
      ],
      "name": "OwnableUnauthorizedAccount",
      "type": "error"
    },
    {
      "anonymous": false,
      "inputs": [
        {
          "indexed": true,
          "internalType": "address",
          "name": "owner",
          "type": "address"
        },
        {
          "indexed": true,
          "internalType": "address",
          "name": "spender",
          "type": "address"
        },
        {
          "indexed": false,
          "internalType": "uint256",
          "name": "value",
          "type": "uint256"
        }
      ],
      "name": "Approval",
      "type": "event"
    },
    {
      "anonymous": false,
      "inputs": [
        {
          "indexed": true,
          "internalType": "address",
          "name": "previousOwner",
          "type": "address"
        },
        {
          "indexed": true,
          "internalType": "address",
          "name": "newOwner",
          "type": "address"
        }
      ],
      "name": "OwnershipTransferred",
      "type": "event"
    },
    {
      "anonymous": false,
      "inputs": [
        {
          "indexed": true,
          "internalType": "address",
          "name": "to",
          "type": "address"
        },
        {
          "indexed": false,
          "internalType": "uint256",
          "name": "amount",
          "type": "uint256"
        },
        {
          "indexed": false,
          "internalType": "uint256",
          "name": "totalMinted",
          "type": "uint256"
        }
      ],
      "name": "StageMint",
      "type": "event"
    },
    {
      "anonymous": false,
      "inputs": [
        {
          "indexed": true,
          "internalType": "address",
          "name": "from",
          "type": "address"
        },
        {
          "indexed": true,
          "internalType": "address",
          "name": "to",
          "type": "address"
        },
        {
          "indexed": false,
          "internalType": "uint256",
          "name": "value",
          "type": "uint256"
        }
      ],
      "name": "Transfer",
      "type": "event"
    },
    {
      "inputs": [],
      "name": "INITIAL_STAGE_SUPPLY",
      "outputs": [
        {
          "internalType": "uint256",
          "name": "",
          "type": "uint256"
        }
      ],
      "stateMutability": "view",
      "type": "function"
    },
    {
      "inputs": [],
      "name": "MAX_SUPPLY",
      "outputs": [
        {
          "internalType": "uint256",
          "name": "",
          "type": "uint256"
        }
      ],
      "stateMutability": "view",
      "type": "function"
    },
    {
      "inputs": [
        {
          "internalType": "address",
          "name": "owner",
          "type": "address"
        },
        {
          "internalType": "address",
          "name": "spender",
          "type": "address"
        }
      ],
      "name": "allowance",
      "outputs": [
        {
          "internalType": "uint256",
          "name": "",
          "type": "uint256"
        }
      ],
      "stateMutability": "view",
      "type": "function"
    },
    {
      "inputs": [
        {
          "internalType": "address",
          "name": "spender",
          "type": "address"
        },
        {
          "internalType": "uint256",
          "name": "value",
          "type": "uint256"
        }
      ],
      "name": "approve",
      "outputs": [
        {
          "internalType": "bool",
          "name": "",
          "type": "bool"
        }
      ],
      "stateMutability": "nonpayable",
      "type": "function"
    },
    {
      "inputs": [
        {
          "internalType": "address",
          "name": "account",
          "type": "address"
        }
      ],
      "name": "balanceOf",
      "outputs": [
        {
          "internalType": "uint256",
          "name": "",
          "type": "uint256"
        }
      ],
      "stateMutability": "view",
      "type": "function"
    },
    {
      "inputs": [
        {
          "internalType": "uint256",
          "name": "amount",
          "type": "uint256"
        }
      ],
      "name": "burn",
      "outputs": [],
      "stateMutability": "nonpayable",
      "type": "function"
    },
    {
      "inputs": [],
      "name": "decimals",
      "outputs": [
        {
          "internalType": "uint8",
          "name": "",
          "type": "uint8"
        }
      ],
      "stateMutability": "view",
      "type": "function"
    },
    {
      "inputs": [
        {
          "internalType": "address",
          "name": "to",
          "type": "address"
        },
        {
          "internalType": "uint256",
          "name": "amount",
          "type": "uint256"
        }
      ],
      "name": "mintStage",
      "outputs": [],
      "stateMutability": "nonpayable",
      "type": "function"
    },
    {
      "inputs": [],
      "name": "name",
      "outputs": [
        {
          "internalType": "string",
          "name": "",
          "type": "string"
        }
      ],
      "stateMutability": "view",
      "type": "function"
    },
    {
      "inputs": [],
      "name": "owner",
      "outputs": [
        {
          "internalType": "address",
          "name": "",
          "type": "address"
        }
      ],
      "stateMutability": "view",
      "type": "function"
    },
    {
      "inputs": [],
      "name": "renounceOwnership",
      "outputs": [],
      "stateMutability": "nonpayable",
      "type": "function"
    },
    {
      "inputs": [],
      "name": "symbol",
      "outputs": [
        {
          "internalType": "string",
          "name": "",
          "type": "string"
        }
      ],
      "stateMutability": "view",
      "type": "function"
    },
    {
      "inputs": [],
      "name": "totalMinted",
      "outputs": [
        {
          "internalType": "uint256",
          "name": "",
          "type": "uint256"
        }
      ],
      "stateMutability": "view",
      "type": "function"
    },
    {
      "inputs": [],
      "name": "totalSupply",
      "outputs": [
        {
          "internalType": "uint256",
          "name": "",
          "type": "uint256"
        }
      ],
      "stateMutability": "view",
      "type": "function"
    },
    {
      "inputs": [
        {
          "internalType": "address",
          "name": "to",
          "type": "address"
        },
        {
          "internalType": "uint256",
          "name": "value",
          "type": "uint256"
        }
      ],
      "name": "transfer",
      "outputs": [
        {
          "internalType": "bool",
          "name": "",
          "type": "bool"
        }
      ],
      "stateMutability": "nonpayable",
      "type": "function"
    },
    {
      "inputs": [
        {
          "internalType": "address",
          "name": "from",
          "type": "address"
        },
        {
          "internalType": "address",
          "name": "to",
          "type": "address"
        },
        {
          "internalType": "uint256",
          "name": "value",
          "type": "uint256"
        }
      ],
      "name": "transferFrom",
      "outputs": [
        {
          "internalType": "bool",
          "name": "",
          "type": "bool"
        }
      ],
      "stateMutability": "nonpayable",
      "type": "function"
    },
    {
      "inputs": [
        {
          "internalType": "address",
          "name": "newOwner",
          "type": "address"
        }
      ],
      "name": "transferOwnership",
      "outputs": [],
      "stateMutability": "nonpayable",
      "type": "function"
    }
  ],
  "bytecode": "0x608060405234801561001057600080fd5b50604051610f1f380380610f1f83398101604081905261002f916102f4565b336040518060400160405280600e81526020016d23bab0b93234b0b7102a37b5b2b760911b8152506040518060400160405280600581526020016411d550549160da1b815250816003908161008491906103c3565b50600461009182826103c3565b5050506001600160a01b0381166100c357604051631e4fbdf760e01b8152600060048201526024015b60405180910390fd5b6100cc8161013e565b506100e2816af8277896582678ac000000610190565b6af8277896582678ac00000060068190556040805182815260208101929092526001600160a01b038316917f1cabfe0c1a8cdd5816d44985b8bda15adb1be806350d8de8699fcb62a701c80c910160405180910390a2506104a8565b600580546001600160a01b038381166001600160a01b0319831681179093556040519116919082907f8be0079c531659141344cd1fd0a4f28419497f9722a3daafe3b4186f6b6457e090600090a35050565b6001600160a01b0382166101ba5760405163ec442f0560e01b8152600060048201526024016100ba565b6101c6600083836101ca565b5050565b6001600160a01b0383166101f55780600260008282546101ea9190610481565b909155506102679050565b6001600160a01b038316600090815260208190526040902054818110156102485760405163391434e360e21b81526001600160a01b038516600482015260248101829052604481018390526064016100ba565b6001600160a01b03841660009081526020819052604090209082900390555b6001600160a01b038216610283576002805482900390556102a2565b6001600160a01b03821660009081526020819052604090208054820190555b816001600160a01b0316836001600160a01b03167fddf252ad1be2c89b69c2b068fc378daa952ba7f163c4a11628f55a4df523b3ef836040516102e791815260200190565b60405180910390a3505050565b60006020828403121561030657600080fd5b81516001600160a01b038116811461031d57600080fd5b9392505050565b634e487b7160e01b600052604160045260246000fd5b600181811c9082168061034e57607f821691505b60208210810361036e57634e487b7160e01b600052602260045260246000fd5b50919050565b601f8211156103be57806000526020600020601f840160051c8101602085101561039b5750805b601f840160051c820191505b818110156103bb57600081556001016103a7565b50505b505050565b81516001600160401b038111156103dc576103dc610324565b6103f0816103ea845461033a565b84610374565b6020601f821160018114610424576000831561040c5750848201515b600019600385901b1c1916600184901b1784556103bb565b600084815260208120601f198516915b828110156104545787850151825560209485019460019092019101610434565b50848210156104725786840151600019600387901b60f8161c191681555b50505050600190811b01905550565b808201808211156104a257634e487b7160e01b600052601160045260246000fd5b92915050565b610a68806104b76000396000f3fe608060405234801561001057600080fd5b506004361061010b5760003560e01c806370a08231116100a2578063a2309ff811610071578063a2309ff814610213578063a9059cbb1461021c578063dd62ed3e1461022f578063e6c74f0814610268578063f2fde38b1461027b57600080fd5b806370a08231146101bf578063715018a6146101e85780638da5cb5b146101f057806395d89b411461020b57600080fd5b8063313ce567116100de578063313ce5671461017657806332cb6b0c146101855780633e4afd201461019857806342966c68146101aa57600080fd5b806306fdde0314610110578063095ea7b31461012e57806318160ddd1461015157806323b872dd14610163575b600080fd5b61011861028e565b6040516101259190610898565b60405180910390f35b61014161013c366004610902565b610320565b6040519015158152602001610125565b6002545b604051908152602001610125565b61014161017136600461092c565b61033a565b60405160128152602001610125565b6101556b1027e72f1f1281308800000081565b6101556af8277896582678ac00000081565b6101bd6101b8366004610969565b61035e565b005b6101556101cd366004610982565b6001600160a01b031660009081526020819052604090205490565b6101bd61036b565b6005546040516001600160a01b039091168152602001610125565b61011861037f565b61015560065481565b61014161022a366004610902565b61038e565b61015561023d3660046109a4565b6001600160a01b03918216600090815260016020908152604080832093909416825291909152205490565b6101bd610276366004610902565b61039c565b6101bd610289366004610982565b61047f565b60606003805461029d906109d7565b80601f01602080910402602001604051908101604052809291908181526020018280546102c9906109d7565b80156103165780601f106102eb57610100808354040283529160200191610316565b820191906000526020600020905b8154815290600101906020018083116102f957829003601f168201915b5050505050905090565b60003361032e8185856104ba565b60019150505b92915050565b6000336103488582856104cc565b61035385858561054b565b506001949350505050565b61036833826105aa565b50565b6103736105e4565b61037d6000610611565b565b60606004805461029d906109d7565b60003361032e81858561054b565b6103a46105e4565b6b1027e72f1f12813088000000816103bb60025490565b6103c59190610a11565b111561040d5760405162461bcd60e51b815260206004820152601260248201527145786365656473206d617820737570706c7960701b60448201526064015b60405180910390fd5b6104178282610663565b80600660008282546104299190610a11565b90915550506006546040516001600160a01b038416917f1cabfe0c1a8cdd5816d44985b8bda15adb1be806350d8de8699fcb62a701c80c9161047391858252602082015260400190565b60405180910390a25050565b6104876105e4565b6001600160a01b0381166104b157604051631e4fbdf760e01b815260006004820152602401610404565b61036881610611565b6104c78383836001610699565b505050565b6001600160a01b03838116600090815260016020908152604080832093861683529290522054600019811015610545578181101561053657604051637dc7a0d960e11b81526001600160a01b03841660048201526024810182905260448101839052606401610404565b61054584848484036000610699565b50505050565b6001600160a01b03831661057557604051634b637e8f60e11b815260006004820152602401610404565b6001600160a01b03821661059f5760405163ec442f0560e01b815260006004820152602401610404565b6104c783838361076e565b6001600160a01b0382166105d457604051634b637e8f60e11b815260006004820152602401610404565b6105e08260008361076e565b5050565b6005546001600160a01b0316331461037d5760405163118cdaa760e01b8152336004820152602401610404565b600580546001600160a01b038381166001600160a01b0319831681179093556040519116919082907f8be0079c531659141344cd1fd0a4f28419497f9722a3daafe3b4186f6b6457e090600090a35050565b6001600160a01b03821661068d5760405163ec442f0560e01b815260006004820152602401610404565b6105e06000838361076e565b6001600160a01b0384166106c35760405163e602df0560e01b815260006004820152602401610404565b6001600160a01b0383166106ed57604051634a1406b160e11b815260006004820152602401610404565b6001600160a01b038085166000908152600160209081526040808320938716835292905220829055801561054557826001600160a01b0316846001600160a01b03167f8c5be1e5ebec7d5bd14f71427d1e84f3dd0314c0f7b2291e5b200ac8c7c3b9258460405161076091815260200190565b60405180910390a350505050565b6001600160a01b03831661079957806002600082825461078e9190610a11565b9091555061080b9050565b6001600160a01b038316600090815260208190526040902054818110156107ec5760405163391434e360e21b81526001600160a01b03851660048201526024810182905260448101839052606401610404565b6001600160a01b03841660009081526020819052604090209082900390555b6001600160a01b03821661082757600280548290039055610846565b6001600160a01b03821660009081526020819052604090208054820190555b816001600160a01b0316836001600160a01b03167fddf252ad1be2c89b69c2b068fc378daa952ba7f163c4a11628f55a4df523b3ef8360405161088b91815260200190565b60405180910390a3505050565b602081526000825180602084015260005b818110156108c657602081860181015160408684010152016108a9565b506000604082850101526040601f19601f83011684010191505092915050565b80356001600160a01b03811681146108fd57600080fd5b919050565b6000806040838503121561091557600080fd5b61091e836108e6565b946020939093013593505050565b60008060006060848603121561094157600080fd5b61094a846108e6565b9250610958602085016108e6565b929592945050506040919091013590565b60006020828403121561097b57600080fd5b5035919050565b60006020828403121561099457600080fd5b61099d826108e6565b9392505050565b600080604083850312156109b757600080fd5b6109c0836108e6565b91506109ce602084016108e6565b90509250929050565b600181811c908216806109eb57607f821691505b602082108103610a0b57634e487b7160e01b600052602260045260246000fd5b50919050565b8082018082111561033457634e487b7160e01b600052601160045260246000fdfea26469706673582212203ea1c7f65abf2fae1f45fa105ea655954a501ba598bc5f4eb7782ea71601a60a64736f6c634300081f0033",
  "linkReferences": {},
  "deployedLinkReferences": {}
}