{
  "_format": "hh-sol-artifact-1",
  "contractName": "ChainlinkPriceOracle",
  "sourceName": "contracts/ChainlinkPriceOracle.sol",
  "abi": [
    {
      "inputs": [
        {
          "internalType": "address",
          "name": "_priceFeedAddress",
          "type": "address"
        }
      ],
      "stateMutability": "nonpayable",
      "type": "constructor"
    },
    {
      "inputs": [
        {
          "internalType": "address",
          "name": "owner",
          "type": "address"
        }
      ],
      "name": "OwnableInvalidOwner",
      "type": "error"
    },
    {
      "inputs": [
        {
          "internalType": "address",
          "name": "account",
          "type": "address"
        }
      ],
      "name": "OwnableUnauthorizedAccount",
      "type": "error"
    },
    {
      "anonymous": false,
      "inputs": [
        {
          "indexed": false,
          "internalType": "uint256",
          "name": "oldPrice",
          "type": "uint256"
        },
        {
          "indexed": false,
          "internalType": "uint256",
          "name": "newPrice",
          "type": "uint256"
        }
      ],
      "name": "FallbackPriceSet",
      "type": "event"
    },
    {
      "anonymous": false,
      "inputs": [
        {
          "indexed": false,
          "internalType": "uint256",
          "name": "price",
          "type": "uint256"
        },
        {
          "indexed": false,
          "internalType": "string",
          "name": "reason",
          "type": "string"
        }
      ],
      "name": "FallbackPriceUsed",
      "type": "event"
    },
    {
      "anonymous": false,
      "inputs": [
        {
          "indexed": true,
          "internalType": "address",
          "name": "previousOwner",
          "type": "address"
        },
        {
          "indexed": true,
          "internalType": "address",
          "name": "newOwner",
          "type": "address"
        }
      ],
      "name": "OwnershipTransferred",
      "type": "event"
    },
    {
      "anonymous": false,
      "inputs": [
        {
          "indexed": false,
          "internalType": "int256",
          "name": "price",
          "type": "int256"
        },
        {
          "indexed": false,
          "internalType": "uint256",
          "name": "timestamp",
          "type": "uint256"
        }
      ],
      "name": "PriceUpdated",
      "type": "event"
    },
    {
      "inputs": [],
      "name": "PRICE_DECIMALS",
      "outputs": [
        {
          "internalType": "uint256",
          "name": "",
          "type": "uint256"
        }
      ],
      "stateMutability": "view",
      "type": "function"
    },
    {
      "inputs": [],
      "name": "STALENESS_THRESHOLD",
      "outputs": [
        {
          "internalType": "uint256",
          "name": "",
          "type": "uint256"
        }
      ],
      "stateMutability": "view",
      "type": "function"
    },
    {
      "inputs": [
        {
          "internalType": "uint256",
          "name": "ethAmount",
          "type": "uint256"
        }
      ],
      "name": "ethToUsd",
      "outputs": [
        {
          "internalType": "uint256",
          "name": "usdValue",
          "type": "uint256"
        }
      ],
      "stateMutability": "view",
      "type": "function"
    },
    {
      "inputs": [],
      "name": "fallbackPrice",
      "outputs": [
        {
          "internalType": "uint256",
          "name": "",
          "type": "uint256"
        }
      ],
      "stateMutability": "view",
      "type": "function"
    },
    {
      "inputs": [
        {
          "internalType": "uint80",
          "name": "_roundId",
          "type": "uint80"
        }
      ],
      "name": "getHistoricalPrice",
      "outputs": [
        {
          "internalType": "uint256",
          "name": "price",
          "type": "uint256"
        },
        {
          "internalType": "uint256",
          "name": "timestamp",
          "type": "uint256"
        },
        {
          "internalType": "bool",
          "name": "success",
          "type": "bool"
        }
      ],
      "stateMutability": "view",
      "type": "function"
    },
    {
      "inputs": [],
      "name": "getLatestPrice",
      "outputs": [
        {
          "internalType": "uint256",
          "name": "price",
          "type": "uint256"
        },
        {
          "internalType": "uint256",
          "name": "timestamp",
          "type": "uint256"
        },
        {
          "internalType": "bool",
          "name": "success",
          "type": "bool"
        }
      ],
      "stateMutability": "view",
      "type": "function"
    },
    {
      "inputs": [],
      "name": "getPriceFeedInfo",
      "outputs": [
        {
          "internalType": "string",
          "name": "description",
          "type": "string"
        },
        {
          "internalType": "uint256",
          "name": "decimals",
          "type": "uint256"
        },
        {
          "internalType": "uint256",
          "name": "version",
          "type": "uint256"
        }
      ],
      "stateMutability": "view",
      "type": "function"
    },
    {
      "inputs": [
        {
          "internalType": "uint256",
          "name": "tokenPriceInEth",
          "type": "uint256"
        }
      ],
      "name": "getTokenPriceInUsd",
      "outputs": [
        {
          "internalType": "uint256",
          "name": "tokenPriceInUsd",
          "type": "uint256"
        }
      ],
      "stateMutability": "view",
      "type": "function"
    },
    {
      "inputs": [],
      "name": "isPriceFeedHealthy",
      "outputs": [
        {
          "internalType": "bool",
          "name": "healthy",
          "type": "bool"
        },
        {
          "internalType": "string",
          "name": "status",
          "type": "string"
        }
      ],
      "stateMutability": "view",
      "type": "function"
    },
    {
      "inputs": [],
      "name": "owner",
      "outputs": [
        {
          "internalType": "address",
          "name": "",
          "type": "address"
        }
      ],
      "stateMutability": "view",
      "type": "function"
    },
    {
      "inputs": [],
      "name": "renounceOwnership",
      "outputs": [],
      "stateMutability": "nonpayable",
      "type": "function"
    },
    {
      "inputs": [
        {
          "internalType": "uint256",
          "name": "_fallbackPrice",
          "type": "uint256"
        }
      ],
      "name": "setFallbackPrice",
      "outputs": [],
      "stateMutability": "nonpayable",
      "type": "function"
    },
    {
      "inputs": [
        {
          "internalType": "address",
          "name": "newOwner",
          "type": "address"
        }
      ],
      "name": "transferOwnership",
      "outputs": [],
      "stateMutability": "nonpayable",
      "type": "function"
    },
    {
      "inputs": [
        {
          "internalType": "uint256",
          "name": "usdAmount",
          "type": "uint256"
        }
      ],
      "name": "usdToEth",
      "outputs": [
        {
          "internalType": "uint256",
          "name": "ethValue",
          "type": "uint256"
        }
      ],
      "stateMutability": "view",
      "type": "function"
    }
  ],
  "bytecode": "0x60a06040526445d964b80060015534801561001957600080fd5b50604051610da6380380610da6833981016040819052610038916100c9565b338061005e57604051631e4fbdf760e01b81526000600482015260240160405180910390fd5b61006781610079565b506001600160a01b03166080526100f9565b600080546001600160a01b038381166001600160a01b0319831681178455604051919092169283917f8be0079c531659141344cd1fd0a4f28419497f9722a3daafe3b4186f6b6457e09190a35050565b6000602082840312156100db57600080fd5b81516001600160a01b03811681146100f257600080fd5b9392505050565b608051610c766101306000396000818161022001528181610342015281816103ca0152818161045101526106b10152610c766000f3fe608060405234801561001057600080fd5b50600436106100ea5760003560e01c8063be70d0231161008c578063eec377c011610066578063eec377c0146101c4578063f1a640f8146101d7578063f2fde38b146101df578063fdcd8d3a146101f257600080fd5b8063be70d02314610192578063ce4391df146101a8578063e28a1b86146101bb57600080fd5b80638e15f473116100c85780638e15f47314610130578063946d148014610155578063a76752b814610168578063bcecf6671461017f57600080fd5b8063715018a6146100ef5780637215b0bf146100f95780638da5cb5b14610115575b600080fd5b6100f7610205565b005b610102610e1081565b6040519081526020015b60405180910390f35b6000546040516001600160a01b03909116815260200161010c565b610138610219565b60408051938452602084019290925215159082015260600161010c565b61010261016336600461087e565b6102f6565b61017061033b565b60405161010c939291906108e7565b61010261018d36600461087e565b6104d8565b61019a61050c565b60405161010c92919061090c565b6100f76101b636600461087e565b6105e6565b61010260015481565b6101386101d236600461093f565b610681565b610102600881565b6100f76101ed366004610963565b61075a565b61010261020036600461087e565b610798565b61020d610801565b610217600061082e565b565b60008060007f00000000000000000000000000000000000000000000000000000000000000006001600160a01b031663feaf968c6040518163ffffffff1660e01b815260040160a060405180830381865afa925050508015610298575060408051601f3d908101601f191682019092526102959181019061098c565b60015b6102aa57505060015491429150600090565b6000841380156102ba5750600082115b156102e257610e106102cc83426109fa565b116102e257509196919550600194509092505050565b505060015496429650600095509350505050565b6000806000610303610219565b9250509150806103135760015491505b61031f6008600a610af4565b6103298386610b00565b6103339190610b17565b949350505050565b60606000807f00000000000000000000000000000000000000000000000000000000000000006001600160a01b0316637284e4166040518163ffffffff1660e01b8152600401600060405180830381865afa15801561039e573d6000803e3d6000fd5b505050506040513d6000823e601f3d908101601f191682016040526103c69190810190610b4f565b92507f00000000000000000000000000000000000000000000000000000000000000006001600160a01b031663313ce5676040518163ffffffff1660e01b8152600401602060405180830381865afa158015610426573d6000803e3d6000fd5b505050506040513d601f19601f8201168201806040525081019061044a9190610c04565b60ff1691507f00000000000000000000000000000000000000000000000000000000000000006001600160a01b03166354fd4d506040518163ffffffff1660e01b8152600401602060405180830381865afa1580156104ad573d6000803e3d6000fd5b505050506040513d601f19601f820116820180604052508101906104d19190610c27565b9050909192565b60008060006104e5610219565b9250509150806104f55760015491505b816105026008600a610af4565b6103299086610b00565b60006060600080600061051d610219565b9250925092508061056b5760006040518060400160405280601a81526020017f50726963652066656564206661696c6564206f72207374616c65000000000000815250945094505050509091565b60015483036105ae576000604051806040016040528060148152602001735573696e672066616c6c6261636b20707269636560601b815250945094505050509091565b60016040518060400160405280601281526020017150726963652066656564206865616c74687960701b815250945094505050509091565b6105ee610801565b6000811161063c5760405162461bcd60e51b8152602060048201526016602482015275496e76616c69642066616c6c6261636b20707269636560501b60448201526064015b60405180910390fd5b600180549082905560408051828152602081018490527f3515e709c827d86b79400b5cc8f0a07478339f87879b88c15a08315dadacbc63910160405180910390a15050565b604051639a6fc8f560e01b815269ffffffffffffffffffff82166004820152600090819081906001600160a01b037f00000000000000000000000000000000000000000000000000000000000000001690639a6fc8f59060240160a060405180830381865afa925050508015610714575060408051601f3d908101601f191682019092526107119181019061098c565b60015b61072657506000915081905080610753565b6000841315610742575091955090935060019250610753915050565b600080600097509750975050505050505b9193909250565b610762610801565b6001600160a01b03811661078c57604051631e4fbdf760e01b815260006004820152602401610633565b6107958161082e565b50565b604051630128da2960e71b815260048101829052600090309063946d148090602401602060405180830381865afa1580156107d7573d6000803e3d6000fd5b505050506040513d601f19601f820116820180604052508101906107fb9190610c27565b92915050565b6000546001600160a01b031633146102175760405163118cdaa760e01b8152336004820152602401610633565b600080546001600160a01b038381166001600160a01b0319831681178455604051919092169283917f8be0079c531659141344cd1fd0a4f28419497f9722a3daafe3b4186f6b6457e09190a35050565b60006020828403121561089057600080fd5b5035919050565b60005b838110156108b257818101518382015260200161089a565b50506000910152565b600081518084526108d3816020860160208601610897565b601f01601f19169290920160200192915050565b6060815260006108fa60608301866108bb565b60208301949094525060400152919050565b821515815260406020820152600061033360408301846108bb565b69ffffffffffffffffffff8116811461079557600080fd5b60006020828403121561095157600080fd5b813561095c81610927565b9392505050565b60006020828403121561097557600080fd5b81356001600160a01b038116811461095c57600080fd5b600080600080600060a086880312156109a457600080fd5b85516109af81610927565b60208701516040880151606089015160808a0151939850919650945092506109d681610927565b809150509295509295909350565b634e487b7160e01b600052601160045260246000fd5b818103818111156107fb576107fb6109e4565b6001815b6001841115610a4857808504811115610a2c57610a2c6109e4565b6001841615610a3a57908102905b60019390931c928002610a11565b935093915050565b600082610a5f575060016107fb565b81610a6c575060006107fb565b8160018114610a825760028114610a8c57610aa8565b60019150506107fb565b60ff841115610a9d57610a9d6109e4565b50506001821b6107fb565b5060208310610133831016604e8410600b8410161715610acb575081810a6107fb565b610ad86000198484610a0d565b8060001904821115610aec57610aec6109e4565b029392505050565b600061095c8383610a50565b80820281158282048414176107fb576107fb6109e4565b600082610b3457634e487b7160e01b600052601260045260246000fd5b500490565b634e487b7160e01b600052604160045260246000fd5b600060208284031215610b6157600080fd5b815167ffffffffffffffff811115610b7857600080fd5b8201601f81018413610b8957600080fd5b805167ffffffffffffffff811115610ba357610ba3610b39565b604051601f8201601f19908116603f0116810167ffffffffffffffff81118282101715610bd257610bd2610b39565b604052818152828201602001861015610bea57600080fd5b610bfb826020830160208601610897565b95945050505050565b600060208284031215610c1657600080fd5b815160ff8116811461095c57600080fd5b600060208284031215610c3957600080fd5b505191905056fea2646970667358221220f27f719f59787c374fe5b68d32c0b9a66fd0dd415411f2f06624165ca97e5b9064736f6c634300081f0033",
  "linkReferences": {},
  "deployedLinkReferences": {}
}