{
  "_format": "hh-sol-artifact-1",
  "contractName": "GuardianLiquidityPool",
  "sourceName": "contracts/GuardianLiquidityPool.sol",
  "abi": [
    {
      "inputs": [
        {
          "internalType": "address",
          "name": "_guardToken",
          "type": "address"
        },
        {
          "internalType": "address",
          "name": "_shieldToken",
          "type": "address"
        }
      ],
      "stateMutability": "nonpayable",
      "type": "constructor"
    },
    {
      "inputs": [
        {
          "internalType": "address",
          "name": "owner",
          "type": "address"
        }
      ],
      "name": "OwnableInvalidOwner",
      "type": "error"
    },
    {
      "inputs": [
        {
          "internalType": "address",
          "name": "account",
          "type": "address"
        }
      ],
      "name": "OwnableUnauthorizedAccount",
      "type": "error"
    },
    {
      "anonymous": false,
      "inputs": [
        {
          "indexed": true,
          "internalType": "address",
          "name": "provider",
          "type": "address"
        },
        {
          "indexed": false,
          "internalType": "uint256",
          "name": "guardAmount",
          "type": "uint256"
        },
        {
          "indexed": false,
          "internalType": "uint256",
          "name": "shieldAmount",
          "type": "uint256"
        }
      ],
      "name": "LiquidityAdded",
      "type": "event"
    },
    {
      "anonymous": false,
      "inputs": [
        {
          "indexed": true,
          "internalType": "address",
          "name": "provider",
          "type": "address"
        },
        {
          "indexed": false,
          "internalType": "uint256",
          "name": "guardAmount",
          "type": "uint256"
        },
        {
          "indexed": false,
          "internalType": "uint256",
          "name": "shieldAmount",
          "type": "uint256"
        }
      ],
      "name": "LiquidityRemoved",
      "type": "event"
    },
    {
      "anonymous": false,
      "inputs": [
        {
          "indexed": true,
          "internalType": "address",
          "name": "previousOwner",
          "type": "address"
        },
        {
          "indexed": true,
          "internalType": "address",
          "name": "newOwner",
          "type": "address"
        }
      ],
      "name": "OwnershipTransferred",
      "type": "event"
    },
    {
      "inputs": [
        {
          "internalType": "uint256",
          "name": "guardAmount",
          "type": "uint256"
        },
        {
          "internalType": "uint256",
          "name": "shieldAmount",
          "type": "uint256"
        }
      ],
      "name": "addLiquidity",
      "outputs": [],
      "stateMutability": "nonpayable",
      "type": "function"
    },
    {
      "inputs": [],
      "name": "guardToken",
      "outputs": [
        {
          "internalType": "contract IERC20",
          "name": "",
          "type": "address"
        }
      ],
      "stateMutability": "view",
      "type": "function"
    },
    {
      "inputs": [
        {
          "internalType": "address",
          "name": "",
          "type": "address"
        }
      ],
      "name": "liquidity",
      "outputs": [
        {
          "internalType": "uint256",
          "name": "",
          "type": "uint256"
        }
      ],
      "stateMutability": "view",
      "type": "function"
    },
    {
      "inputs": [],
      "name": "owner",
      "outputs": [
        {
          "internalType": "address",
          "name": "",
          "type": "address"
        }
      ],
      "stateMutability": "view",
      "type": "function"
    },
    {
      "inputs": [
        {
          "internalType": "uint256",
          "name": "amount",
          "type": "uint256"
        }
      ],
      "name": "removeLiquidity",
      "outputs": [],
      "stateMutability": "nonpayable",
      "type": "function"
    },
    {
      "inputs": [],
      "name": "renounceOwnership",
      "outputs": [],
      "stateMutability": "nonpayable",
      "type": "function"
    },
    {
      "inputs": [],
      "name": "shieldToken",
      "outputs": [
        {
          "internalType": "contract IERC20",
          "name": "",
          "type": "address"
        }
      ],
      "stateMutability": "view",
      "type": "function"
    },
    {
      "inputs": [],
      "name": "totalLiquidity",
      "outputs": [
        {
          "internalType": "uint256",
          "name": "",
          "type": "uint256"
        }
      ],
      "stateMutability": "view",
      "type": "function"
    },
    {
      "inputs": [
        {
          "internalType": "address",
          "name": "newOwner",
          "type": "address"
        }
      ],
      "name": "transferOwnership",
      "outputs": [],
      "stateMutability": "nonpayable",
      "type": "function"
    }
  ],
  "bytecode": "0x60c060405234801561001057600080fd5b506040516107c13803806107c183398101604081905261002f916100e2565b338061005557604051631e4fbdf760e01b81526000600482015260240160405180910390fd5b61005e81610076565b506001600160a01b039182166080521660a052610115565b600080546001600160a01b038381166001600160a01b0319831681178455604051919092169283917f8be0079c531659141344cd1fd0a4f28419497f9722a3daafe3b4186f6b6457e09190a35050565b80516001600160a01b03811681146100dd57600080fd5b919050565b600080604083850312156100f557600080fd5b6100fe836100c6565b915061010c602084016100c6565b90509250929050565b60805160a05161067261014f6000396000818161015501526103c001526000818161012e01528181610252015261032801526106726000f3fe608060405234801561001057600080fd5b50600436106100935760003560e01c80639cd441da116100665780639cd441da146100f6578063b8c876b114610109578063e56588ef14610129578063ee8ba5c514610150578063f2fde38b1461017757600080fd5b806315770f9214610098578063715018a6146100b45780638da5cb5b146100be5780639c8f9f23146100e3575b600080fd5b6100a160015481565b6040519081526020015b60405180910390f35b6100bc61018a565b005b6000546001600160a01b03165b6040516001600160a01b0390911681526020016100ab565b6100bc6100f136600461056d565b61019e565b6100bc610104366004610586565b610306565b6100a16101173660046105a8565b60026020526000908152604090205481565b6100cb7f000000000000000000000000000000000000000000000000000000000000000081565b6100cb7f000000000000000000000000000000000000000000000000000000000000000081565b6100bc6101853660046105a8565b6104b2565b6101926104f0565b61019c600061051d565b565b336000908152600260205260409020548111156101f95760405162461bcd60e51b81526020600482015260146024820152734e6f7420656e6f756768206c697175696469747960601b60448201526064015b60405180910390fd5b33600090815260026020526040812080548392906102189084906105ee565b92505081905550806001600082825461023191906105ee565b909155505060405163a9059cbb60e01b8152336004820152602481018290527f00000000000000000000000000000000000000000000000000000000000000006001600160a01b03169063a9059cbb906044016020604051808303816000875af11580156102a3573d6000803e3d6000fd5b505050506040513d601f19601f820116820180604052508101906102c79190610607565b50604080518281526000602082015233917f96cd817c6329656790ef8fba7675405193677d39619571282f5e21f3a98cd059910160405180910390a250565b6040516323b872dd60e01b8152336004820152306024820152604481018390527f00000000000000000000000000000000000000000000000000000000000000006001600160a01b0316906323b872dd906064016020604051808303816000875af1158015610379573d6000803e3d6000fd5b505050506040513d601f19601f8201168201806040525081019061039d9190610607565b506040516323b872dd60e01b8152336004820152306024820152604481018290527f00000000000000000000000000000000000000000000000000000000000000006001600160a01b0316906323b872dd906064016020604051808303816000875af1158015610411573d6000803e3d6000fd5b505050506040513d601f19601f820116820180604052508101906104359190610607565b503360009081526002602052604081208054849290610455908490610629565b92505081905550816001600082825461046e9190610629565b9091555050604080518381526020810183905233917fac1d76749e5447b7b16f5ab61447e1bd502f3bb4807af3b28e620d1700a6ee45910160405180910390a25050565b6104ba6104f0565b6001600160a01b0381166104e457604051631e4fbdf760e01b8152600060048201526024016101f0565b6104ed8161051d565b50565b6000546001600160a01b0316331461019c5760405163118cdaa760e01b81523360048201526024016101f0565b600080546001600160a01b038381166001600160a01b0319831681178455604051919092169283917f8be0079c531659141344cd1fd0a4f28419497f9722a3daafe3b4186f6b6457e09190a35050565b60006020828403121561057f57600080fd5b5035919050565b6000806040838503121561059957600080fd5b50508035926020909101359150565b6000602082840312156105ba57600080fd5b81356001600160a01b03811681146105d157600080fd5b9392505050565b634e487b7160e01b600052601160045260246000fd5b81810381811115610601576106016105d8565b92915050565b60006020828403121561061957600080fd5b815180151581146105d157600080fd5b80820180821115610601576106016105d856fea26469706673582212205cf6b74360691b8764181e26d5fe6bdfbe92ee14fdaf7275341670ebef8b3c9964736f6c634300081f0033",
  "linkReferences": {},
  "deployedLinkReferences": {}
}